{"contracts/HashJingNFT.sol":{"HashJingNFT":{"abi":[{"inputs":[{"internalType":"address","name":"rendererAddr","type":"address"}],"stateMutability":"nonpayable","type":"constructor"},{"inputs":[{"internalType":"uint256","name":"numerator","type":"uint256"},{"internalType":"uint256","name":"denominator","type":"uint256"}],"name":"ERC2981InvalidDefaultRoyalty","type":"error"},{"inputs":[{"internalType":"address","name":"receiver","type":"address"}],"name":"ERC2981InvalidDefaultRoyaltyReceiver","type":"error"},{"inputs":[{"internalType":"uint256","name":"tokenId","type":"uint256"},{"internalType":"uint256","name":"numerator","type":"uint256"},{"internalType":"uint256","name":"denominator","type":"uint256"}],"name":"ERC2981InvalidTokenRoyalty","type":"error"},{"inputs":[{"internalType":"uint256","name":"tokenId","type":"uint256"},{"internalType":"address","name":"receiver","type":"address"}],"name":"ERC2981InvalidTokenRoyaltyReceiver","type":"error"},{"inputs":[{"internalType":"address","name":"sender","type":"address"},{"internalType":"uint256","name":"tokenId","type":"uint256"},{"internalType":"address","name":"owner","type":"address"}],"name":"ERC721IncorrectOwner","type":"error"},{"inputs":[{"internalType":"address","name":"operator","type":"address"},{"internalType":"uint256","name":"tokenId","type":"uint256"}],"name":"ERC721InsufficientApproval","type":"error"},{"inputs":[{"internalType":"address","name":"approver","type":"address"}],"name":"ERC721InvalidApprover","type":"error"},{"inputs":[{"internalType":"address","name":"operator","type":"address"}],"name":"ERC721InvalidOperator","type":"error"},{"inputs":[{"internalType":"address","name":"owner","type":"address"}],"name":"ERC721InvalidOwner","type":"error"},{"inputs":[{"internalType":"address","name":"receiver","type":"address"}],"name":"ERC721InvalidReceiver","type":"error"},{"inputs":[{"internalType":"address","name":"sender","type":"address"}],"name":"ERC721InvalidSender","type":"error"},{"inputs":[{"internalType":"uint256","name":"tokenId","type":"uint256"}],"name":"ERC721NonexistentToken","type":"error"},{"inputs":[{"internalType":"address","name":"owner","type":"address"}],"name":"OwnableInvalidOwner","type":"error"},{"inputs":[{"internalType":"address","name":"account","type":"address"}],"name":"OwnableUnauthorizedAccount","type":"error"},{"inputs":[{"internalType":"uint256","name":"value","type":"uint256"},{"internalType":"uint256","name":"length","type":"uint256"}],"name":"StringsInsufficientHexLength","type":"error"},{"anonymous":false,"inputs":[{"indexed":true,"internalType":"address","name":"owner","type":"address"},{"indexed":true,"internalType":"address","name":"approved","type":"address"},{"indexed":true,"internalType":"uint256","name":"tokenId","type":"uint256"}],"name":"Approval","type":"event"},{"anonymous":false,"inputs":[{"indexed":true,"internalType":"address","name":"owner","type":"address"},{"indexed":true,"internalType":"address","name":"operator","type":"address"},{"indexed":false,"internalType":"bool","name":"approved","type":"bool"}],"name":"ApprovalForAll","type":"event"},{"anonymous":false,"inputs":[{"indexed":true,"internalType":"address","name":"previousOwner","type":"address"},{"indexed":true,"internalType":"address","name":"newOwner","type":"address"}],"name":"OwnershipTransferred","type":"event"},{"anonymous":false,"inputs":[{"indexed":true,"internalType":"address","name":"from","type":"address"},{"indexed":true,"internalType":"address","name":"to","type":"address"},{"indexed":true,"internalType":"uint256","name":"tokenId","type":"uint256"}],"name":"Transfer","type":"event"},{"inputs":[],"name":"GENESIS_PRICE","outputs":[{"internalType":"uint256","name":"","type":"uint256"}],"stateMutability":"view","type":"function"},{"inputs":[],"name":"GENESIS_SUPPLY","outputs":[{"internalType":"uint256","name":"","type":"uint256"}],"stateMutability":"view","type":"function"},{"inputs":[],"name":"MAX_ROYALTY_BPS","outputs":[{"internalType":"uint96","name":"","type":"uint96"}],"stateMutability":"view","type":"function"},{"inputs":[{"internalType":"address","name":"to","type":"address"},{"internalType":"uint256","name":"tokenId","type":"uint256"}],"name":"approve","outputs":[],"stateMutability":"nonpayable","type":"function"},{"inputs":[{"internalType":"address","name":"owner","type":"address"}],"name":"balanceOf","outputs":[{"internalType":"uint256","name":"","type":"uint256"}],"stateMutability":"view","type":"function"},{"inputs":[{"internalType":"uint256","name":"tokenId","type":"uint256"}],"name":"getApproved","outputs":[{"internalType":"address","name":"","type":"address"}],"stateMutability":"view","type":"function"},{"inputs":[{"internalType":"address","name":"owner","type":"address"},{"internalType":"address","name":"operator","type":"address"}],"name":"isApprovedForAll","outputs":[{"internalType":"bool","name":"","type":"bool"}],"stateMutability":"view","type":"function"},{"inputs":[],"name":"mint","outputs":[],"stateMutability":"payable","type":"function"},{"inputs":[],"name":"name","outputs":[{"internalType":"string","name":"","type":"string"}],"stateMutability":"view","type":"function"},{"inputs":[],"name":"owner","outputs":[{"internalType":"address","name":"","type":"address"}],"stateMutability":"view","type":"function"},{"inputs":[{"internalType":"uint256","name":"tokenId","type":"uint256"}],"name":"ownerOf","outputs":[{"internalType":"address","name":"","type":"address"}],"stateMutability":"view","type":"function"},{"inputs":[],"name":"renderer","outputs":[{"internalType":"contract IMandalaRenderer","name":"","type":"address"}],"stateMutability":"view","type":"function"},{"inputs":[],"name":"renounceOwnership","outputs":[],"stateMutability":"nonpayable","type":"function"},{"inputs":[{"internalType":"uint256","name":"tokenId","type":"uint256"},{"internalType":"uint256","name":"salePrice","type":"uint256"}],"name":"royaltyInfo","outputs":[{"internalType":"address","name":"receiver","type":"address"},{"internalType":"uint256","name":"amount","type":"uint256"}],"stateMutability":"view","type":"function"},{"inputs":[{"internalType":"address","name":"from","type":"address"},{"internalType":"address","name":"to","type":"address"},{"internalType":"uint256","name":"tokenId","type":"uint256"}],"name":"safeTransferFrom","outputs":[],"stateMutability":"nonpayable","type":"function"},{"inputs":[{"internalType":"address","name":"from","type":"address"},{"internalType":"address","name":"to","type":"address"},{"internalType":"uint256","name":"tokenId","type":"uint256"},{"internalType":"bytes","name":"data","type":"bytes"}],"name":"safeTransferFrom","outputs":[],"stateMutability":"nonpayable","type":"function"},{"inputs":[{"internalType":"address","name":"operator","type":"address"},{"internalType":"bool","name":"approved","type":"bool"}],"name":"setApprovalForAll","outputs":[],"stateMutability":"nonpayable","type":"function"},{"inputs":[{"internalType":"address","name":"receiver","type":"address"},{"internalType":"uint96","name":"feeBps","type":"uint96"}],"name":"setRoyalty","outputs":[],"stateMutability":"nonpayable","type":"function"},{"inputs":[{"internalType":"bytes4","name":"iid","type":"bytes4"}],"name":"supportsInterface","outputs":[{"internalType":"bool","name":"","type":"bool"}],"stateMutability":"view","type":"function"},{"inputs":[],"name":"symbol","outputs":[{"internalType":"string","name":"","type":"string"}],"stateMutability":"view","type":"function"},{"inputs":[{"internalType":"uint256","name":"id","type":"uint256"}],"name":"tokenURI","outputs":[{"internalType":"string","name":"","type":"string"}],"stateMutability":"view","type":"function"},{"inputs":[],"name":"totalSupply","outputs":[{"internalType":"uint256","name":"","type":"uint256"}],"stateMutability":"view","type":"function"},{"inputs":[{"internalType":"address","name":"from","type":"address"},{"internalType":"address","name":"to","type":"address"},{"internalType":"uint256","name":"tokenId","type":"uint256"}],"name":"transferFrom","outputs":[],"stateMutability":"nonpayable","type":"function"},{"inputs":[{"internalType":"address","name":"newOwner","type":"address"}],"name":"transferOwnership","outputs":[],"stateMutability":"nonpayable","type":"function"},{"inputs":[],"name":"treasury","outputs":[{"internalType":"address payable","name":"","type":"address"}],"stateMutability":"view","type":"function"},{"inputs":[],"name":"withdraw","outputs":[],"stateMutability":"nonpayable","type":"function"}],"evm":{"bytecode":{"linkReferences":{},"object":"60c06040526001600a5534801561001557600080fd5b50604051612d51380380612d51833981016040819052610034916101e3565b3360405180604001604052806008815260200167486173684a696e6760c01b81525060405180604001604052806002815260200161242560f11b815250816000908161008091906102b4565b50600161008d82826102b4565b5050506001600160a01b0381166100bf57604051631e4fbdf760e01b8152600060048201526024015b60405180910390fd5b6100c8816100ee565b506001600160a01b0381166080523360a08190526100e8906102ee610140565b50610373565b600880546001600160a01b038381166001600160a01b0319831681179093556040519116919082907f8be0079c531659141344cd1fd0a4f28419497f9722a3daafe3b4186f6b6457e090600090a35050565b6127106001600160601b03821681101561017f57604051636f483d0960e01b81526001600160601b0383166004820152602481018290526044016100b6565b6001600160a01b0383166101a957604051635b6cc80560e11b8152600060048201526024016100b6565b50604080518082019091526001600160a01b039092168083526001600160601b039091166020909201829052600160a01b90910217600655565b6000602082840312156101f557600080fd5b81516001600160a01b038116811461020c57600080fd5b9392505050565b634e487b7160e01b600052604160045260246000fd5b600181811c9082168061023d57607f821691505b60208210810361025d57634e487b7160e01b600052602260045260246000fd5b50919050565b601f8211156102af576000816000526020600020601f850160051c8101602086101561028c5750805b601f850160051c820191505b818110156102ab57828155600101610298565b5050505b505050565b81516001600160401b038111156102cd576102cd610213565b6102e1816102db8454610229565b84610263565b602080601f83116001811461031657600084156102fe5750858301515b600019600386901b1c1916600185901b1785556102ab565b600085815260208120601f198616915b8281101561034557888601518255948401946001909101908401610326565b50858210156103635787850151600019600388901b60f8161c191681555b5050505050600190811b01905550565b60805160a0516129a46103ad60003960008181610336015281816107ec015261084c0152600081816103bf0152610a9001526129a46000f3fe6080604052600436106101815760003560e01c806370a08231116100d157806399ec67651161008a578063b88d4fde11610064578063b88d4fde14610485578063c87b56dd146104a5578063e985e9c5146104c5578063f2fde38b146104e557600080fd5b806399ec676514610434578063a22cb4651461044a578063b85f3fb81461046a57600080fd5b806370a0823114610378578063715018a6146103985780638ada6b0f146103ad5780638da5cb5b146103e15780638f2fc60b146103ff57806395d89b411461041f57600080fd5b806323b872dd1161013e5780633dca40e6116101185780633dca40e6146102d657806342842e0e1461030457806361d027b3146103245780636352211e1461035857600080fd5b806323b872dd146102625780632a55205a146102825780633ccfd60b146102c157600080fd5b806301ffc9a71461018657806306fdde03146101bb578063081812fc146101dd578063095ea7b3146102155780631249c58b1461023757806318160ddd1461023f575b600080fd5b34801561019257600080fd5b506101a66101a1366004612006565b610505565b60405190151581526020015b60405180910390f35b3480156101c757600080fd5b506101d0610516565b6040516101b29190612073565b3480156101e957600080fd5b506101fd6101f8366004612086565b6105a8565b6040516001600160a01b0390911681526020016101b2565b34801561022157600080fd5b506102356102303660046120b6565b6105d1565b005b6102356105e0565b34801561024b57600080fd5b506102546106bb565b6040519081526020016101b2565b34801561026e57600080fd5b5061023561027d3660046120e0565b6106d1565b34801561028e57600080fd5b506102a261029d36600461211c565b61075c565b604080516001600160a01b0390931683526020830191909152016101b2565b3480156102cd57600080fd5b506102356107e1565b3480156102e257600080fd5b506102ec6103e881565b6040516001600160601b0390911681526020016101b2565b34801561031057600080fd5b5061023561031f3660046120e0565b6108fd565b34801561033057600080fd5b506101fd7f000000000000000000000000000000000000000000000000000000000000000081565b34801561036457600080fd5b506101fd610373366004612086565b61091d565b34801561038457600080fd5b5061025461039336600461213e565b610928565b3480156103a457600080fd5b50610235610970565b3480156103b957600080fd5b506101fd7f000000000000000000000000000000000000000000000000000000000000000081565b3480156103ed57600080fd5b506008546001600160a01b03166101fd565b34801561040b57600080fd5b5061023561041a366004612159565b610984565b34801561042b57600080fd5b506101d06109db565b34801561044057600080fd5b5061025461200081565b34801561045657600080fd5b5061023561046536600461219c565b6109ea565b34801561047657600080fd5b5061025466071afd498d000081565b34801561049157600080fd5b506102356104a036600461223c565b6109f5565b3480156104b157600080fd5b506101d06104c0366004612086565b610a0d565b3480156104d157600080fd5b506101a66104e03660046122e7565b610c1b565b3480156104f157600080fd5b5061023561050036600461213e565b610c49565b600061051082610c84565b92915050565b6060600080546105259061231a565b80601f01602080910402602001604051908101604052809291908181526020018280546105519061231a565b801561059e5780601f106105735761010080835404028352916020019161059e565b820191906000526020600020905b81548152906001019060200180831161058157829003601f168201915b5050505050905090565b60006105b382610ca9565b506000828152600460205260409020546001600160a01b0316610510565b6105dc828233610ce2565b5050565b600a546120008111156106325760405162461bcd60e51b815260206004820152601560248201527412185cda129a5b99d391950e881cdbdb19081bdd5d605a1b60448201526064015b60405180910390fd5b66071afd498d000034146106885760405162461bcd60e51b815260206004820152601b60248201527f486173684a696e674e46543a2077726f6e67206d696e742066656500000000006044820152606401610629565b610693816001612364565b600a5561069f81610cef565b6000828152600960205260409020556106b83382610d54565b50565b60006001600a546106cc9190612377565b905090565b6001600160a01b0382166106fb57604051633250574960e11b815260006004820152602401610629565b6000610708838333610d6e565b9050836001600160a01b0316816001600160a01b031614610756576040516364283d7b60e01b81526001600160a01b0380861660048301526024820184905282166044820152606401610629565b50505050565b600082815260076020526040812080548291906001600160a01b03811690600160a01b90046001600160601b0316816107b05750506006546001600160a01b03811690600160a01b90046001600160601b03165b60006127106107c86001600160601b0384168961238a565b6107d291906123b7565b92989297509195505050505050565b336001600160a01b037f000000000000000000000000000000000000000000000000000000000000000016146108485760405162461bcd60e51b815260206004820152600c60248201526b4e6f7420747265617375727960a01b6044820152606401610629565b60007f00000000000000000000000000000000000000000000000000000000000000006001600160a01b03164760405160006040518083038185875af1925050503d80600081146108b5576040519150601f19603f3d011682016040523d82523d6000602084013e6108ba565b606091505b50509050806106b85760405162461bcd60e51b815260206004820152600f60248201526e15da5d1a191c985dc819985a5b1959608a1b6044820152606401610629565b610918838383604051806020016040528060008152506109f5565b505050565b600061051082610ca9565b60006001600160a01b038216610954576040516322718ad960e21b815260006004820152602401610629565b506001600160a01b031660009081526003602052604090205490565b610978610e69565b6109826000610e96565b565b61098c610e69565b6103e86001600160601b03821611156109d15760405162461bcd60e51b81526020600482015260076024820152664d61782031302560c81b6044820152606401610629565b6105dc8282610ee8565b6060600180546105259061231a565b6105dc338383610f8b565b610a008484846106d1565b610756338585858561102a565b6060610a1882611155565b610a645760405162461bcd60e51b815260206004820152601e60248201527f486173684a696e674e46543a206e6f6e6578697374656e7420746f6b656e00006044820152606401610629565b6000828152600960205260408082205490516302158aa560e11b815260048101829052909190610b0c907f00000000000000000000000000000000000000000000000000000000000000006001600160a01b03169063042b154a90602401600060405180830381865afa158015610adf573d6000803e3d6000fd5b505050506040513d6000823e601f3d908101601f19168201604052610b0791908101906123cb565b61118c565b90506000610b19836111b2565b90506000610b26846111fd565b9050600082610b52576040518060400160405280600581526020016466616c736560d81b815250610b70565b604051806040016040528060048152602001637472756560e01b8152505b610b7c8360ff16611346565b610b878760206113d9565b604051602001610b999392919061245e565b60405160208183030381529060405290506000610bec610bb889611346565b610bc38860206113d9565b8785604051602001610bd8949392919061255c565b60405160208183030381529060405261118c565b905080604051602001610bff919061279a565b6040516020818303038152906040529650505050505050919050565b6001600160a01b03918216600090815260056020908152604080832093909416825291909152205460ff1690565b610c51610e69565b6001600160a01b038116610c7b57604051631e4fbdf760e01b815260006004820152602401610629565b6106b881610e96565b60006001600160e01b0319821663152a902d60e11b1480610510575061051082611559565b6000818152600260205260408120546001600160a01b03168061051057604051637e27328960e01b815260048101849052602401610629565b61091883838360016115a9565b6000610cfc600143612377565b60408051914060208301524290820152446060808301919091526080820184905233901b6bffffffffffffffffffffffff191660a082015260b401604051602081830303815290604052805190602001209050919050565b6105dc8282604051806020016040528060008152506116af565b6000828152600260205260408120546001600160a01b0390811690831615610d9b57610d9b8184866116c7565b6001600160a01b03811615610dd957610db86000856000806115a9565b6001600160a01b038116600090815260036020526040902080546000190190555b6001600160a01b03851615610e08576001600160a01b0385166000908152600360205260409020805460010190555b60008481526002602052604080822080546001600160a01b0319166001600160a01b0389811691821790925591518793918516917fddf252ad1be2c89b69c2b068fc378daa952ba7f163c4a11628f55a4df523b3ef91a490505b9392505050565b6008546001600160a01b031633146109825760405163118cdaa760e01b8152336004820152602401610629565b600880546001600160a01b038381166001600160a01b0319831681179093556040519116919082907f8be0079c531659141344cd1fd0a4f28419497f9722a3daafe3b4186f6b6457e090600090a35050565b6127106001600160601b038216811015610f2757604051636f483d0960e01b81526001600160601b038316600482015260248101829052604401610629565b6001600160a01b038316610f5157604051635b6cc80560e11b815260006004820152602401610629565b50604080518082019091526001600160a01b039092168083526001600160601b039091166020909201829052600160a01b90910217600655565b6001600160a01b038216610fbd57604051630b61174360e31b81526001600160a01b0383166004820152602401610629565b6001600160a01b03838116600081815260056020908152604080832094871680845294825291829020805460ff191686151590811790915591519182527f17307eab39ab6107e8899845ad3d59bd9653f200f220920489ca2b5937696c31910160405180910390a3505050565b6001600160a01b0383163b1561114e57604051630a85bd0160e11b81526001600160a01b0384169063150b7a029061106c9088908890879087906004016127df565b6020604051808303816000875af19250505080156110a7575060408051601f3d908101601f191682019092526110a49181019061281c565b60015b611110573d8080156110d5576040519150601f19603f3d011682016040523d82523d6000602084013e6110da565b606091505b50805160000361110857604051633250574960e11b81526001600160a01b0385166004820152602401610629565b805181602001fd5b6001600160e01b03198116630a85bd0160e11b1461114c57604051633250574960e11b81526001600160a01b0385166004820152602401610629565b505b5050505050565b600081158015906111675750600a5482105b80156105105750506000908152600260205260409020546001600160a01b0316151590565b60606105108260405180606001604052806040815260200161292f60409139600161172b565b60008060005b60208110156111f3576111dc8482602081106111d6576111d6612839565b1a6118ab565b6111e99060ff1683612364565b91506001016111b8565b5060801492915050565b600080611209836118da565b9050611213611f57565b6000805b60408160ff16101561133d57835160ff82166040811061123957611239612839565b602002015160ff161515806112655750825160ff82166040811061125f5761125f612839565b60200201515b61133557611271611f57565b61127d85858385611a0b565b15611333578261128c8161284f565b93505060005b60048160ff1610156113315760005b60408160ff16101561132857828260ff16600481106112c2576112c2612839565b60200201518160ff16604081106112db576112db612839565b602002015115611320576001868360ff16600481106112fc576112fc612839565b60200201518260ff166040811061131557611315612839565b911515602090920201525b6001016112a1565b50600101611292565b505b505b600101611217565b50949350505050565b6060600061135383611c74565b600101905060008167ffffffffffffffff811115611373576113736121cd565b6040519080825280601f01601f19166020018201604052801561139d576020820181803683370190505b5090508181016020015b600019016f181899199a1a9b1b9c1cb0b131b232b360811b600a86061a8153600a85049450846113a757509392505050565b60608260006113e984600261238a565b6113f4906002612364565b67ffffffffffffffff81111561140c5761140c6121cd565b6040519080825280601f01601f191660200182016040528015611436576020820181803683370190505b509050600360fc1b8160008151811061145157611451612839565b60200101906001600160f81b031916908160001a905350600f60fb1b8160018151811061148057611480612839565b60200101906001600160f81b031916908160001a90535060006114a485600261238a565b6114af906001612364565b90505b6001811115611527576f181899199a1a9b1b9c1cb0b131b232b360811b83600f16601081106114e3576114e3612839565b1a60f81b8282815181106114f9576114f9612839565b60200101906001600160f81b031916908160001a90535060049290921c916115208161286e565b90506114b2565b5081156115515760405163e22e27eb60e01b81526004810186905260248101859052604401610629565b949350505050565b60006001600160e01b031982166380ac58cd60e01b148061158a57506001600160e01b03198216635b5e139f60e01b145b8061051057506301ffc9a760e01b6001600160e01b0319831614610510565b80806115bd57506001600160a01b03821615155b1561167f5760006115cd84610ca9565b90506001600160a01b038316158015906115f95750826001600160a01b0316816001600160a01b031614155b801561160c575061160a8184610c1b565b155b156116355760405163a9fbf51f60e01b81526001600160a01b0384166004820152602401610629565b811561167d5783856001600160a01b0316826001600160a01b03167f8c5be1e5ebec7d5bd14f71427d1e84f3dd0314c0f7b2291e5b200ac8c7c3b92560405160405180910390a45b505b5050600090815260046020526040902080546001600160a01b0319166001600160a01b0392909216919091179055565b6116b98383611d4c565b61091833600085858561102a565b6116d2838383611db1565b610918576001600160a01b03831661170057604051637e27328960e01b815260048101829052602401610629565b60405163177e802f60e01b81526001600160a01b038316600482015260248101829052604401610629565b6060835160000361174b5750604080516020810190915260008152610e62565b60008261177c57600385516004611762919061238a565b61176d906002612364565b61177791906123b7565b6117a1565b60038551600261178c9190612364565b61179691906123b7565b6117a190600461238a565b905060008167ffffffffffffffff8111156117be576117be6121cd565b6040519080825280601f01601f1916602001820160405280156117e8576020820181803683370190505b50905060018501602082018788518901602081018051600082525b8284101561185e576003840193508351603f8160121c168701518653600186019550603f81600c1c168701518653600186019550603f8160061c168701518653600186019550603f8116870151865350600185019450611803565b90525050851561189f5760038851066001811461188257600281146118955761189d565b603d6001830353603d600283035361189d565b603d60018303535b505b50909695505050505050565b60005b60ff8216156118d5576118c46001831682612885565b905060018260ff16901c91506118ae565b919050565b6118e2611f84565b60005b6020811015611a05576000600484836020811061190457611904612839565b1a901c9050600084836020811061191d5761191d612839565b1a600f16905060005b60048160ff1610156119f75761193d81600361289e565b60ff168360ff16901c600116858260ff166004811061195e5761195e612839565b602002015161196e86600261238a565b6040811061197e5761197e612839565b60ff909216602092909202015261199681600361289e565b60ff168260ff16901c600116858260ff16600481106119b7576119b7612839565b60200201516119c786600261238a565b6119d2906001612364565b604081106119e2576119e2612839565b60ff9092166020929092020152600101611926565b5050508060010190506118e5565b50919050565b6000611a15611fb1565b611a1d611fb1565b600080835260ff8516825260015b80821015611c6857600084836101008110611a4857611a48612839565b60200201519050600084846101008110611a6457611a64612839565b6020020151905083611a75816128b7565b945050888261ffff1660048110611a8e57611a8e612839565b60200201518161ffff1660408110611aa857611aa8612839565b602002015180611aee57508a8261ffff1660048110611ac957611ac9612839565b60200201518161ffff1660408110611ae357611ae3612839565b602002015160ff1615155b15611afa575050611a2b565b6001898361ffff1660048110611b1257611b12612839565b60200201518261ffff1660408110611b2c57611b2c612839565b9115156020909202015261ffff8216600303611b4757600196505b60006040518060800160405280846001611b6191906128d0565b61ffff1661ffff1681526020018461ffff16600014611b8a57611b856001866128f2565b611b8d565b60005b61ffff908116825285811660208084018290526040938401919091528251608081018452918616808352908201529192506000919081810190611bd18660016128d0565b611bdb919061290d565b61ffff1681526020016040611bf186603f6128d0565b611bfb919061290d565b61ffff169052905060005b60048160ff161015611c5e57611c548e8e8e8c8c888760ff1660048110611c2f57611c2f612839565b6020020151888860ff1660048110611c4957611c49612839565b60200201518d611e14565b9550600101611c06565b5050505050611a2b565b50505050949350505050565b60008072184f03e93ff9f4daa797ed6e38ed64bf6a1f0160401b8310611cb35772184f03e93ff9f4daa797ed6e38ed64bf6a1f0160401b830492506040015b6d04ee2d6d415b85acef81000000008310611cdf576d04ee2d6d415b85acef8100000000830492506020015b662386f26fc100008310611cfd57662386f26fc10000830492506010015b6305f5e1008310611d15576305f5e100830492506008015b6127108310611d2957612710830492506004015b60648310611d3b576064830492506002015b600a83106105105760010192915050565b6001600160a01b038216611d7657604051633250574960e11b815260006004820152602401610629565b6000611d8483836000610d6e565b90506001600160a01b03811615610918576040516339e3563760e11b815260006004820152602401610629565b60006001600160a01b038316158015906115515750826001600160a01b0316846001600160a01b03161480611deb5750611deb8484610c1b565b806115515750506000908152600460205260409020546001600160a01b03908116911614919050565b600060048461ffff16101580611e2f575060408361ffff1610155b15611e3b575080611f4b565b868461ffff1660048110611e5157611e51612839565b60200201518361ffff1660408110611e6b57611e6b612839565b602002015180611eac5750878461ffff1660048110611e8c57611e8c612839565b60200201518361ffff1660408110611ea657611ea6612839565b60200201515b80611eed5750888461ffff1660048110611ec857611ec8612839565b60200201518361ffff1660408110611ee257611ee2612839565b602002015160ff1615155b15611ef9575080611f4b565b8386836101008110611f0d57611f0d612839565b61ffff90921660209290920201528285836101008110611f2f57611f2f612839565b61ffff9092166020929092020152611f48826001612364565b90505b98975050505050505050565b60405180608001604052806004905b611f6e611fd1565b815260200190600190039081611f665790505090565b60405180608001604052806004905b611f9b611fd1565b815260200190600190039081611f935790505090565b604051806120000160405280610100906020820280368337509192915050565b6040518061080001604052806040906020820280368337509192915050565b6001600160e01b0319811681146106b857600080fd5b60006020828403121561201857600080fd5b8135610e6281611ff0565b60005b8381101561203e578181015183820152602001612026565b50506000910152565b6000815180845261205f816020860160208601612023565b601f01601f19169290920160200192915050565b602081526000610e626020830184612047565b60006020828403121561209857600080fd5b5035919050565b80356001600160a01b03811681146118d557600080fd5b600080604083850312156120c957600080fd5b6120d28361209f565b946020939093013593505050565b6000806000606084860312156120f557600080fd5b6120fe8461209f565b925061210c6020850161209f565b9150604084013590509250925092565b6000806040838503121561212f57600080fd5b50508035926020909101359150565b60006020828403121561215057600080fd5b610e628261209f565b6000806040838503121561216c57600080fd5b6121758361209f565b915060208301356001600160601b038116811461219157600080fd5b809150509250929050565b600080604083850312156121af57600080fd5b6121b88361209f565b91506020830135801515811461219157600080fd5b634e487b7160e01b600052604160045260246000fd5b604051601f8201601f1916810167ffffffffffffffff8111828210171561220c5761220c6121cd565b604052919050565b600067ffffffffffffffff82111561222e5761222e6121cd565b50601f01601f191660200190565b6000806000806080858703121561225257600080fd5b61225b8561209f565b93506122696020860161209f565b925060408501359150606085013567ffffffffffffffff81111561228c57600080fd5b8501601f8101871361229d57600080fd5b80356122b06122ab82612214565b6121e3565b8181528860208385010111156122c557600080fd5b8160208401602083013760006020838301015280935050505092959194509250565b600080604083850312156122fa57600080fd5b6123038361209f565b91506123116020840161209f565b90509250929050565b600181811c9082168061232e57607f821691505b602082108103611a0557634e487b7160e01b600052602260045260246000fd5b634e487b7160e01b600052601160045260246000fd5b808201808211156105105761051061234e565b818103818111156105105761051061234e565b80820281158282048414176105105761051061234e565b634e487b7160e01b600052601260045260246000fd5b6000826123c6576123c66123a1565b500490565b6000602082840312156123dd57600080fd5b815167ffffffffffffffff8111156123f457600080fd5b8201601f8101841361240557600080fd5b80516124136122ab82612214565b81815285602083850101111561242857600080fd5b612439826020830160208601612023565b95945050505050565b60008151612454818560208601612023565b9290920192915050565b7f7b202274726169745f74797065223a2242616c616e636564222c202276616c75815260006332911d1160e11b80602084015285516124a4816024860160208a01612023565b6308881f4b60e21b60249185019182018190527f7b202274726169745f74797065223a225061737361676573222c202276616c75602883015260488201929092528551916124f983604c840160208a01612023565b828201925080604c84015250507f7b202274726169745f74797065223a2253656564222c202276616c7565223a226050820152835161253f816070840160208801612023565b6222207d60e81b6070929091019182015260730195945050505050565b727b226e616d65223a22486173684a696e67202360681b8152845160009061258b816013850160208a01612023565b61088b60f21b6013918401918201527f226465736372697074696f6e223a2246756c6c79206f6e2d636861696e20486160158201527f73684a696e67206d616e64616c61202d20612064657465726d696e697374696360358201527f2067656e6572617469766520666f726d20646572697665642066726f6d20637260558201527f7970746f6772617068696320656e74726f70792e20536f75726365206861736860758201526101d160f51b60958201528551612650816097840160208a01612023565b611f4b61278c61278661276c61275e6127586127236126fa6126ab61268260978b8d010161088b60f21b815260020190565b7f2263726561746f72223a2244617461536174747661222c000000000000000000815260170190565b7f2265787465726e616c5f75726c223a2268747470733a2f2f6769746875622e6381527f6f6d2f446174615361747476612f686173686a696e67222c0000000000000000602082015260380190565b7f226c6963656e7365223a2243432042592d4e4320342e30222c00000000000000815260190190565b7f22696d616765223a22646174613a696d6167652f7376672b786d6c3b626173658152620d8d0b60ea1b602082015260230190565b8b612442565b61088b60f21b815260020190565b6d2261747472696275746573223a5b60901b8152600e0190565b87612442565b615d7d60f01b815260020190565b7f646174613a6170706c69636174696f6e2f6a736f6e3b6261736536342c0000008152600082516127d281601d850160208701612023565b91909101601d0192915050565b6001600160a01b038581168252841660208201526040810183905260806060820181905260009061281290830184612047565b9695505050505050565b60006020828403121561282e57600080fd5b8151610e6281611ff0565b634e487b7160e01b600052603260045260246000fd5b600060ff821660ff81036128655761286561234e565b60010192915050565b60008161287d5761287d61234e565b506000190190565b60ff81811683821601908111156105105761051061234e565b60ff82811682821603908111156105105761051061234e565b6000600182016128c9576128c961234e565b5060010190565b61ffff8181168382160190808211156128eb576128eb61234e565b5092915050565b61ffff8281168282160390808211156128eb576128eb61234e565b600061ffff80841680612922576129226123a1565b9216919091069291505056fe4142434445464748494a4b4c4d4e4f505152535455565758595a6162636465666768696a6b6c6d6e6f707172737475767778797a303132333435363738392b2fa26469706673582212205a074f1e498f36f077d87dd6ee39d2f69bce13749f7555e8640d6b7d2ef1d03864736f6c63430008190033","opcodes":"PUSH1 0xC0 PUSH1 0x40 MSTORE PUSH1 0x1 PUSH1 0xA SSTORE CALLVALUE DUP1 ISZERO PUSH2 0x15 JUMPI PUSH1 0x0 DUP1 REVERT JUMPDEST POP PUSH1 0x40 MLOAD PUSH2 0x2D51 CODESIZE SUB DUP1 PUSH2 0x2D51 DUP4 CODECOPY DUP2 ADD PUSH1 0x40 DUP2 SWAP1 MSTORE PUSH2 0x34 SWAP2 PUSH2 0x1E3 JUMP JUMPDEST CALLER PUSH1 0x40 MLOAD DUP1 PUSH1 0x40 ADD PUSH1 0x40 MSTORE DUP1 PUSH1 0x8 DUP2 MSTORE PUSH1 0x20 ADD PUSH8 0x486173684A696E67 PUSH1 0xC0 SHL DUP2 MSTORE POP PUSH1 0x40 MLOAD DUP1 PUSH1 0x40 ADD PUSH1 0x40 MSTORE DUP1 PUSH1 0x2 DUP2 MSTORE PUSH1 0x20 ADD PUSH2 0x2425 PUSH1 0xF1 SHL DUP2 MSTORE POP DUP2 PUSH1 0x0 SWAP1 DUP2 PUSH2 0x80 SWAP2 SWAP1 PUSH2 0x2B4 JUMP JUMPDEST POP PUSH1 0x1 PUSH2 0x8D DUP3 DUP3 PUSH2 0x2B4 JUMP JUMPDEST POP POP POP PUSH1 0x1 PUSH1 0x1 PUSH1 0xA0 SHL SUB DUP2 AND PUSH2 0xBF JUMPI PUSH1 0x40 MLOAD PUSH4 0x1E4FBDF7 PUSH1 0xE0 SHL DUP2 MSTORE PUSH1 0x0 PUSH1 0x4 DUP3 ADD MSTORE PUSH1 0x24 ADD JUMPDEST PUSH1 0x40 MLOAD DUP1 SWAP2 SUB SWAP1 REVERT JUMPDEST PUSH2 0xC8 DUP2 PUSH2 0xEE JUMP JUMPDEST POP PUSH1 0x1 PUSH1 0x1 PUSH1 0xA0 SHL SUB DUP2 AND PUSH1 0x80 MSTORE CALLER PUSH1 0xA0 DUP2 SWAP1 MSTORE PUSH2 0xE8 SWAP1 PUSH2 0x2EE PUSH2 0x140 JUMP JUMPDEST POP PUSH2 0x373 JUMP JUMPDEST PUSH1 0x8 DUP1 SLOAD PUSH1 0x1 PUSH1 0x1 PUSH1 0xA0 SHL SUB DUP4 DUP2 AND PUSH1 0x1 PUSH1 0x1 PUSH1 0xA0 SHL SUB NOT DUP4 AND DUP2 OR SWAP1 SWAP4 SSTORE PUSH1 0x40 MLOAD SWAP2 AND SWAP2 SWAP1 DUP3 SWAP1 PUSH32 0x8BE0079C531659141344CD1FD0A4F28419497F9722A3DAAFE3B4186F6B6457E0 SWAP1 PUSH1 0x0 SWAP1 LOG3 POP POP JUMP JUMPDEST PUSH2 0x2710 PUSH1 0x1 PUSH1 0x1 PUSH1 0x60 SHL SUB DUP3 AND DUP2 LT ISZERO PUSH2 0x17F JUMPI PUSH1 0x40 MLOAD PUSH4 0x6F483D09 PUSH1 0xE0 SHL DUP2 MSTORE PUSH1 0x1 PUSH1 0x1 PUSH1 0x60 SHL SUB DUP4 AND PUSH1 0x4 DUP3 ADD MSTORE PUSH1 0x24 DUP2 ADD DUP3 SWAP1 MSTORE PUSH1 0x44 ADD PUSH2 0xB6 JUMP JUMPDEST PUSH1 0x1 PUSH1 0x1 PUSH1 0xA0 SHL SUB DUP4 AND PUSH2 0x1A9 JUMPI PUSH1 0x40 MLOAD PUSH4 0x5B6CC805 PUSH1 0xE1 SHL DUP2 MSTORE PUSH1 0x0 PUSH1 0x4 DUP3 ADD MSTORE PUSH1 0x24 ADD PUSH2 0xB6 JUMP JUMPDEST POP PUSH1 0x40 DUP1 MLOAD DUP1 DUP3 ADD SWAP1 SWAP2 MSTORE PUSH1 0x1 PUSH1 0x1 PUSH1 0xA0 SHL SUB SWAP1 SWAP3 AND DUP1 DUP4 MSTORE PUSH1 0x1 PUSH1 0x1 PUSH1 0x60 SHL SUB SWAP1 SWAP2 AND PUSH1 0x20 SWAP1 SWAP3 ADD DUP3 SWAP1 MSTORE PUSH1 0x1 PUSH1 0xA0 SHL SWAP1 SWAP2 MUL OR PUSH1 0x6 SSTORE JUMP JUMPDEST PUSH1 0x0 PUSH1 0x20 DUP3 DUP5 SUB SLT ISZERO PUSH2 0x1F5 JUMPI PUSH1 0x0 DUP1 REVERT JUMPDEST DUP2 MLOAD PUSH1 0x1 PUSH1 0x1 PUSH1 0xA0 SHL SUB DUP2 AND DUP2 EQ PUSH2 0x20C JUMPI PUSH1 0x0 DUP1 REVERT JUMPDEST SWAP4 SWAP3 POP POP POP JUMP JUMPDEST PUSH4 0x4E487B71 PUSH1 0xE0 SHL PUSH1 0x0 MSTORE PUSH1 0x41 PUSH1 0x4 MSTORE PUSH1 0x24 PUSH1 0x0 REVERT JUMPDEST PUSH1 0x1 DUP2 DUP2 SHR SWAP1 DUP3 AND DUP1 PUSH2 0x23D JUMPI PUSH1 0x7F DUP3 AND SWAP2 POP JUMPDEST PUSH1 0x20 DUP3 LT DUP2 SUB PUSH2 0x25D JUMPI PUSH4 0x4E487B71 PUSH1 0xE0 SHL PUSH1 0x0 MSTORE PUSH1 0x22 PUSH1 0x4 MSTORE PUSH1 0x24 PUSH1 0x0 REVERT JUMPDEST POP SWAP2 SWAP1 POP JUMP JUMPDEST PUSH1 0x1F DUP3 GT ISZERO PUSH2 0x2AF JUMPI PUSH1 0x0 DUP2 PUSH1 0x0 MSTORE PUSH1 0x20 PUSH1 0x0 KECCAK256 PUSH1 0x1F DUP6 ADD PUSH1 0x5 SHR DUP2 ADD PUSH1 0x20 DUP7 LT ISZERO PUSH2 0x28C JUMPI POP DUP1 JUMPDEST PUSH1 0x1F DUP6 ADD PUSH1 0x5 SHR DUP3 ADD SWAP2 POP JUMPDEST DUP2 DUP2 LT ISZERO PUSH2 0x2AB JUMPI DUP3 DUP2 SSTORE PUSH1 0x1 ADD PUSH2 0x298 JUMP JUMPDEST POP POP POP JUMPDEST POP POP POP JUMP JUMPDEST DUP2 MLOAD PUSH1 0x1 PUSH1 0x1 PUSH1 0x40 SHL SUB DUP2 GT ISZERO PUSH2 0x2CD JUMPI PUSH2 0x2CD PUSH2 0x213 JUMP JUMPDEST PUSH2 0x2E1 DUP2 PUSH2 0x2DB DUP5 SLOAD PUSH2 0x229 JUMP JUMPDEST DUP5 PUSH2 0x263 JUMP JUMPDEST PUSH1 0x20 DUP1 PUSH1 0x1F DUP4 GT PUSH1 0x1 DUP2 EQ PUSH2 0x316 JUMPI PUSH1 0x0 DUP5 ISZERO PUSH2 0x2FE JUMPI POP DUP6 DUP4 ADD MLOAD JUMPDEST PUSH1 0x0 NOT PUSH1 0x3 DUP7 SWAP1 SHL SHR NOT AND PUSH1 0x1 DUP6 SWAP1 SHL OR DUP6 SSTORE PUSH2 0x2AB JUMP JUMPDEST PUSH1 0x0 DUP6 DUP2 MSTORE PUSH1 0x20 DUP2 KECCAK256 PUSH1 0x1F NOT DUP7 AND SWAP2 JUMPDEST DUP3 DUP2 LT ISZERO PUSH2 0x345 JUMPI DUP9 DUP7 ADD MLOAD DUP3 SSTORE SWAP5 DUP5 ADD SWAP5 PUSH1 0x1 SWAP1 SWAP2 ADD SWAP1 DUP5 ADD PUSH2 0x326 JUMP JUMPDEST POP DUP6 DUP3 LT ISZERO PUSH2 0x363 JUMPI DUP8 DUP6 ADD MLOAD PUSH1 0x0 NOT PUSH1 0x3 DUP9 SWAP1 SHL PUSH1 0xF8 AND SHR NOT AND DUP2 SSTORE JUMPDEST POP POP POP POP POP PUSH1 0x1 SWAP1 DUP2 SHL ADD SWAP1 SSTORE POP JUMP JUMPDEST PUSH1 0x80 MLOAD PUSH1 0xA0 MLOAD PUSH2 0x29A4 PUSH2 0x3AD PUSH1 0x0 CODECOPY PUSH1 0x0 DUP2 DUP2 PUSH2 0x336 ADD MSTORE DUP2 DUP2 PUSH2 0x7EC ADD MSTORE PUSH2 0x84C ADD MSTORE PUSH1 0x0 DUP2 DUP2 PUSH2 0x3BF ADD MSTORE PUSH2 0xA90 ADD MSTORE PUSH2 0x29A4 PUSH1 0x0 RETURN INVALID PUSH1 0x80 PUSH1 0x40 MSTORE PUSH1 0x4 CALLDATASIZE LT PUSH2 0x181 JUMPI PUSH1 0x0 CALLDATALOAD PUSH1 0xE0 SHR DUP1 PUSH4 0x70A08231 GT PUSH2 0xD1 JUMPI DUP1 PUSH4 0x99EC6765 GT PUSH2 0x8A JUMPI DUP1 PUSH4 0xB88D4FDE GT PUSH2 0x64 JUMPI DUP1 PUSH4 0xB88D4FDE EQ PUSH2 0x485 JUMPI DUP1 PUSH4 0xC87B56DD EQ PUSH2 0x4A5 JUMPI DUP1 PUSH4 0xE985E9C5 EQ PUSH2 0x4C5 JUMPI DUP1 PUSH4 0xF2FDE38B EQ PUSH2 0x4E5 JUMPI PUSH1 0x0 DUP1 REVERT JUMPDEST DUP1 PUSH4 0x99EC6765 EQ PUSH2 0x434 JUMPI DUP1 PUSH4 0xA22CB465 EQ PUSH2 0x44A JUMPI DUP1 PUSH4 0xB85F3FB8 EQ PUSH2 0x46A JUMPI PUSH1 0x0 DUP1 REVERT JUMPDEST DUP1 PUSH4 0x70A08231 EQ PUSH2 0x378 JUMPI DUP1 PUSH4 0x715018A6 EQ PUSH2 0x398 JUMPI DUP1 PUSH4 0x8ADA6B0F EQ PUSH2 0x3AD JUMPI DUP1 PUSH4 0x8DA5CB5B EQ PUSH2 0x3E1 JUMPI DUP1 PUSH4 0x8F2FC60B EQ PUSH2 0x3FF JUMPI DUP1 PUSH4 0x95D89B41 EQ PUSH2 0x41F JUMPI PUSH1 0x0 DUP1 REVERT JUMPDEST DUP1 PUSH4 0x23B872DD GT PUSH2 0x13E JUMPI DUP1 PUSH4 0x3DCA40E6 GT PUSH2 0x118 JUMPI DUP1 PUSH4 0x3DCA40E6 EQ PUSH2 0x2D6 JUMPI DUP1 PUSH4 0x42842E0E EQ PUSH2 0x304 JUMPI DUP1 PUSH4 0x61D027B3 EQ PUSH2 0x324 JUMPI DUP1 PUSH4 0x6352211E EQ PUSH2 0x358 JUMPI PUSH1 0x0 DUP1 REVERT JUMPDEST DUP1 PUSH4 0x23B872DD EQ PUSH2 0x262 JUMPI DUP1 PUSH4 0x2A55205A EQ PUSH2 0x282 JUMPI DUP1 PUSH4 0x3CCFD60B EQ PUSH2 0x2C1 JUMPI PUSH1 0x0 DUP1 REVERT JUMPDEST DUP1 PUSH4 0x1FFC9A7 EQ PUSH2 0x186 JUMPI DUP1 PUSH4 0x6FDDE03 EQ PUSH2 0x1BB JUMPI DUP1 PUSH4 0x81812FC EQ PUSH2 0x1DD JUMPI DUP1 PUSH4 0x95EA7B3 EQ PUSH2 0x215 JUMPI DUP1 PUSH4 0x1249C58B EQ PUSH2 0x237 JUMPI DUP1 PUSH4 0x18160DDD EQ PUSH2 0x23F JUMPI JUMPDEST PUSH1 0x0 DUP1 REVERT JUMPDEST CALLVALUE DUP1 ISZERO PUSH2 0x192 JUMPI PUSH1 0x0 DUP1 REVERT JUMPDEST POP PUSH2 0x1A6 PUSH2 0x1A1 CALLDATASIZE PUSH1 0x4 PUSH2 0x2006 JUMP JUMPDEST PUSH2 0x505 JUMP JUMPDEST PUSH1 0x40 MLOAD SWAP1 ISZERO ISZERO DUP2 MSTORE PUSH1 0x20 ADD JUMPDEST PUSH1 0x40 MLOAD DUP1 SWAP2 SUB SWAP1 RETURN JUMPDEST CALLVALUE DUP1 ISZERO PUSH2 0x1C7 JUMPI PUSH1 0x0 DUP1 REVERT JUMPDEST POP PUSH2 0x1D0 PUSH2 0x516 JUMP JUMPDEST PUSH1 0x40 MLOAD PUSH2 0x1B2 SWAP2 SWAP1 PUSH2 0x2073 JUMP JUMPDEST CALLVALUE DUP1 ISZERO PUSH2 0x1E9 JUMPI PUSH1 0x0 DUP1 REVERT JUMPDEST POP PUSH2 0x1FD PUSH2 0x1F8 CALLDATASIZE PUSH1 0x4 PUSH2 0x2086 JUMP JUMPDEST PUSH2 0x5A8 JUMP JUMPDEST PUSH1 0x40 MLOAD PUSH1 0x1 PUSH1 0x1 PUSH1 0xA0 SHL SUB SWAP1 SWAP2 AND DUP2 MSTORE PUSH1 0x20 ADD PUSH2 0x1B2 JUMP JUMPDEST CALLVALUE DUP1 ISZERO PUSH2 0x221 JUMPI PUSH1 0x0 DUP1 REVERT JUMPDEST POP PUSH2 0x235 PUSH2 0x230 CALLDATASIZE PUSH1 0x4 PUSH2 0x20B6 JUMP JUMPDEST PUSH2 0x5D1 JUMP JUMPDEST STOP JUMPDEST PUSH2 0x235 PUSH2 0x5E0 JUMP JUMPDEST CALLVALUE DUP1 ISZERO PUSH2 0x24B JUMPI PUSH1 0x0 DUP1 REVERT JUMPDEST POP PUSH2 0x254 PUSH2 0x6BB JUMP JUMPDEST PUSH1 0x40 MLOAD SWAP1 DUP2 MSTORE PUSH1 0x20 ADD PUSH2 0x1B2 JUMP JUMPDEST CALLVALUE DUP1 ISZERO PUSH2 0x26E JUMPI PUSH1 0x0 DUP1 REVERT JUMPDEST POP PUSH2 0x235 PUSH2 0x27D CALLDATASIZE PUSH1 0x4 PUSH2 0x20E0 JUMP JUMPDEST PUSH2 0x6D1 JUMP JUMPDEST CALLVALUE DUP1 ISZERO PUSH2 0x28E JUMPI PUSH1 0x0 DUP1 REVERT JUMPDEST POP PUSH2 0x2A2 PUSH2 0x29D CALLDATASIZE PUSH1 0x4 PUSH2 0x211C JUMP JUMPDEST PUSH2 0x75C JUMP JUMPDEST PUSH1 0x40 DUP1 MLOAD PUSH1 0x1 PUSH1 0x1 PUSH1 0xA0 SHL SUB SWAP1 SWAP4 AND DUP4 MSTORE PUSH1 0x20 DUP4 ADD SWAP2 SWAP1 SWAP2 MSTORE ADD PUSH2 0x1B2 JUMP JUMPDEST CALLVALUE DUP1 ISZERO PUSH2 0x2CD JUMPI PUSH1 0x0 DUP1 REVERT JUMPDEST POP PUSH2 0x235 PUSH2 0x7E1 JUMP JUMPDEST CALLVALUE DUP1 ISZERO PUSH2 0x2E2 JUMPI PUSH1 0x0 DUP1 REVERT JUMPDEST POP PUSH2 0x2EC PUSH2 0x3E8 DUP2 JUMP JUMPDEST PUSH1 0x40 MLOAD PUSH1 0x1 PUSH1 0x1 PUSH1 0x60 SHL SUB SWAP1 SWAP2 AND DUP2 MSTORE PUSH1 0x20 ADD PUSH2 0x1B2 JUMP JUMPDEST CALLVALUE DUP1 ISZERO PUSH2 0x310 JUMPI PUSH1 0x0 DUP1 REVERT JUMPDEST POP PUSH2 0x235 PUSH2 0x31F CALLDATASIZE PUSH1 0x4 PUSH2 0x20E0 JUMP JUMPDEST PUSH2 0x8FD JUMP JUMPDEST CALLVALUE DUP1 ISZERO PUSH2 0x330 JUMPI PUSH1 0x0 DUP1 REVERT JUMPDEST POP PUSH2 0x1FD PUSH32 0x0 DUP2 JUMP JUMPDEST CALLVALUE DUP1 ISZERO PUSH2 0x364 JUMPI PUSH1 0x0 DUP1 REVERT JUMPDEST POP PUSH2 0x1FD PUSH2 0x373 CALLDATASIZE PUSH1 0x4 PUSH2 0x2086 JUMP JUMPDEST PUSH2 0x91D JUMP JUMPDEST CALLVALUE DUP1 ISZERO PUSH2 0x384 JUMPI PUSH1 0x0 DUP1 REVERT JUMPDEST POP PUSH2 0x254 PUSH2 0x393 CALLDATASIZE PUSH1 0x4 PUSH2 0x213E JUMP JUMPDEST PUSH2 0x928 JUMP JUMPDEST CALLVALUE DUP1 ISZERO PUSH2 0x3A4 JUMPI PUSH1 0x0 DUP1 REVERT JUMPDEST POP PUSH2 0x235 PUSH2 0x970 JUMP JUMPDEST CALLVALUE DUP1 ISZERO PUSH2 0x3B9 JUMPI PUSH1 0x0 DUP1 REVERT JUMPDEST POP PUSH2 0x1FD PUSH32 0x0 DUP2 JUMP JUMPDEST CALLVALUE DUP1 ISZERO PUSH2 0x3ED JUMPI PUSH1 0x0 DUP1 REVERT JUMPDEST POP PUSH1 0x8 SLOAD PUSH1 0x1 PUSH1 0x1 PUSH1 0xA0 SHL SUB AND PUSH2 0x1FD JUMP JUMPDEST CALLVALUE DUP1 ISZERO PUSH2 0x40B JUMPI PUSH1 0x0 DUP1 REVERT JUMPDEST POP PUSH2 0x235 PUSH2 0x41A CALLDATASIZE PUSH1 0x4 PUSH2 0x2159 JUMP JUMPDEST PUSH2 0x984 JUMP JUMPDEST CALLVALUE DUP1 ISZERO PUSH2 0x42B JUMPI PUSH1 0x0 DUP1 REVERT JUMPDEST POP PUSH2 0x1D0 PUSH2 0x9DB JUMP JUMPDEST CALLVALUE DUP1 ISZERO PUSH2 0x440 JUMPI PUSH1 0x0 DUP1 REVERT JUMPDEST POP PUSH2 0x254 PUSH2 0x2000 DUP2 JUMP JUMPDEST CALLVALUE DUP1 ISZERO PUSH2 0x456 JUMPI PUSH1 0x0 DUP1 REVERT JUMPDEST POP PUSH2 0x235 PUSH2 0x465 CALLDATASIZE PUSH1 0x4 PUSH2 0x219C JUMP JUMPDEST PUSH2 0x9EA JUMP JUMPDEST CALLVALUE DUP1 ISZERO PUSH2 0x476 JUMPI PUSH1 0x0 DUP1 REVERT JUMPDEST POP PUSH2 0x254 PUSH7 0x71AFD498D0000 DUP2 JUMP JUMPDEST CALLVALUE DUP1 ISZERO PUSH2 0x491 JUMPI PUSH1 0x0 DUP1 REVERT JUMPDEST POP PUSH2 0x235 PUSH2 0x4A0 CALLDATASIZE PUSH1 0x4 PUSH2 0x223C JUMP JUMPDEST PUSH2 0x9F5 JUMP JUMPDEST CALLVALUE DUP1 ISZERO PUSH2 0x4B1 JUMPI PUSH1 0x0 DUP1 REVERT JUMPDEST POP PUSH2 0x1D0 PUSH2 0x4C0 CALLDATASIZE PUSH1 0x4 PUSH2 0x2086 JUMP JUMPDEST PUSH2 0xA0D JUMP JUMPDEST CALLVALUE DUP1 ISZERO PUSH2 0x4D1 JUMPI PUSH1 0x0 DUP1 REVERT JUMPDEST POP PUSH2 0x1A6 PUSH2 0x4E0 CALLDATASIZE PUSH1 0x4 PUSH2 0x22E7 JUMP JUMPDEST PUSH2 0xC1B JUMP JUMPDEST CALLVALUE DUP1 ISZERO PUSH2 0x4F1 JUMPI PUSH1 0x0 DUP1 REVERT JUMPDEST POP PUSH2 0x235 PUSH2 0x500 CALLDATASIZE PUSH1 0x4 PUSH2 0x213E JUMP JUMPDEST PUSH2 0xC49 JUMP JUMPDEST PUSH1 0x0 PUSH2 0x510 DUP3 PUSH2 0xC84 JUMP JUMPDEST SWAP3 SWAP2 POP POP JUMP JUMPDEST PUSH1 0x60 PUSH1 0x0 DUP1 SLOAD PUSH2 0x525 SWAP1 PUSH2 0x231A JUMP JUMPDEST DUP1 PUSH1 0x1F ADD PUSH1 0x20 DUP1 SWAP2 DIV MUL PUSH1 0x20 ADD PUSH1 0x40 MLOAD SWAP1 DUP2 ADD PUSH1 0x40 MSTORE DUP1 SWAP3 SWAP2 SWAP1 DUP2 DUP2 MSTORE PUSH1 0x20 ADD DUP3 DUP1 SLOAD PUSH2 0x551 SWAP1 PUSH2 0x231A JUMP JUMPDEST DUP1 ISZERO PUSH2 0x59E JUMPI DUP1 PUSH1 0x1F LT PUSH2 0x573 JUMPI PUSH2 0x100 DUP1 DUP4 SLOAD DIV MUL DUP4 MSTORE SWAP2 PUSH1 0x20 ADD SWAP2 PUSH2 0x59E JUMP JUMPDEST DUP3 ADD SWAP2 SWAP1 PUSH1 0x0 MSTORE PUSH1 0x20 PUSH1 0x0 KECCAK256 SWAP1 JUMPDEST DUP2 SLOAD DUP2 MSTORE SWAP1 PUSH1 0x1 ADD SWAP1 PUSH1 0x20 ADD DUP1 DUP4 GT PUSH2 0x581 JUMPI DUP3 SWAP1 SUB PUSH1 0x1F AND DUP3 ADD SWAP2 JUMPDEST POP POP POP POP POP SWAP1 POP SWAP1 JUMP JUMPDEST PUSH1 0x0 PUSH2 0x5B3 DUP3 PUSH2 0xCA9 JUMP JUMPDEST POP PUSH1 0x0 DUP3 DUP2 MSTORE PUSH1 0x4 PUSH1 0x20 MSTORE PUSH1 0x40 SWAP1 KECCAK256 SLOAD PUSH1 0x1 PUSH1 0x1 PUSH1 0xA0 SHL SUB AND PUSH2 0x510 JUMP JUMPDEST PUSH2 0x5DC DUP3 DUP3 CALLER PUSH2 0xCE2 JUMP JUMPDEST POP POP JUMP JUMPDEST PUSH1 0xA SLOAD PUSH2 0x2000 DUP2 GT ISZERO PUSH2 0x632 JUMPI PUSH1 0x40 MLOAD PUSH3 0x461BCD PUSH1 0xE5 SHL DUP2 MSTORE PUSH1 0x20 PUSH1 0x4 DUP3 ADD MSTORE PUSH1 0x15 PUSH1 0x24 DUP3 ADD MSTORE PUSH21 0x12185CDA129A5B99D391950E881CDBDB19081BDD5D PUSH1 0x5A SHL PUSH1 0x44 DUP3 ADD MSTORE PUSH1 0x64 ADD JUMPDEST PUSH1 0x40 MLOAD DUP1 SWAP2 SUB SWAP1 REVERT JUMPDEST PUSH7 0x71AFD498D0000 CALLVALUE EQ PUSH2 0x688 JUMPI PUSH1 0x40 MLOAD PUSH3 0x461BCD PUSH1 0xE5 SHL DUP2 MSTORE PUSH1 0x20 PUSH1 0x4 DUP3 ADD MSTORE PUSH1 0x1B PUSH1 0x24 DUP3 ADD MSTORE PUSH32 0x486173684A696E674E46543A2077726F6E67206D696E74206665650000000000 PUSH1 0x44 DUP3 ADD MSTORE PUSH1 0x64 ADD PUSH2 0x629 JUMP JUMPDEST PUSH2 0x693 DUP2 PUSH1 0x1 PUSH2 0x2364 JUMP JUMPDEST PUSH1 0xA SSTORE PUSH2 0x69F DUP2 PUSH2 0xCEF JUMP JUMPDEST PUSH1 0x0 DUP3 DUP2 MSTORE PUSH1 0x9 PUSH1 0x20 MSTORE PUSH1 0x40 SWAP1 KECCAK256 SSTORE PUSH2 0x6B8 CALLER DUP3 PUSH2 0xD54 JUMP JUMPDEST POP JUMP JUMPDEST PUSH1 0x0 PUSH1 0x1 PUSH1 0xA SLOAD PUSH2 0x6CC SWAP2 SWAP1 PUSH2 0x2377 JUMP JUMPDEST SWAP1 POP SWAP1 JUMP JUMPDEST PUSH1 0x1 PUSH1 0x1 PUSH1 0xA0 SHL SUB DUP3 AND PUSH2 0x6FB JUMPI PUSH1 0x40 MLOAD PUSH4 0x32505749 PUSH1 0xE1 SHL DUP2 MSTORE PUSH1 0x0 PUSH1 0x4 DUP3 ADD MSTORE PUSH1 0x24 ADD PUSH2 0x629 JUMP JUMPDEST PUSH1 0x0 PUSH2 0x708 DUP4 DUP4 CALLER PUSH2 0xD6E JUMP JUMPDEST SWAP1 POP DUP4 PUSH1 0x1 PUSH1 0x1 PUSH1 0xA0 SHL SUB AND DUP2 PUSH1 0x1 PUSH1 0x1 PUSH1 0xA0 SHL SUB AND EQ PUSH2 0x756 JUMPI PUSH1 0x40 MLOAD PUSH4 0x64283D7B PUSH1 0xE0 SHL DUP2 MSTORE PUSH1 0x1 PUSH1 0x1 PUSH1 0xA0 SHL SUB DUP1 DUP7 AND PUSH1 0x4 DUP4 ADD MSTORE PUSH1 0x24 DUP3 ADD DUP5 SWAP1 MSTORE DUP3 AND PUSH1 0x44 DUP3 ADD MSTORE PUSH1 0x64 ADD PUSH2 0x629 JUMP JUMPDEST POP POP POP POP JUMP JUMPDEST PUSH1 0x0 DUP3 DUP2 MSTORE PUSH1 0x7 PUSH1 0x20 MSTORE PUSH1 0x40 DUP2 KECCAK256 DUP1 SLOAD DUP3 SWAP2 SWAP1 PUSH1 0x1 PUSH1 0x1 PUSH1 0xA0 SHL SUB DUP2 AND SWAP1 PUSH1 0x1 PUSH1 0xA0 SHL SWAP1 DIV PUSH1 0x1 PUSH1 0x1 PUSH1 0x60 SHL SUB AND DUP2 PUSH2 0x7B0 JUMPI POP POP PUSH1 0x6 SLOAD PUSH1 0x1 PUSH1 0x1 PUSH1 0xA0 SHL SUB DUP2 AND SWAP1 PUSH1 0x1 PUSH1 0xA0 SHL SWAP1 DIV PUSH1 0x1 PUSH1 0x1 PUSH1 0x60 SHL SUB AND JUMPDEST PUSH1 0x0 PUSH2 0x2710 PUSH2 0x7C8 PUSH1 0x1 PUSH1 0x1 PUSH1 0x60 SHL SUB DUP5 AND DUP10 PUSH2 0x238A JUMP JUMPDEST PUSH2 0x7D2 SWAP2 SWAP1 PUSH2 0x23B7 JUMP JUMPDEST SWAP3 SWAP9 SWAP3 SWAP8 POP SWAP2 SWAP6 POP POP POP POP POP POP JUMP JUMPDEST CALLER PUSH1 0x1 PUSH1 0x1 PUSH1 0xA0 SHL SUB PUSH32 0x0 AND EQ PUSH2 0x848 JUMPI PUSH1 0x40 MLOAD PUSH3 0x461BCD PUSH1 0xE5 SHL DUP2 MSTORE PUSH1 0x20 PUSH1 0x4 DUP3 ADD MSTORE PUSH1 0xC PUSH1 0x24 DUP3 ADD MSTORE PUSH12 0x4E6F74207472656173757279 PUSH1 0xA0 SHL PUSH1 0x44 DUP3 ADD MSTORE PUSH1 0x64 ADD PUSH2 0x629 JUMP JUMPDEST PUSH1 0x0 PUSH32 0x0 PUSH1 0x1 PUSH1 0x1 PUSH1 0xA0 SHL SUB AND SELFBALANCE PUSH1 0x40 MLOAD PUSH1 0x0 PUSH1 0x40 MLOAD DUP1 DUP4 SUB DUP2 DUP6 DUP8 GAS CALL SWAP3 POP POP POP RETURNDATASIZE DUP1 PUSH1 0x0 DUP2 EQ PUSH2 0x8B5 JUMPI PUSH1 0x40 MLOAD SWAP2 POP PUSH1 0x1F NOT PUSH1 0x3F RETURNDATASIZE ADD AND DUP3 ADD PUSH1 0x40 MSTORE RETURNDATASIZE DUP3 MSTORE RETURNDATASIZE PUSH1 0x0 PUSH1 0x20 DUP5 ADD RETURNDATACOPY PUSH2 0x8BA JUMP JUMPDEST PUSH1 0x60 SWAP2 POP JUMPDEST POP POP SWAP1 POP DUP1 PUSH2 0x6B8 JUMPI PUSH1 0x40 MLOAD PUSH3 0x461BCD PUSH1 0xE5 SHL DUP2 MSTORE PUSH1 0x20 PUSH1 0x4 DUP3 ADD MSTORE PUSH1 0xF PUSH1 0x24 DUP3 ADD MSTORE PUSH15 0x15DA5D1A191C985DC819985A5B1959 PUSH1 0x8A SHL PUSH1 0x44 DUP3 ADD MSTORE PUSH1 0x64 ADD PUSH2 0x629 JUMP JUMPDEST PUSH2 0x918 DUP4 DUP4 DUP4 PUSH1 0x40 MLOAD DUP1 PUSH1 0x20 ADD PUSH1 0x40 MSTORE DUP1 PUSH1 0x0 DUP2 MSTORE POP PUSH2 0x9F5 JUMP JUMPDEST POP POP POP JUMP JUMPDEST PUSH1 0x0 PUSH2 0x510 DUP3 PUSH2 0xCA9 JUMP JUMPDEST PUSH1 0x0 PUSH1 0x1 PUSH1 0x1 PUSH1 0xA0 SHL SUB DUP3 AND PUSH2 0x954 JUMPI PUSH1 0x40 MLOAD PUSH4 0x22718AD9 PUSH1 0xE2 SHL DUP2 MSTORE PUSH1 0x0 PUSH1 0x4 DUP3 ADD MSTORE PUSH1 0x24 ADD PUSH2 0x629 JUMP JUMPDEST POP PUSH1 0x1 PUSH1 0x1 PUSH1 0xA0 SHL SUB AND PUSH1 0x0 SWAP1 DUP2 MSTORE PUSH1 0x3 PUSH1 0x20 MSTORE PUSH1 0x40 SWAP1 KECCAK256 SLOAD SWAP1 JUMP JUMPDEST PUSH2 0x978 PUSH2 0xE69 JUMP JUMPDEST PUSH2 0x982 PUSH1 0x0 PUSH2 0xE96 JUMP JUMPDEST JUMP JUMPDEST PUSH2 0x98C PUSH2 0xE69 JUMP JUMPDEST PUSH2 0x3E8 PUSH1 0x1 PUSH1 0x1 PUSH1 0x60 SHL SUB DUP3 AND GT ISZERO PUSH2 0x9D1 JUMPI PUSH1 0x40 MLOAD PUSH3 0x461BCD PUSH1 0xE5 SHL DUP2 MSTORE PUSH1 0x20 PUSH1 0x4 DUP3 ADD MSTORE PUSH1 0x7 PUSH1 0x24 DUP3 ADD MSTORE PUSH7 0x4D617820313025 PUSH1 0xC8 SHL PUSH1 0x44 DUP3 ADD MSTORE PUSH1 0x64 ADD PUSH2 0x629 JUMP JUMPDEST PUSH2 0x5DC DUP3 DUP3 PUSH2 0xEE8 JUMP JUMPDEST PUSH1 0x60 PUSH1 0x1 DUP1 SLOAD PUSH2 0x525 SWAP1 PUSH2 0x231A JUMP JUMPDEST PUSH2 0x5DC CALLER DUP4 DUP4 PUSH2 0xF8B JUMP JUMPDEST PUSH2 0xA00 DUP5 DUP5 DUP5 PUSH2 0x6D1 JUMP JUMPDEST PUSH2 0x756 CALLER DUP6 DUP6 DUP6 DUP6 PUSH2 0x102A JUMP JUMPDEST PUSH1 0x60 PUSH2 0xA18 DUP3 PUSH2 0x1155 JUMP JUMPDEST PUSH2 0xA64 JUMPI PUSH1 0x40 MLOAD PUSH3 0x461BCD PUSH1 0xE5 SHL DUP2 MSTORE PUSH1 0x20 PUSH1 0x4 DUP3 ADD MSTORE PUSH1 0x1E PUSH1 0x24 DUP3 ADD MSTORE PUSH32 0x486173684A696E674E46543A206E6F6E6578697374656E7420746F6B656E0000 PUSH1 0x44 DUP3 ADD MSTORE PUSH1 0x64 ADD PUSH2 0x629 JUMP JUMPDEST PUSH1 0x0 DUP3 DUP2 MSTORE PUSH1 0x9 PUSH1 0x20 MSTORE PUSH1 0x40 DUP1 DUP3 KECCAK256 SLOAD SWAP1 MLOAD PUSH4 0x2158AA5 PUSH1 0xE1 SHL DUP2 MSTORE PUSH1 0x4 DUP2 ADD DUP3 SWAP1 MSTORE SWAP1 SWAP2 SWAP1 PUSH2 0xB0C SWAP1 PUSH32 0x0 PUSH1 0x1 PUSH1 0x1 PUSH1 0xA0 SHL SUB AND SWAP1 PUSH4 0x42B154A SWAP1 PUSH1 0x24 ADD PUSH1 0x0 PUSH1 0x40 MLOAD DUP1 DUP4 SUB DUP2 DUP7 GAS STATICCALL ISZERO DUP1 ISZERO PUSH2 0xADF JUMPI RETURNDATASIZE PUSH1 0x0 DUP1 RETURNDATACOPY RETURNDATASIZE PUSH1 0x0 REVERT JUMPDEST POP POP POP POP PUSH1 0x40 MLOAD RETURNDATASIZE PUSH1 0x0 DUP3 RETURNDATACOPY PUSH1 0x1F RETURNDATASIZE SWAP1 DUP2 ADD PUSH1 0x1F NOT AND DUP3 ADD PUSH1 0x40 MSTORE PUSH2 0xB07 SWAP2 SWAP1 DUP2 ADD SWAP1 PUSH2 0x23CB JUMP JUMPDEST PUSH2 0x118C JUMP JUMPDEST SWAP1 POP PUSH1 0x0 PUSH2 0xB19 DUP4 PUSH2 0x11B2 JUMP JUMPDEST SWAP1 POP PUSH1 0x0 PUSH2 0xB26 DUP5 PUSH2 0x11FD JUMP JUMPDEST SWAP1 POP PUSH1 0x0 DUP3 PUSH2 0xB52 JUMPI PUSH1 0x40 MLOAD DUP1 PUSH1 0x40 ADD PUSH1 0x40 MSTORE DUP1 PUSH1 0x5 DUP2 MSTORE PUSH1 0x20 ADD PUSH5 0x66616C7365 PUSH1 0xD8 SHL DUP2 MSTORE POP PUSH2 0xB70 JUMP JUMPDEST PUSH1 0x40 MLOAD DUP1 PUSH1 0x40 ADD PUSH1 0x40 MSTORE DUP1 PUSH1 0x4 DUP2 MSTORE PUSH1 0x20 ADD PUSH4 0x74727565 PUSH1 0xE0 SHL DUP2 MSTORE POP JUMPDEST PUSH2 0xB7C DUP4 PUSH1 0xFF AND PUSH2 0x1346 JUMP JUMPDEST PUSH2 0xB87 DUP8 PUSH1 0x20 PUSH2 0x13D9 JUMP JUMPDEST PUSH1 0x40 MLOAD PUSH1 0x20 ADD PUSH2 0xB99 SWAP4 SWAP3 SWAP2 SWAP1 PUSH2 0x245E JUMP JUMPDEST PUSH1 0x40 MLOAD PUSH1 0x20 DUP2 DUP4 SUB SUB DUP2 MSTORE SWAP1 PUSH1 0x40 MSTORE SWAP1 POP PUSH1 0x0 PUSH2 0xBEC PUSH2 0xBB8 DUP10 PUSH2 0x1346 JUMP JUMPDEST PUSH2 0xBC3 DUP9 PUSH1 0x20 PUSH2 0x13D9 JUMP JUMPDEST DUP8 DUP6 PUSH1 0x40 MLOAD PUSH1 0x20 ADD PUSH2 0xBD8 SWAP5 SWAP4 SWAP3 SWAP2 SWAP1 PUSH2 0x255C JUMP JUMPDEST PUSH1 0x40 MLOAD PUSH1 0x20 DUP2 DUP4 SUB SUB DUP2 MSTORE SWAP1 PUSH1 0x40 MSTORE PUSH2 0x118C JUMP JUMPDEST SWAP1 POP DUP1 PUSH1 0x40 MLOAD PUSH1 0x20 ADD PUSH2 0xBFF SWAP2 SWAP1 PUSH2 0x279A JUMP JUMPDEST PUSH1 0x40 MLOAD PUSH1 0x20 DUP2 DUP4 SUB SUB DUP2 MSTORE SWAP1 PUSH1 0x40 MSTORE SWAP7 POP POP POP POP POP POP POP SWAP2 SWAP1 POP JUMP JUMPDEST PUSH1 0x1 PUSH1 0x1 PUSH1 0xA0 SHL SUB SWAP2 DUP3 AND PUSH1 0x0 SWAP1 DUP2 MSTORE PUSH1 0x5 PUSH1 0x20 SWAP1 DUP2 MSTORE PUSH1 0x40 DUP1 DUP4 KECCAK256 SWAP4 SWAP1 SWAP5 AND DUP3 MSTORE SWAP2 SWAP1 SWAP2 MSTORE KECCAK256 SLOAD PUSH1 0xFF AND SWAP1 JUMP JUMPDEST PUSH2 0xC51 PUSH2 0xE69 JUMP JUMPDEST PUSH1 0x1 PUSH1 0x1 PUSH1 0xA0 SHL SUB DUP2 AND PUSH2 0xC7B JUMPI PUSH1 0x40 MLOAD PUSH4 0x1E4FBDF7 PUSH1 0xE0 SHL DUP2 MSTORE PUSH1 0x0 PUSH1 0x4 DUP3 ADD MSTORE PUSH1 0x24 ADD PUSH2 0x629 JUMP JUMPDEST PUSH2 0x6B8 DUP2 PUSH2 0xE96 JUMP JUMPDEST PUSH1 0x0 PUSH1 0x1 PUSH1 0x1 PUSH1 0xE0 SHL SUB NOT DUP3 AND PUSH4 0x152A902D PUSH1 0xE1 SHL EQ DUP1 PUSH2 0x510 JUMPI POP PUSH2 0x510 DUP3 PUSH2 0x1559 JUMP JUMPDEST PUSH1 0x0 DUP2 DUP2 MSTORE PUSH1 0x2 PUSH1 0x20 MSTORE PUSH1 0x40 DUP2 KECCAK256 SLOAD PUSH1 0x1 PUSH1 0x1 PUSH1 0xA0 SHL SUB AND DUP1 PUSH2 0x510 JUMPI PUSH1 0x40 MLOAD PUSH4 0x7E273289 PUSH1 0xE0 SHL DUP2 MSTORE PUSH1 0x4 DUP2 ADD DUP5 SWAP1 MSTORE PUSH1 0x24 ADD PUSH2 0x629 JUMP JUMPDEST PUSH2 0x918 DUP4 DUP4 DUP4 PUSH1 0x1 PUSH2 0x15A9 JUMP JUMPDEST PUSH1 0x0 PUSH2 0xCFC PUSH1 0x1 NUMBER PUSH2 0x2377 JUMP JUMPDEST PUSH1 0x40 DUP1 MLOAD SWAP2 BLOCKHASH PUSH1 0x20 DUP4 ADD MSTORE TIMESTAMP SWAP1 DUP3 ADD MSTORE PREVRANDAO PUSH1 0x60 DUP1 DUP4 ADD SWAP2 SWAP1 SWAP2 MSTORE PUSH1 0x80 DUP3 ADD DUP5 SWAP1 MSTORE CALLER SWAP1 SHL PUSH12 0xFFFFFFFFFFFFFFFFFFFFFFFF NOT AND PUSH1 0xA0 DUP3 ADD MSTORE PUSH1 0xB4 ADD PUSH1 0x40 MLOAD PUSH1 0x20 DUP2 DUP4 SUB SUB DUP2 MSTORE SWAP1 PUSH1 0x40 MSTORE DUP1 MLOAD SWAP1 PUSH1 0x20 ADD KECCAK256 SWAP1 POP SWAP2 SWAP1 POP JUMP JUMPDEST PUSH2 0x5DC DUP3 DUP3 PUSH1 0x40 MLOAD DUP1 PUSH1 0x20 ADD PUSH1 0x40 MSTORE DUP1 PUSH1 0x0 DUP2 MSTORE POP PUSH2 0x16AF JUMP JUMPDEST PUSH1 0x0 DUP3 DUP2 MSTORE PUSH1 0x2 PUSH1 0x20 MSTORE PUSH1 0x40 DUP2 KECCAK256 SLOAD PUSH1 0x1 PUSH1 0x1 PUSH1 0xA0 SHL SUB SWAP1 DUP2 AND SWAP1 DUP4 AND ISZERO PUSH2 0xD9B JUMPI PUSH2 0xD9B DUP2 DUP5 DUP7 PUSH2 0x16C7 JUMP JUMPDEST PUSH1 0x1 PUSH1 0x1 PUSH1 0xA0 SHL SUB DUP2 AND ISZERO PUSH2 0xDD9 JUMPI PUSH2 0xDB8 PUSH1 0x0 DUP6 PUSH1 0x0 DUP1 PUSH2 0x15A9 JUMP JUMPDEST PUSH1 0x1 PUSH1 0x1 PUSH1 0xA0 SHL SUB DUP2 AND PUSH1 0x0 SWAP1 DUP2 MSTORE PUSH1 0x3 PUSH1 0x20 MSTORE PUSH1 0x40 SWAP1 KECCAK256 DUP1 SLOAD PUSH1 0x0 NOT ADD SWAP1 SSTORE JUMPDEST PUSH1 0x1 PUSH1 0x1 PUSH1 0xA0 SHL SUB DUP6 AND ISZERO PUSH2 0xE08 JUMPI PUSH1 0x1 PUSH1 0x1 PUSH1 0xA0 SHL SUB DUP6 AND PUSH1 0x0 SWAP1 DUP2 MSTORE PUSH1 0x3 PUSH1 0x20 MSTORE PUSH1 0x40 SWAP1 KECCAK256 DUP1 SLOAD PUSH1 0x1 ADD SWAP1 SSTORE JUMPDEST PUSH1 0x0 DUP5 DUP2 MSTORE PUSH1 0x2 PUSH1 0x20 MSTORE PUSH1 0x40 DUP1 DUP3 KECCAK256 DUP1 SLOAD PUSH1 0x1 PUSH1 0x1 PUSH1 0xA0 SHL SUB NOT AND PUSH1 0x1 PUSH1 0x1 PUSH1 0xA0 SHL SUB DUP10 DUP2 AND SWAP2 DUP3 OR SWAP1 SWAP3 SSTORE SWAP2 MLOAD DUP8 SWAP4 SWAP2 DUP6 AND SWAP2 PUSH32 0xDDF252AD1BE2C89B69C2B068FC378DAA952BA7F163C4A11628F55A4DF523B3EF SWAP2 LOG4 SWAP1 POP JUMPDEST SWAP4 SWAP3 POP POP POP JUMP JUMPDEST PUSH1 0x8 SLOAD PUSH1 0x1 PUSH1 0x1 PUSH1 0xA0 SHL SUB AND CALLER EQ PUSH2 0x982 JUMPI PUSH1 0x40 MLOAD PUSH4 0x118CDAA7 PUSH1 0xE0 SHL DUP2 MSTORE CALLER PUSH1 0x4 DUP3 ADD MSTORE PUSH1 0x24 ADD PUSH2 0x629 JUMP JUMPDEST PUSH1 0x8 DUP1 SLOAD PUSH1 0x1 PUSH1 0x1 PUSH1 0xA0 SHL SUB DUP4 DUP2 AND PUSH1 0x1 PUSH1 0x1 PUSH1 0xA0 SHL SUB NOT DUP4 AND DUP2 OR SWAP1 SWAP4 SSTORE PUSH1 0x40 MLOAD SWAP2 AND SWAP2 SWAP1 DUP3 SWAP1 PUSH32 0x8BE0079C531659141344CD1FD0A4F28419497F9722A3DAAFE3B4186F6B6457E0 SWAP1 PUSH1 0x0 SWAP1 LOG3 POP POP JUMP JUMPDEST PUSH2 0x2710 PUSH1 0x1 PUSH1 0x1 PUSH1 0x60 SHL SUB DUP3 AND DUP2 LT ISZERO PUSH2 0xF27 JUMPI PUSH1 0x40 MLOAD PUSH4 0x6F483D09 PUSH1 0xE0 SHL DUP2 MSTORE PUSH1 0x1 PUSH1 0x1 PUSH1 0x60 SHL SUB DUP4 AND PUSH1 0x4 DUP3 ADD MSTORE PUSH1 0x24 DUP2 ADD DUP3 SWAP1 MSTORE PUSH1 0x44 ADD PUSH2 0x629 JUMP JUMPDEST PUSH1 0x1 PUSH1 0x1 PUSH1 0xA0 SHL SUB DUP4 AND PUSH2 0xF51 JUMPI PUSH1 0x40 MLOAD PUSH4 0x5B6CC805 PUSH1 0xE1 SHL DUP2 MSTORE PUSH1 0x0 PUSH1 0x4 DUP3 ADD MSTORE PUSH1 0x24 ADD PUSH2 0x629 JUMP JUMPDEST POP PUSH1 0x40 DUP1 MLOAD DUP1 DUP3 ADD SWAP1 SWAP2 MSTORE PUSH1 0x1 PUSH1 0x1 PUSH1 0xA0 SHL SUB SWAP1 SWAP3 AND DUP1 DUP4 MSTORE PUSH1 0x1 PUSH1 0x1 PUSH1 0x60 SHL SUB SWAP1 SWAP2 AND PUSH1 0x20 SWAP1 SWAP3 ADD DUP3 SWAP1 MSTORE PUSH1 0x1 PUSH1 0xA0 SHL SWAP1 SWAP2 MUL OR PUSH1 0x6 SSTORE JUMP JUMPDEST PUSH1 0x1 PUSH1 0x1 PUSH1 0xA0 SHL SUB DUP3 AND PUSH2 0xFBD JUMPI PUSH1 0x40 MLOAD PUSH4 0xB611743 PUSH1 0xE3 SHL DUP2 MSTORE PUSH1 0x1 PUSH1 0x1 PUSH1 0xA0 SHL SUB DUP4 AND PUSH1 0x4 DUP3 ADD MSTORE PUSH1 0x24 ADD PUSH2 0x629 JUMP JUMPDEST PUSH1 0x1 PUSH1 0x1 PUSH1 0xA0 SHL SUB DUP4 DUP2 AND PUSH1 0x0 DUP2 DUP2 MSTORE PUSH1 0x5 PUSH1 0x20 SWAP1 DUP2 MSTORE PUSH1 0x40 DUP1 DUP4 KECCAK256 SWAP5 DUP8 AND DUP1 DUP5 MSTORE SWAP5 DUP3 MSTORE SWAP2 DUP3 SWAP1 KECCAK256 DUP1 SLOAD PUSH1 0xFF NOT AND DUP7 ISZERO ISZERO SWAP1 DUP2 OR SWAP1 SWAP2 SSTORE SWAP2 MLOAD SWAP2 DUP3 MSTORE PUSH32 0x17307EAB39AB6107E8899845AD3D59BD9653F200F220920489CA2B5937696C31 SWAP2 ADD PUSH1 0x40 MLOAD DUP1 SWAP2 SUB SWAP1 LOG3 POP POP POP JUMP JUMPDEST PUSH1 0x1 PUSH1 0x1 PUSH1 0xA0 SHL SUB DUP4 AND EXTCODESIZE ISZERO PUSH2 0x114E JUMPI PUSH1 0x40 MLOAD PUSH4 0xA85BD01 PUSH1 0xE1 SHL DUP2 MSTORE PUSH1 0x1 PUSH1 0x1 PUSH1 0xA0 SHL SUB DUP5 AND SWAP1 PUSH4 0x150B7A02 SWAP1 PUSH2 0x106C SWAP1 DUP9 SWAP1 DUP9 SWAP1 DUP8 SWAP1 DUP8 SWAP1 PUSH1 0x4 ADD PUSH2 0x27DF JUMP JUMPDEST PUSH1 0x20 PUSH1 0x40 MLOAD DUP1 DUP4 SUB DUP2 PUSH1 0x0 DUP8 GAS CALL SWAP3 POP POP POP DUP1 ISZERO PUSH2 0x10A7 JUMPI POP PUSH1 0x40 DUP1 MLOAD PUSH1 0x1F RETURNDATASIZE SWAP1 DUP2 ADD PUSH1 0x1F NOT AND DUP3 ADD SWAP1 SWAP3 MSTORE PUSH2 0x10A4 SWAP2 DUP2 ADD SWAP1 PUSH2 0x281C JUMP JUMPDEST PUSH1 0x1 JUMPDEST PUSH2 0x1110 JUMPI RETURNDATASIZE DUP1 DUP1 ISZERO PUSH2 0x10D5 JUMPI PUSH1 0x40 MLOAD SWAP2 POP PUSH1 0x1F NOT PUSH1 0x3F RETURNDATASIZE ADD AND DUP3 ADD PUSH1 0x40 MSTORE RETURNDATASIZE DUP3 MSTORE RETURNDATASIZE PUSH1 0x0 PUSH1 0x20 DUP5 ADD RETURNDATACOPY PUSH2 0x10DA JUMP JUMPDEST PUSH1 0x60 SWAP2 POP JUMPDEST POP DUP1 MLOAD PUSH1 0x0 SUB PUSH2 0x1108 JUMPI PUSH1 0x40 MLOAD PUSH4 0x32505749 PUSH1 0xE1 SHL DUP2 MSTORE PUSH1 0x1 PUSH1 0x1 PUSH1 0xA0 SHL SUB DUP6 AND PUSH1 0x4 DUP3 ADD MSTORE PUSH1 0x24 ADD PUSH2 0x629 JUMP JUMPDEST DUP1 MLOAD DUP2 PUSH1 0x20 ADD REVERT JUMPDEST PUSH1 0x1 PUSH1 0x1 PUSH1 0xE0 SHL SUB NOT DUP2 AND PUSH4 0xA85BD01 PUSH1 0xE1 SHL EQ PUSH2 0x114C JUMPI PUSH1 0x40 MLOAD PUSH4 0x32505749 PUSH1 0xE1 SHL DUP2 MSTORE PUSH1 0x1 PUSH1 0x1 PUSH1 0xA0 SHL SUB DUP6 AND PUSH1 0x4 DUP3 ADD MSTORE PUSH1 0x24 ADD PUSH2 0x629 JUMP JUMPDEST POP JUMPDEST POP POP POP POP POP JUMP JUMPDEST PUSH1 0x0 DUP2 ISZERO DUP1 ISZERO SWAP1 PUSH2 0x1167 JUMPI POP PUSH1 0xA SLOAD DUP3 LT JUMPDEST DUP1 ISZERO PUSH2 0x510 JUMPI POP POP PUSH1 0x0 SWAP1 DUP2 MSTORE PUSH1 0x2 PUSH1 0x20 MSTORE PUSH1 0x40 SWAP1 KECCAK256 SLOAD PUSH1 0x1 PUSH1 0x1 PUSH1 0xA0 SHL SUB AND ISZERO ISZERO SWAP1 JUMP JUMPDEST PUSH1 0x60 PUSH2 0x510 DUP3 PUSH1 0x40 MLOAD DUP1 PUSH1 0x60 ADD PUSH1 0x40 MSTORE DUP1 PUSH1 0x40 DUP2 MSTORE PUSH1 0x20 ADD PUSH2 0x292F PUSH1 0x40 SWAP2 CODECOPY PUSH1 0x1 PUSH2 0x172B JUMP JUMPDEST PUSH1 0x0 DUP1 PUSH1 0x0 JUMPDEST PUSH1 0x20 DUP2 LT ISZERO PUSH2 0x11F3 JUMPI PUSH2 0x11DC DUP5 DUP3 PUSH1 0x20 DUP2 LT PUSH2 0x11D6 JUMPI PUSH2 0x11D6 PUSH2 0x2839 JUMP JUMPDEST BYTE PUSH2 0x18AB JUMP JUMPDEST PUSH2 0x11E9 SWAP1 PUSH1 0xFF AND DUP4 PUSH2 0x2364 JUMP JUMPDEST SWAP2 POP PUSH1 0x1 ADD PUSH2 0x11B8 JUMP JUMPDEST POP PUSH1 0x80 EQ SWAP3 SWAP2 POP POP JUMP JUMPDEST PUSH1 0x0 DUP1 PUSH2 0x1209 DUP4 PUSH2 0x18DA JUMP JUMPDEST SWAP1 POP PUSH2 0x1213 PUSH2 0x1F57 JUMP JUMPDEST PUSH1 0x0 DUP1 JUMPDEST PUSH1 0x40 DUP2 PUSH1 0xFF AND LT ISZERO PUSH2 0x133D JUMPI DUP4 MLOAD PUSH1 0xFF DUP3 AND PUSH1 0x40 DUP2 LT PUSH2 0x1239 JUMPI PUSH2 0x1239 PUSH2 0x2839 JUMP JUMPDEST PUSH1 0x20 MUL ADD MLOAD PUSH1 0xFF AND ISZERO ISZERO DUP1 PUSH2 0x1265 JUMPI POP DUP3 MLOAD PUSH1 0xFF DUP3 AND PUSH1 0x40 DUP2 LT PUSH2 0x125F JUMPI PUSH2 0x125F PUSH2 0x2839 JUMP JUMPDEST PUSH1 0x20 MUL ADD MLOAD JUMPDEST PUSH2 0x1335 JUMPI PUSH2 0x1271 PUSH2 0x1F57 JUMP JUMPDEST PUSH2 0x127D DUP6 DUP6 DUP4 DUP6 PUSH2 0x1A0B JUMP JUMPDEST ISZERO PUSH2 0x1333 JUMPI DUP3 PUSH2 0x128C DUP2 PUSH2 0x284F JUMP JUMPDEST SWAP4 POP POP PUSH1 0x0 JUMPDEST PUSH1 0x4 DUP2 PUSH1 0xFF AND LT ISZERO PUSH2 0x1331 JUMPI PUSH1 0x0 JUMPDEST PUSH1 0x40 DUP2 PUSH1 0xFF AND LT ISZERO PUSH2 0x1328 JUMPI DUP3 DUP3 PUSH1 0xFF AND PUSH1 0x4 DUP2 LT PUSH2 0x12C2 JUMPI PUSH2 0x12C2 PUSH2 0x2839 JUMP JUMPDEST PUSH1 0x20 MUL ADD MLOAD DUP2 PUSH1 0xFF AND PUSH1 0x40 DUP2 LT PUSH2 0x12DB JUMPI PUSH2 0x12DB PUSH2 0x2839 JUMP JUMPDEST PUSH1 0x20 MUL ADD MLOAD ISZERO PUSH2 0x1320 JUMPI PUSH1 0x1 DUP7 DUP4 PUSH1 0xFF AND PUSH1 0x4 DUP2 LT PUSH2 0x12FC JUMPI PUSH2 0x12FC PUSH2 0x2839 JUMP JUMPDEST PUSH1 0x20 MUL ADD MLOAD DUP3 PUSH1 0xFF AND PUSH1 0x40 DUP2 LT PUSH2 0x1315 JUMPI PUSH2 0x1315 PUSH2 0x2839 JUMP JUMPDEST SWAP2 ISZERO ISZERO PUSH1 0x20 SWAP1 SWAP3 MUL ADD MSTORE JUMPDEST PUSH1 0x1 ADD PUSH2 0x12A1 JUMP JUMPDEST POP PUSH1 0x1 ADD PUSH2 0x1292 JUMP JUMPDEST POP JUMPDEST POP JUMPDEST PUSH1 0x1 ADD PUSH2 0x1217 JUMP JUMPDEST POP SWAP5 SWAP4 POP POP POP POP JUMP JUMPDEST PUSH1 0x60 PUSH1 0x0 PUSH2 0x1353 DUP4 PUSH2 0x1C74 JUMP JUMPDEST PUSH1 0x1 ADD SWAP1 POP PUSH1 0x0 DUP2 PUSH8 0xFFFFFFFFFFFFFFFF DUP2 GT ISZERO PUSH2 0x1373 JUMPI PUSH2 0x1373 PUSH2 0x21CD JUMP JUMPDEST PUSH1 0x40 MLOAD SWAP1 DUP1 DUP3 MSTORE DUP1 PUSH1 0x1F ADD PUSH1 0x1F NOT AND PUSH1 0x20 ADD DUP3 ADD PUSH1 0x40 MSTORE DUP1 ISZERO PUSH2 0x139D JUMPI PUSH1 0x20 DUP3 ADD DUP2 DUP1 CALLDATASIZE DUP4 CALLDATACOPY ADD SWAP1 POP JUMPDEST POP SWAP1 POP DUP2 DUP2 ADD PUSH1 0x20 ADD JUMPDEST PUSH1 0x0 NOT ADD PUSH16 0x181899199A1A9B1B9C1CB0B131B232B3 PUSH1 0x81 SHL PUSH1 0xA DUP7 MOD BYTE DUP2 MSTORE8 PUSH1 0xA DUP6 DIV SWAP5 POP DUP5 PUSH2 0x13A7 JUMPI POP SWAP4 SWAP3 POP POP POP JUMP JUMPDEST PUSH1 0x60 DUP3 PUSH1 0x0 PUSH2 0x13E9 DUP5 PUSH1 0x2 PUSH2 0x238A JUMP JUMPDEST PUSH2 0x13F4 SWAP1 PUSH1 0x2 PUSH2 0x2364 JUMP JUMPDEST PUSH8 0xFFFFFFFFFFFFFFFF DUP2 GT ISZERO PUSH2 0x140C JUMPI PUSH2 0x140C PUSH2 0x21CD JUMP JUMPDEST PUSH1 0x40 MLOAD SWAP1 DUP1 DUP3 MSTORE DUP1 PUSH1 0x1F ADD PUSH1 0x1F NOT AND PUSH1 0x20 ADD DUP3 ADD PUSH1 0x40 MSTORE DUP1 ISZERO PUSH2 0x1436 JUMPI PUSH1 0x20 DUP3 ADD DUP2 DUP1 CALLDATASIZE DUP4 CALLDATACOPY ADD SWAP1 POP JUMPDEST POP SWAP1 POP PUSH1 0x3 PUSH1 0xFC SHL DUP2 PUSH1 0x0 DUP2 MLOAD DUP2 LT PUSH2 0x1451 JUMPI PUSH2 0x1451 PUSH2 0x2839 JUMP JUMPDEST PUSH1 0x20 ADD ADD SWAP1 PUSH1 0x1 PUSH1 0x1 PUSH1 0xF8 SHL SUB NOT AND SWAP1 DUP2 PUSH1 0x0 BYTE SWAP1 MSTORE8 POP PUSH1 0xF PUSH1 0xFB SHL DUP2 PUSH1 0x1 DUP2 MLOAD DUP2 LT PUSH2 0x1480 JUMPI PUSH2 0x1480 PUSH2 0x2839 JUMP JUMPDEST PUSH1 0x20 ADD ADD SWAP1 PUSH1 0x1 PUSH1 0x1 PUSH1 0xF8 SHL SUB NOT AND SWAP1 DUP2 PUSH1 0x0 BYTE SWAP1 MSTORE8 POP PUSH1 0x0 PUSH2 0x14A4 DUP6 PUSH1 0x2 PUSH2 0x238A JUMP JUMPDEST PUSH2 0x14AF SWAP1 PUSH1 0x1 PUSH2 0x2364 JUMP JUMPDEST SWAP1 POP JUMPDEST PUSH1 0x1 DUP2 GT ISZERO PUSH2 0x1527 JUMPI PUSH16 0x181899199A1A9B1B9C1CB0B131B232B3 PUSH1 0x81 SHL DUP4 PUSH1 0xF AND PUSH1 0x10 DUP2 LT PUSH2 0x14E3 JUMPI PUSH2 0x14E3 PUSH2 0x2839 JUMP JUMPDEST BYTE PUSH1 0xF8 SHL DUP3 DUP3 DUP2 MLOAD DUP2 LT PUSH2 0x14F9 JUMPI PUSH2 0x14F9 PUSH2 0x2839 JUMP JUMPDEST PUSH1 0x20 ADD ADD SWAP1 PUSH1 0x1 PUSH1 0x1 PUSH1 0xF8 SHL SUB NOT AND SWAP1 DUP2 PUSH1 0x0 BYTE SWAP1 MSTORE8 POP PUSH1 0x4 SWAP3 SWAP1 SWAP3 SHR SWAP2 PUSH2 0x1520 DUP2 PUSH2 0x286E JUMP JUMPDEST SWAP1 POP PUSH2 0x14B2 JUMP JUMPDEST POP DUP2 ISZERO PUSH2 0x1551 JUMPI PUSH1 0x40 MLOAD PUSH4 0xE22E27EB PUSH1 0xE0 SHL DUP2 MSTORE PUSH1 0x4 DUP2 ADD DUP7 SWAP1 MSTORE PUSH1 0x24 DUP2 ADD DUP6 SWAP1 MSTORE PUSH1 0x44 ADD PUSH2 0x629 JUMP JUMPDEST SWAP5 SWAP4 POP POP POP POP JUMP JUMPDEST PUSH1 0x0 PUSH1 0x1 PUSH1 0x1 PUSH1 0xE0 SHL SUB NOT DUP3 AND PUSH4 0x80AC58CD PUSH1 0xE0 SHL EQ DUP1 PUSH2 0x158A JUMPI POP PUSH1 0x1 PUSH1 0x1 PUSH1 0xE0 SHL SUB NOT DUP3 AND PUSH4 0x5B5E139F PUSH1 0xE0 SHL EQ JUMPDEST DUP1 PUSH2 0x510 JUMPI POP PUSH4 0x1FFC9A7 PUSH1 0xE0 SHL PUSH1 0x1 PUSH1 0x1 PUSH1 0xE0 SHL SUB NOT DUP4 AND EQ PUSH2 0x510 JUMP JUMPDEST DUP1 DUP1 PUSH2 0x15BD JUMPI POP PUSH1 0x1 PUSH1 0x1 PUSH1 0xA0 SHL SUB DUP3 AND ISZERO ISZERO JUMPDEST ISZERO PUSH2 0x167F JUMPI PUSH1 0x0 PUSH2 0x15CD DUP5 PUSH2 0xCA9 JUMP JUMPDEST SWAP1 POP PUSH1 0x1 PUSH1 0x1 PUSH1 0xA0 SHL SUB DUP4 AND ISZERO DUP1 ISZERO SWAP1 PUSH2 0x15F9 JUMPI POP DUP3 PUSH1 0x1 PUSH1 0x1 PUSH1 0xA0 SHL SUB AND DUP2 PUSH1 0x1 PUSH1 0x1 PUSH1 0xA0 SHL SUB AND EQ ISZERO JUMPDEST DUP1 ISZERO PUSH2 0x160C JUMPI POP PUSH2 0x160A DUP2 DUP5 PUSH2 0xC1B JUMP JUMPDEST ISZERO JUMPDEST ISZERO PUSH2 0x1635 JUMPI PUSH1 0x40 MLOAD PUSH4 0xA9FBF51F PUSH1 0xE0 SHL DUP2 MSTORE PUSH1 0x1 PUSH1 0x1 PUSH1 0xA0 SHL SUB DUP5 AND PUSH1 0x4 DUP3 ADD MSTORE PUSH1 0x24 ADD PUSH2 0x629 JUMP JUMPDEST DUP2 ISZERO PUSH2 0x167D JUMPI DUP4 DUP6 PUSH1 0x1 PUSH1 0x1 PUSH1 0xA0 SHL SUB AND DUP3 PUSH1 0x1 PUSH1 0x1 PUSH1 0xA0 SHL SUB AND PUSH32 0x8C5BE1E5EBEC7D5BD14F71427D1E84F3DD0314C0F7B2291E5B200AC8C7C3B925 PUSH1 0x40 MLOAD PUSH1 0x40 MLOAD DUP1 SWAP2 SUB SWAP1 LOG4 JUMPDEST POP JUMPDEST POP POP PUSH1 0x0 SWAP1 DUP2 MSTORE PUSH1 0x4 PUSH1 0x20 MSTORE PUSH1 0x40 SWAP1 KECCAK256 DUP1 SLOAD PUSH1 0x1 PUSH1 0x1 PUSH1 0xA0 SHL SUB NOT AND PUSH1 0x1 PUSH1 0x1 PUSH1 0xA0 SHL SUB SWAP3 SWAP1 SWAP3 AND SWAP2 SWAP1 SWAP2 OR SWAP1 SSTORE JUMP JUMPDEST PUSH2 0x16B9 DUP4 DUP4 PUSH2 0x1D4C JUMP JUMPDEST PUSH2 0x918 CALLER PUSH1 0x0 DUP6 DUP6 DUP6 PUSH2 0x102A JUMP JUMPDEST PUSH2 0x16D2 DUP4 DUP4 DUP4 PUSH2 0x1DB1 JUMP JUMPDEST PUSH2 0x918 JUMPI PUSH1 0x1 PUSH1 0x1 PUSH1 0xA0 SHL SUB DUP4 AND PUSH2 0x1700 JUMPI PUSH1 0x40 MLOAD PUSH4 0x7E273289 PUSH1 0xE0 SHL DUP2 MSTORE PUSH1 0x4 DUP2 ADD DUP3 SWAP1 MSTORE PUSH1 0x24 ADD PUSH2 0x629 JUMP JUMPDEST PUSH1 0x40 MLOAD PUSH4 0x177E802F PUSH1 0xE0 SHL DUP2 MSTORE PUSH1 0x1 PUSH1 0x1 PUSH1 0xA0 SHL SUB DUP4 AND PUSH1 0x4 DUP3 ADD MSTORE PUSH1 0x24 DUP2 ADD DUP3 SWAP1 MSTORE PUSH1 0x44 ADD PUSH2 0x629 JUMP JUMPDEST PUSH1 0x60 DUP4 MLOAD PUSH1 0x0 SUB PUSH2 0x174B JUMPI POP PUSH1 0x40 DUP1 MLOAD PUSH1 0x20 DUP2 ADD SWAP1 SWAP2 MSTORE PUSH1 0x0 DUP2 MSTORE PUSH2 0xE62 JUMP JUMPDEST PUSH1 0x0 DUP3 PUSH2 0x177C JUMPI PUSH1 0x3 DUP6 MLOAD PUSH1 0x4 PUSH2 0x1762 SWAP2 SWAP1 PUSH2 0x238A JUMP JUMPDEST PUSH2 0x176D SWAP1 PUSH1 0x2 PUSH2 0x2364 JUMP JUMPDEST PUSH2 0x1777 SWAP2 SWAP1 PUSH2 0x23B7 JUMP JUMPDEST PUSH2 0x17A1 JUMP JUMPDEST PUSH1 0x3 DUP6 MLOAD PUSH1 0x2 PUSH2 0x178C SWAP2 SWAP1 PUSH2 0x2364 JUMP JUMPDEST PUSH2 0x1796 SWAP2 SWAP1 PUSH2 0x23B7 JUMP JUMPDEST PUSH2 0x17A1 SWAP1 PUSH1 0x4 PUSH2 0x238A JUMP JUMPDEST SWAP1 POP PUSH1 0x0 DUP2 PUSH8 0xFFFFFFFFFFFFFFFF DUP2 GT ISZERO PUSH2 0x17BE JUMPI PUSH2 0x17BE PUSH2 0x21CD JUMP JUMPDEST PUSH1 0x40 MLOAD SWAP1 DUP1 DUP3 MSTORE DUP1 PUSH1 0x1F ADD PUSH1 0x1F NOT AND PUSH1 0x20 ADD DUP3 ADD PUSH1 0x40 MSTORE DUP1 ISZERO PUSH2 0x17E8 JUMPI PUSH1 0x20 DUP3 ADD DUP2 DUP1 CALLDATASIZE DUP4 CALLDATACOPY ADD SWAP1 POP JUMPDEST POP SWAP1 POP PUSH1 0x1 DUP6 ADD PUSH1 0x20 DUP3 ADD DUP8 DUP9 MLOAD DUP10 ADD PUSH1 0x20 DUP2 ADD DUP1 MLOAD PUSH1 0x0 DUP3 MSTORE JUMPDEST DUP3 DUP5 LT ISZERO PUSH2 0x185E JUMPI PUSH1 0x3 DUP5 ADD SWAP4 POP DUP4 MLOAD PUSH1 0x3F DUP2 PUSH1 0x12 SHR AND DUP8 ADD MLOAD DUP7 MSTORE8 PUSH1 0x1 DUP7 ADD SWAP6 POP PUSH1 0x3F DUP2 PUSH1 0xC SHR AND DUP8 ADD MLOAD DUP7 MSTORE8 PUSH1 0x1 DUP7 ADD SWAP6 POP PUSH1 0x3F DUP2 PUSH1 0x6 SHR AND DUP8 ADD MLOAD DUP7 MSTORE8 PUSH1 0x1 DUP7 ADD SWAP6 POP PUSH1 0x3F DUP2 AND DUP8 ADD MLOAD DUP7 MSTORE8 POP PUSH1 0x1 DUP6 ADD SWAP5 POP PUSH2 0x1803 JUMP JUMPDEST SWAP1 MSTORE POP POP DUP6 ISZERO PUSH2 0x189F JUMPI PUSH1 0x3 DUP9 MLOAD MOD PUSH1 0x1 DUP2 EQ PUSH2 0x1882 JUMPI PUSH1 0x2 DUP2 EQ PUSH2 0x1895 JUMPI PUSH2 0x189D JUMP JUMPDEST PUSH1 0x3D PUSH1 0x1 DUP4 SUB MSTORE8 PUSH1 0x3D PUSH1 0x2 DUP4 SUB MSTORE8 PUSH2 0x189D JUMP JUMPDEST PUSH1 0x3D PUSH1 0x1 DUP4 SUB MSTORE8 JUMPDEST POP JUMPDEST POP SWAP1 SWAP7 SWAP6 POP POP POP POP POP POP JUMP JUMPDEST PUSH1 0x0 JUMPDEST PUSH1 0xFF DUP3 AND ISZERO PUSH2 0x18D5 JUMPI PUSH2 0x18C4 PUSH1 0x1 DUP4 AND DUP3 PUSH2 0x2885 JUMP JUMPDEST SWAP1 POP PUSH1 0x1 DUP3 PUSH1 0xFF AND SWAP1 SHR SWAP2 POP PUSH2 0x18AE JUMP JUMPDEST SWAP2 SWAP1 POP JUMP JUMPDEST PUSH2 0x18E2 PUSH2 0x1F84 JUMP JUMPDEST PUSH1 0x0 JUMPDEST PUSH1 0x20 DUP2 LT ISZERO PUSH2 0x1A05 JUMPI PUSH1 0x0 PUSH1 0x4 DUP5 DUP4 PUSH1 0x20 DUP2 LT PUSH2 0x1904 JUMPI PUSH2 0x1904 PUSH2 0x2839 JUMP JUMPDEST BYTE SWAP1 SHR SWAP1 POP PUSH1 0x0 DUP5 DUP4 PUSH1 0x20 DUP2 LT PUSH2 0x191D JUMPI PUSH2 0x191D PUSH2 0x2839 JUMP JUMPDEST BYTE PUSH1 0xF AND SWAP1 POP PUSH1 0x0 JUMPDEST PUSH1 0x4 DUP2 PUSH1 0xFF AND LT ISZERO PUSH2 0x19F7 JUMPI PUSH2 0x193D DUP2 PUSH1 0x3 PUSH2 0x289E JUMP JUMPDEST PUSH1 0xFF AND DUP4 PUSH1 0xFF AND SWAP1 SHR PUSH1 0x1 AND DUP6 DUP3 PUSH1 0xFF AND PUSH1 0x4 DUP2 LT PUSH2 0x195E JUMPI PUSH2 0x195E PUSH2 0x2839 JUMP JUMPDEST PUSH1 0x20 MUL ADD MLOAD PUSH2 0x196E DUP7 PUSH1 0x2 PUSH2 0x238A JUMP JUMPDEST PUSH1 0x40 DUP2 LT PUSH2 0x197E JUMPI PUSH2 0x197E PUSH2 0x2839 JUMP JUMPDEST PUSH1 0xFF SWAP1 SWAP3 AND PUSH1 0x20 SWAP3 SWAP1 SWAP3 MUL ADD MSTORE PUSH2 0x1996 DUP2 PUSH1 0x3 PUSH2 0x289E JUMP JUMPDEST PUSH1 0xFF AND DUP3 PUSH1 0xFF AND SWAP1 SHR PUSH1 0x1 AND DUP6 DUP3 PUSH1 0xFF AND PUSH1 0x4 DUP2 LT PUSH2 0x19B7 JUMPI PUSH2 0x19B7 PUSH2 0x2839 JUMP JUMPDEST PUSH1 0x20 MUL ADD MLOAD PUSH2 0x19C7 DUP7 PUSH1 0x2 PUSH2 0x238A JUMP JUMPDEST PUSH2 0x19D2 SWAP1 PUSH1 0x1 PUSH2 0x2364 JUMP JUMPDEST PUSH1 0x40 DUP2 LT PUSH2 0x19E2 JUMPI PUSH2 0x19E2 PUSH2 0x2839 JUMP JUMPDEST PUSH1 0xFF SWAP1 SWAP3 AND PUSH1 0x20 SWAP3 SWAP1 SWAP3 MUL ADD MSTORE PUSH1 0x1 ADD PUSH2 0x1926 JUMP JUMPDEST POP POP POP DUP1 PUSH1 0x1 ADD SWAP1 POP PUSH2 0x18E5 JUMP JUMPDEST POP SWAP2 SWAP1 POP JUMP JUMPDEST PUSH1 0x0 PUSH2 0x1A15 PUSH2 0x1FB1 JUMP JUMPDEST PUSH2 0x1A1D PUSH2 0x1FB1 JUMP JUMPDEST PUSH1 0x0 DUP1 DUP4 MSTORE PUSH1 0xFF DUP6 AND DUP3 MSTORE PUSH1 0x1 JUMPDEST DUP1 DUP3 LT ISZERO PUSH2 0x1C68 JUMPI PUSH1 0x0 DUP5 DUP4 PUSH2 0x100 DUP2 LT PUSH2 0x1A48 JUMPI PUSH2 0x1A48 PUSH2 0x2839 JUMP JUMPDEST PUSH1 0x20 MUL ADD MLOAD SWAP1 POP PUSH1 0x0 DUP5 DUP5 PUSH2 0x100 DUP2 LT PUSH2 0x1A64 JUMPI PUSH2 0x1A64 PUSH2 0x2839 JUMP JUMPDEST PUSH1 0x20 MUL ADD MLOAD SWAP1 POP DUP4 PUSH2 0x1A75 DUP2 PUSH2 0x28B7 JUMP JUMPDEST SWAP5 POP POP DUP9 DUP3 PUSH2 0xFFFF AND PUSH1 0x4 DUP2 LT PUSH2 0x1A8E JUMPI PUSH2 0x1A8E PUSH2 0x2839 JUMP JUMPDEST PUSH1 0x20 MUL ADD MLOAD DUP2 PUSH2 0xFFFF AND PUSH1 0x40 DUP2 LT PUSH2 0x1AA8 JUMPI PUSH2 0x1AA8 PUSH2 0x2839 JUMP JUMPDEST PUSH1 0x20 MUL ADD MLOAD DUP1 PUSH2 0x1AEE JUMPI POP DUP11 DUP3 PUSH2 0xFFFF AND PUSH1 0x4 DUP2 LT PUSH2 0x1AC9 JUMPI PUSH2 0x1AC9 PUSH2 0x2839 JUMP JUMPDEST PUSH1 0x20 MUL ADD MLOAD DUP2 PUSH2 0xFFFF AND PUSH1 0x40 DUP2 LT PUSH2 0x1AE3 JUMPI PUSH2 0x1AE3 PUSH2 0x2839 JUMP JUMPDEST PUSH1 0x20 MUL ADD MLOAD PUSH1 0xFF AND ISZERO ISZERO JUMPDEST ISZERO PUSH2 0x1AFA JUMPI POP POP PUSH2 0x1A2B JUMP JUMPDEST PUSH1 0x1 DUP10 DUP4 PUSH2 0xFFFF AND PUSH1 0x4 DUP2 LT PUSH2 0x1B12 JUMPI PUSH2 0x1B12 PUSH2 0x2839 JUMP JUMPDEST PUSH1 0x20 MUL ADD MLOAD DUP3 PUSH2 0xFFFF AND PUSH1 0x40 DUP2 LT PUSH2 0x1B2C JUMPI PUSH2 0x1B2C PUSH2 0x2839 JUMP JUMPDEST SWAP2 ISZERO ISZERO PUSH1 0x20 SWAP1 SWAP3 MUL ADD MSTORE PUSH2 0xFFFF DUP3 AND PUSH1 0x3 SUB PUSH2 0x1B47 JUMPI PUSH1 0x1 SWAP7 POP JUMPDEST PUSH1 0x0 PUSH1 0x40 MLOAD DUP1 PUSH1 0x80 ADD PUSH1 0x40 MSTORE DUP1 DUP5 PUSH1 0x1 PUSH2 0x1B61 SWAP2 SWAP1 PUSH2 0x28D0 JUMP JUMPDEST PUSH2 0xFFFF AND PUSH2 0xFFFF AND DUP2 MSTORE PUSH1 0x20 ADD DUP5 PUSH2 0xFFFF AND PUSH1 0x0 EQ PUSH2 0x1B8A JUMPI PUSH2 0x1B85 PUSH1 0x1 DUP7 PUSH2 0x28F2 JUMP JUMPDEST PUSH2 0x1B8D JUMP JUMPDEST PUSH1 0x0 JUMPDEST PUSH2 0xFFFF SWAP1 DUP2 AND DUP3 MSTORE DUP6 DUP2 AND PUSH1 0x20 DUP1 DUP5 ADD DUP3 SWAP1 MSTORE PUSH1 0x40 SWAP4 DUP5 ADD SWAP2 SWAP1 SWAP2 MSTORE DUP3 MLOAD PUSH1 0x80 DUP2 ADD DUP5 MSTORE SWAP2 DUP7 AND DUP1 DUP4 MSTORE SWAP1 DUP3 ADD MSTORE SWAP2 SWAP3 POP PUSH1 0x0 SWAP2 SWAP1 DUP2 DUP2 ADD SWAP1 PUSH2 0x1BD1 DUP7 PUSH1 0x1 PUSH2 0x28D0 JUMP JUMPDEST PUSH2 0x1BDB SWAP2 SWAP1 PUSH2 0x290D JUMP JUMPDEST PUSH2 0xFFFF AND DUP2 MSTORE PUSH1 0x20 ADD PUSH1 0x40 PUSH2 0x1BF1 DUP7 PUSH1 0x3F PUSH2 0x28D0 JUMP JUMPDEST PUSH2 0x1BFB SWAP2 SWAP1 PUSH2 0x290D JUMP JUMPDEST PUSH2 0xFFFF AND SWAP1 MSTORE SWAP1 POP PUSH1 0x0 JUMPDEST PUSH1 0x4 DUP2 PUSH1 0xFF AND LT ISZERO PUSH2 0x1C5E JUMPI PUSH2 0x1C54 DUP15 DUP15 DUP15 DUP13 DUP13 DUP9 DUP8 PUSH1 0xFF AND PUSH1 0x4 DUP2 LT PUSH2 0x1C2F JUMPI PUSH2 0x1C2F PUSH2 0x2839 JUMP JUMPDEST PUSH1 0x20 MUL ADD MLOAD DUP9 DUP9 PUSH1 0xFF AND PUSH1 0x4 DUP2 LT PUSH2 0x1C49 JUMPI PUSH2 0x1C49 PUSH2 0x2839 JUMP JUMPDEST PUSH1 0x20 MUL ADD MLOAD DUP14 PUSH2 0x1E14 JUMP JUMPDEST SWAP6 POP PUSH1 0x1 ADD PUSH2 0x1C06 JUMP JUMPDEST POP POP POP POP POP PUSH2 0x1A2B JUMP JUMPDEST POP POP POP POP SWAP5 SWAP4 POP POP POP POP JUMP JUMPDEST PUSH1 0x0 DUP1 PUSH19 0x184F03E93FF9F4DAA797ED6E38ED64BF6A1F01 PUSH1 0x40 SHL DUP4 LT PUSH2 0x1CB3 JUMPI PUSH19 0x184F03E93FF9F4DAA797ED6E38ED64BF6A1F01 PUSH1 0x40 SHL DUP4 DIV SWAP3 POP PUSH1 0x40 ADD JUMPDEST PUSH14 0x4EE2D6D415B85ACEF8100000000 DUP4 LT PUSH2 0x1CDF JUMPI PUSH14 0x4EE2D6D415B85ACEF8100000000 DUP4 DIV SWAP3 POP PUSH1 0x20 ADD JUMPDEST PUSH7 0x2386F26FC10000 DUP4 LT PUSH2 0x1CFD JUMPI PUSH7 0x2386F26FC10000 DUP4 DIV SWAP3 POP PUSH1 0x10 ADD JUMPDEST PUSH4 0x5F5E100 DUP4 LT PUSH2 0x1D15 JUMPI PUSH4 0x5F5E100 DUP4 DIV SWAP3 POP PUSH1 0x8 ADD JUMPDEST PUSH2 0x2710 DUP4 LT PUSH2 0x1D29 JUMPI PUSH2 0x2710 DUP4 DIV SWAP3 POP PUSH1 0x4 ADD JUMPDEST PUSH1 0x64 DUP4 LT PUSH2 0x1D3B JUMPI PUSH1 0x64 DUP4 DIV SWAP3 POP PUSH1 0x2 ADD JUMPDEST PUSH1 0xA DUP4 LT PUSH2 0x510 JUMPI PUSH1 0x1 ADD SWAP3 SWAP2 POP POP JUMP JUMPDEST PUSH1 0x1 PUSH1 0x1 PUSH1 0xA0 SHL SUB DUP3 AND PUSH2 0x1D76 JUMPI PUSH1 0x40 MLOAD PUSH4 0x32505749 PUSH1 0xE1 SHL DUP2 MSTORE PUSH1 0x0 PUSH1 0x4 DUP3 ADD MSTORE PUSH1 0x24 ADD PUSH2 0x629 JUMP JUMPDEST PUSH1 0x0 PUSH2 0x1D84 DUP4 DUP4 PUSH1 0x0 PUSH2 0xD6E JUMP JUMPDEST SWAP1 POP PUSH1 0x1 PUSH1 0x1 PUSH1 0xA0 SHL SUB DUP2 AND ISZERO PUSH2 0x918 JUMPI PUSH1 0x40 MLOAD PUSH4 0x39E35637 PUSH1 0xE1 SHL DUP2 MSTORE PUSH1 0x0 PUSH1 0x4 DUP3 ADD MSTORE PUSH1 0x24 ADD PUSH2 0x629 JUMP JUMPDEST PUSH1 0x0 PUSH1 0x1 PUSH1 0x1 PUSH1 0xA0 SHL SUB DUP4 AND ISZERO DUP1 ISZERO SWAP1 PUSH2 0x1551 JUMPI POP DUP3 PUSH1 0x1 PUSH1 0x1 PUSH1 0xA0 SHL SUB AND DUP5 PUSH1 0x1 PUSH1 0x1 PUSH1 0xA0 SHL SUB AND EQ DUP1 PUSH2 0x1DEB JUMPI POP PUSH2 0x1DEB DUP5 DUP5 PUSH2 0xC1B JUMP JUMPDEST DUP1 PUSH2 0x1551 JUMPI POP POP PUSH1 0x0 SWAP1 DUP2 MSTORE PUSH1 0x4 PUSH1 0x20 MSTORE PUSH1 0x40 SWAP1 KECCAK256 SLOAD PUSH1 0x1 PUSH1 0x1 PUSH1 0xA0 SHL SUB SWAP1 DUP2 AND SWAP2 AND EQ SWAP2 SWAP1 POP JUMP JUMPDEST PUSH1 0x0 PUSH1 0x4 DUP5 PUSH2 0xFFFF AND LT ISZERO DUP1 PUSH2 0x1E2F JUMPI POP PUSH1 0x40 DUP4 PUSH2 0xFFFF AND LT ISZERO JUMPDEST ISZERO PUSH2 0x1E3B JUMPI POP DUP1 PUSH2 0x1F4B JUMP JUMPDEST DUP7 DUP5 PUSH2 0xFFFF AND PUSH1 0x4 DUP2 LT PUSH2 0x1E51 JUMPI PUSH2 0x1E51 PUSH2 0x2839 JUMP JUMPDEST PUSH1 0x20 MUL ADD MLOAD DUP4 PUSH2 0xFFFF AND PUSH1 0x40 DUP2 LT PUSH2 0x1E6B JUMPI PUSH2 0x1E6B PUSH2 0x2839 JUMP JUMPDEST PUSH1 0x20 MUL ADD MLOAD DUP1 PUSH2 0x1EAC JUMPI POP DUP8 DUP5 PUSH2 0xFFFF AND PUSH1 0x4 DUP2 LT PUSH2 0x1E8C JUMPI PUSH2 0x1E8C PUSH2 0x2839 JUMP JUMPDEST PUSH1 0x20 MUL ADD MLOAD DUP4 PUSH2 0xFFFF AND PUSH1 0x40 DUP2 LT PUSH2 0x1EA6 JUMPI PUSH2 0x1EA6 PUSH2 0x2839 JUMP JUMPDEST PUSH1 0x20 MUL ADD MLOAD JUMPDEST DUP1 PUSH2 0x1EED JUMPI POP DUP9 DUP5 PUSH2 0xFFFF AND PUSH1 0x4 DUP2 LT PUSH2 0x1EC8 JUMPI PUSH2 0x1EC8 PUSH2 0x2839 JUMP JUMPDEST PUSH1 0x20 MUL ADD MLOAD DUP4 PUSH2 0xFFFF AND PUSH1 0x40 DUP2 LT PUSH2 0x1EE2 JUMPI PUSH2 0x1EE2 PUSH2 0x2839 JUMP JUMPDEST PUSH1 0x20 MUL ADD MLOAD PUSH1 0xFF AND ISZERO ISZERO JUMPDEST ISZERO PUSH2 0x1EF9 JUMPI POP DUP1 PUSH2 0x1F4B JUMP JUMPDEST DUP4 DUP7 DUP4 PUSH2 0x100 DUP2 LT PUSH2 0x1F0D JUMPI PUSH2 0x1F0D PUSH2 0x2839 JUMP JUMPDEST PUSH2 0xFFFF SWAP1 SWAP3 AND PUSH1 0x20 SWAP3 SWAP1 SWAP3 MUL ADD MSTORE DUP3 DUP6 DUP4 PUSH2 0x100 DUP2 LT PUSH2 0x1F2F JUMPI PUSH2 0x1F2F PUSH2 0x2839 JUMP JUMPDEST PUSH2 0xFFFF SWAP1 SWAP3 AND PUSH1 0x20 SWAP3 SWAP1 SWAP3 MUL ADD MSTORE PUSH2 0x1F48 DUP3 PUSH1 0x1 PUSH2 0x2364 JUMP JUMPDEST SWAP1 POP JUMPDEST SWAP9 SWAP8 POP POP POP POP POP POP POP POP JUMP JUMPDEST PUSH1 0x40 MLOAD DUP1 PUSH1 0x80 ADD PUSH1 0x40 MSTORE DUP1 PUSH1 0x4 SWAP1 JUMPDEST PUSH2 0x1F6E PUSH2 0x1FD1 JUMP JUMPDEST DUP2 MSTORE PUSH1 0x20 ADD SWAP1 PUSH1 0x1 SWAP1 SUB SWAP1 DUP2 PUSH2 0x1F66 JUMPI SWAP1 POP POP SWAP1 JUMP JUMPDEST PUSH1 0x40 MLOAD DUP1 PUSH1 0x80 ADD PUSH1 0x40 MSTORE DUP1 PUSH1 0x4 SWAP1 JUMPDEST PUSH2 0x1F9B PUSH2 0x1FD1 JUMP JUMPDEST DUP2 MSTORE PUSH1 0x20 ADD SWAP1 PUSH1 0x1 SWAP1 SUB SWAP1 DUP2 PUSH2 0x1F93 JUMPI SWAP1 POP POP SWAP1 JUMP JUMPDEST PUSH1 0x40 MLOAD DUP1 PUSH2 0x2000 ADD PUSH1 0x40 MSTORE DUP1 PUSH2 0x100 SWAP1 PUSH1 0x20 DUP3 MUL DUP1 CALLDATASIZE DUP4 CALLDATACOPY POP SWAP2 SWAP3 SWAP2 POP POP JUMP JUMPDEST PUSH1 0x40 MLOAD DUP1 PUSH2 0x800 ADD PUSH1 0x40 MSTORE DUP1 PUSH1 0x40 SWAP1 PUSH1 0x20 DUP3 MUL DUP1 CALLDATASIZE DUP4 CALLDATACOPY POP SWAP2 SWAP3 SWAP2 POP POP JUMP JUMPDEST PUSH1 0x1 PUSH1 0x1 PUSH1 0xE0 SHL SUB NOT DUP2 AND DUP2 EQ PUSH2 0x6B8 JUMPI PUSH1 0x0 DUP1 REVERT JUMPDEST PUSH1 0x0 PUSH1 0x20 DUP3 DUP5 SUB SLT ISZERO PUSH2 0x2018 JUMPI PUSH1 0x0 DUP1 REVERT JUMPDEST DUP2 CALLDATALOAD PUSH2 0xE62 DUP2 PUSH2 0x1FF0 JUMP JUMPDEST PUSH1 0x0 JUMPDEST DUP4 DUP2 LT ISZERO PUSH2 0x203E JUMPI DUP2 DUP2 ADD MLOAD DUP4 DUP3 ADD MSTORE PUSH1 0x20 ADD PUSH2 0x2026 JUMP JUMPDEST POP POP PUSH1 0x0 SWAP2 ADD MSTORE JUMP JUMPDEST PUSH1 0x0 DUP2 MLOAD DUP1 DUP5 MSTORE PUSH2 0x205F DUP2 PUSH1 0x20 DUP7 ADD PUSH1 0x20 DUP7 ADD PUSH2 0x2023 JUMP JUMPDEST PUSH1 0x1F ADD PUSH1 0x1F NOT AND SWAP3 SWAP1 SWAP3 ADD PUSH1 0x20 ADD SWAP3 SWAP2 POP POP JUMP JUMPDEST PUSH1 0x20 DUP2 MSTORE PUSH1 0x0 PUSH2 0xE62 PUSH1 0x20 DUP4 ADD DUP5 PUSH2 0x2047 JUMP JUMPDEST PUSH1 0x0 PUSH1 0x20 DUP3 DUP5 SUB SLT ISZERO PUSH2 0x2098 JUMPI PUSH1 0x0 DUP1 REVERT JUMPDEST POP CALLDATALOAD SWAP2 SWAP1 POP JUMP JUMPDEST DUP1 CALLDATALOAD PUSH1 0x1 PUSH1 0x1 PUSH1 0xA0 SHL SUB DUP2 AND DUP2 EQ PUSH2 0x18D5 JUMPI PUSH1 0x0 DUP1 REVERT JUMPDEST PUSH1 0x0 DUP1 PUSH1 0x40 DUP4 DUP6 SUB SLT ISZERO PUSH2 0x20C9 JUMPI PUSH1 0x0 DUP1 REVERT JUMPDEST PUSH2 0x20D2 DUP4 PUSH2 0x209F JUMP JUMPDEST SWAP5 PUSH1 0x20 SWAP4 SWAP1 SWAP4 ADD CALLDATALOAD SWAP4 POP POP POP JUMP JUMPDEST PUSH1 0x0 DUP1 PUSH1 0x0 PUSH1 0x60 DUP5 DUP7 SUB SLT ISZERO PUSH2 0x20F5 JUMPI PUSH1 0x0 DUP1 REVERT JUMPDEST PUSH2 0x20FE DUP5 PUSH2 0x209F JUMP JUMPDEST SWAP3 POP PUSH2 0x210C PUSH1 0x20 DUP6 ADD PUSH2 0x209F JUMP JUMPDEST SWAP2 POP PUSH1 0x40 DUP5 ADD CALLDATALOAD SWAP1 POP SWAP3 POP SWAP3 POP SWAP3 JUMP JUMPDEST PUSH1 0x0 DUP1 PUSH1 0x40 DUP4 DUP6 SUB SLT ISZERO PUSH2 0x212F JUMPI PUSH1 0x0 DUP1 REVERT JUMPDEST POP POP DUP1 CALLDATALOAD SWAP3 PUSH1 0x20 SWAP1 SWAP2 ADD CALLDATALOAD SWAP2 POP JUMP JUMPDEST PUSH1 0x0 PUSH1 0x20 DUP3 DUP5 SUB SLT ISZERO PUSH2 0x2150 JUMPI PUSH1 0x0 DUP1 REVERT JUMPDEST PUSH2 0xE62 DUP3 PUSH2 0x209F JUMP JUMPDEST PUSH1 0x0 DUP1 PUSH1 0x40 DUP4 DUP6 SUB SLT ISZERO PUSH2 0x216C JUMPI PUSH1 0x0 DUP1 REVERT JUMPDEST PUSH2 0x2175 DUP4 PUSH2 0x209F JUMP JUMPDEST SWAP2 POP PUSH1 0x20 DUP4 ADD CALLDATALOAD PUSH1 0x1 PUSH1 0x1 PUSH1 0x60 SHL SUB DUP2 AND DUP2 EQ PUSH2 0x2191 JUMPI PUSH1 0x0 DUP1 REVERT JUMPDEST DUP1 SWAP2 POP POP SWAP3 POP SWAP3 SWAP1 POP JUMP JUMPDEST PUSH1 0x0 DUP1 PUSH1 0x40 DUP4 DUP6 SUB SLT ISZERO PUSH2 0x21AF JUMPI PUSH1 0x0 DUP1 REVERT JUMPDEST PUSH2 0x21B8 DUP4 PUSH2 0x209F JUMP JUMPDEST SWAP2 POP PUSH1 0x20 DUP4 ADD CALLDATALOAD DUP1 ISZERO ISZERO DUP2 EQ PUSH2 0x2191 JUMPI PUSH1 0x0 DUP1 REVERT JUMPDEST PUSH4 0x4E487B71 PUSH1 0xE0 SHL PUSH1 0x0 MSTORE PUSH1 0x41 PUSH1 0x4 MSTORE PUSH1 0x24 PUSH1 0x0 REVERT JUMPDEST PUSH1 0x40 MLOAD PUSH1 0x1F DUP3 ADD PUSH1 0x1F NOT AND DUP2 ADD PUSH8 0xFFFFFFFFFFFFFFFF DUP2 GT DUP3 DUP3 LT OR ISZERO PUSH2 0x220C JUMPI PUSH2 0x220C PUSH2 0x21CD JUMP JUMPDEST PUSH1 0x40 MSTORE SWAP2 SWAP1 POP JUMP JUMPDEST PUSH1 0x0 PUSH8 0xFFFFFFFFFFFFFFFF DUP3 GT ISZERO PUSH2 0x222E JUMPI PUSH2 0x222E PUSH2 0x21CD JUMP JUMPDEST POP PUSH1 0x1F ADD PUSH1 0x1F NOT AND PUSH1 0x20 ADD SWAP1 JUMP JUMPDEST PUSH1 0x0 DUP1 PUSH1 0x0 DUP1 PUSH1 0x80 DUP6 DUP8 SUB SLT ISZERO PUSH2 0x2252 JUMPI PUSH1 0x0 DUP1 REVERT JUMPDEST PUSH2 0x225B DUP6 PUSH2 0x209F JUMP JUMPDEST SWAP4 POP PUSH2 0x2269 PUSH1 0x20 DUP7 ADD PUSH2 0x209F JUMP JUMPDEST SWAP3 POP PUSH1 0x40 DUP6 ADD CALLDATALOAD SWAP2 POP PUSH1 0x60 DUP6 ADD CALLDATALOAD PUSH8 0xFFFFFFFFFFFFFFFF DUP2 GT ISZERO PUSH2 0x228C JUMPI PUSH1 0x0 DUP1 REVERT JUMPDEST DUP6 ADD PUSH1 0x1F DUP2 ADD DUP8 SGT PUSH2 0x229D JUMPI PUSH1 0x0 DUP1 REVERT JUMPDEST DUP1 CALLDATALOAD PUSH2 0x22B0 PUSH2 0x22AB DUP3 PUSH2 0x2214 JUMP JUMPDEST PUSH2 0x21E3 JUMP JUMPDEST DUP2 DUP2 MSTORE DUP9 PUSH1 0x20 DUP4 DUP6 ADD ADD GT ISZERO PUSH2 0x22C5 JUMPI PUSH1 0x0 DUP1 REVERT JUMPDEST DUP2 PUSH1 0x20 DUP5 ADD PUSH1 0x20 DUP4 ADD CALLDATACOPY PUSH1 0x0 PUSH1 0x20 DUP4 DUP4 ADD ADD MSTORE DUP1 SWAP4 POP POP POP POP SWAP3 SWAP6 SWAP2 SWAP5 POP SWAP3 POP JUMP JUMPDEST PUSH1 0x0 DUP1 PUSH1 0x40 DUP4 DUP6 SUB SLT ISZERO PUSH2 0x22FA JUMPI PUSH1 0x0 DUP1 REVERT JUMPDEST PUSH2 0x2303 DUP4 PUSH2 0x209F JUMP JUMPDEST SWAP2 POP PUSH2 0x2311 PUSH1 0x20 DUP5 ADD PUSH2 0x209F JUMP JUMPDEST SWAP1 POP SWAP3 POP SWAP3 SWAP1 POP JUMP JUMPDEST PUSH1 0x1 DUP2 DUP2 SHR SWAP1 DUP3 AND DUP1 PUSH2 0x232E JUMPI PUSH1 0x7F DUP3 AND SWAP2 POP JUMPDEST PUSH1 0x20 DUP3 LT DUP2 SUB PUSH2 0x1A05 JUMPI PUSH4 0x4E487B71 PUSH1 0xE0 SHL PUSH1 0x0 MSTORE PUSH1 0x22 PUSH1 0x4 MSTORE PUSH1 0x24 PUSH1 0x0 REVERT JUMPDEST PUSH4 0x4E487B71 PUSH1 0xE0 SHL PUSH1 0x0 MSTORE PUSH1 0x11 PUSH1 0x4 MSTORE PUSH1 0x24 PUSH1 0x0 REVERT JUMPDEST DUP1 DUP3 ADD DUP1 DUP3 GT ISZERO PUSH2 0x510 JUMPI PUSH2 0x510 PUSH2 0x234E JUMP JUMPDEST DUP2 DUP2 SUB DUP2 DUP2 GT ISZERO PUSH2 0x510 JUMPI PUSH2 0x510 PUSH2 0x234E JUMP JUMPDEST DUP1 DUP3 MUL DUP2 ISZERO DUP3 DUP3 DIV DUP5 EQ OR PUSH2 0x510 JUMPI PUSH2 0x510 PUSH2 0x234E JUMP JUMPDEST PUSH4 0x4E487B71 PUSH1 0xE0 SHL PUSH1 0x0 MSTORE PUSH1 0x12 PUSH1 0x4 MSTORE PUSH1 0x24 PUSH1 0x0 REVERT JUMPDEST PUSH1 0x0 DUP3 PUSH2 0x23C6 JUMPI PUSH2 0x23C6 PUSH2 0x23A1 JUMP JUMPDEST POP DIV SWAP1 JUMP JUMPDEST PUSH1 0x0 PUSH1 0x20 DUP3 DUP5 SUB SLT ISZERO PUSH2 0x23DD JUMPI PUSH1 0x0 DUP1 REVERT JUMPDEST DUP2 MLOAD PUSH8 0xFFFFFFFFFFFFFFFF DUP2 GT ISZERO PUSH2 0x23F4 JUMPI PUSH1 0x0 DUP1 REVERT JUMPDEST DUP3 ADD PUSH1 0x1F DUP2 ADD DUP5 SGT PUSH2 0x2405 JUMPI PUSH1 0x0 DUP1 REVERT JUMPDEST DUP1 MLOAD PUSH2 0x2413 PUSH2 0x22AB DUP3 PUSH2 0x2214 JUMP JUMPDEST DUP2 DUP2 MSTORE DUP6 PUSH1 0x20 DUP4 DUP6 ADD ADD GT ISZERO PUSH2 0x2428 JUMPI PUSH1 0x0 DUP1 REVERT JUMPDEST PUSH2 0x2439 DUP3 PUSH1 0x20 DUP4 ADD PUSH1 0x20 DUP7 ADD PUSH2 0x2023 JUMP JUMPDEST SWAP6 SWAP5 POP POP POP POP POP JUMP JUMPDEST PUSH1 0x0 DUP2 MLOAD PUSH2 0x2454 DUP2 DUP6 PUSH1 0x20 DUP7 ADD PUSH2 0x2023 JUMP JUMPDEST SWAP3 SWAP1 SWAP3 ADD SWAP3 SWAP2 POP POP JUMP JUMPDEST PUSH32 0x7B202274726169745F74797065223A2242616C616E636564222C202276616C75 DUP2 MSTORE PUSH1 0x0 PUSH4 0x32911D11 PUSH1 0xE1 SHL DUP1 PUSH1 0x20 DUP5 ADD MSTORE DUP6 MLOAD PUSH2 0x24A4 DUP2 PUSH1 0x24 DUP7 ADD PUSH1 0x20 DUP11 ADD PUSH2 0x2023 JUMP JUMPDEST PUSH4 0x8881F4B PUSH1 0xE2 SHL PUSH1 0x24 SWAP2 DUP6 ADD SWAP2 DUP3 ADD DUP2 SWAP1 MSTORE PUSH32 0x7B202274726169745F74797065223A225061737361676573222C202276616C75 PUSH1 0x28 DUP4 ADD MSTORE PUSH1 0x48 DUP3 ADD SWAP3 SWAP1 SWAP3 MSTORE DUP6 MLOAD SWAP2 PUSH2 0x24F9 DUP4 PUSH1 0x4C DUP5 ADD PUSH1 0x20 DUP11 ADD PUSH2 0x2023 JUMP JUMPDEST DUP3 DUP3 ADD SWAP3 POP DUP1 PUSH1 0x4C DUP5 ADD MSTORE POP POP PUSH32 0x7B202274726169745F74797065223A2253656564222C202276616C7565223A22 PUSH1 0x50 DUP3 ADD MSTORE DUP4 MLOAD PUSH2 0x253F DUP2 PUSH1 0x70 DUP5 ADD PUSH1 0x20 DUP9 ADD PUSH2 0x2023 JUMP JUMPDEST PUSH3 0x22207D PUSH1 0xE8 SHL PUSH1 0x70 SWAP3 SWAP1 SWAP2 ADD SWAP2 DUP3 ADD MSTORE PUSH1 0x73 ADD SWAP6 SWAP5 POP POP POP POP POP JUMP JUMPDEST PUSH19 0x7B226E616D65223A22486173684A696E672023 PUSH1 0x68 SHL DUP2 MSTORE DUP5 MLOAD PUSH1 0x0 SWAP1 PUSH2 0x258B DUP2 PUSH1 0x13 DUP6 ADD PUSH1 0x20 DUP11 ADD PUSH2 0x2023 JUMP JUMPDEST PUSH2 0x88B PUSH1 0xF2 SHL PUSH1 0x13 SWAP2 DUP5 ADD SWAP2 DUP3 ADD MSTORE PUSH32 0x226465736372697074696F6E223A2246756C6C79206F6E2D636861696E204861 PUSH1 0x15 DUP3 ADD MSTORE PUSH32 0x73684A696E67206D616E64616C61202D20612064657465726D696E6973746963 PUSH1 0x35 DUP3 ADD MSTORE PUSH32 0x2067656E6572617469766520666F726D20646572697665642066726F6D206372 PUSH1 0x55 DUP3 ADD MSTORE PUSH32 0x7970746F6772617068696320656E74726F70792E20536F757263652068617368 PUSH1 0x75 DUP3 ADD MSTORE PUSH2 0x1D1 PUSH1 0xF5 SHL PUSH1 0x95 DUP3 ADD MSTORE DUP6 MLOAD PUSH2 0x2650 DUP2 PUSH1 0x97 DUP5 ADD PUSH1 0x20 DUP11 ADD PUSH2 0x2023 JUMP JUMPDEST PUSH2 0x1F4B PUSH2 0x278C PUSH2 0x2786 PUSH2 0x276C PUSH2 0x275E PUSH2 0x2758 PUSH2 0x2723 PUSH2 0x26FA PUSH2 0x26AB PUSH2 0x2682 PUSH1 0x97 DUP12 DUP14 ADD ADD PUSH2 0x88B PUSH1 0xF2 SHL DUP2 MSTORE PUSH1 0x2 ADD SWAP1 JUMP JUMPDEST PUSH32 0x2263726561746F72223A2244617461536174747661222C000000000000000000 DUP2 MSTORE PUSH1 0x17 ADD SWAP1 JUMP JUMPDEST PUSH32 0x2265787465726E616C5F75726C223A2268747470733A2F2F6769746875622E63 DUP2 MSTORE PUSH32 0x6F6D2F446174615361747476612F686173686A696E67222C0000000000000000 PUSH1 0x20 DUP3 ADD MSTORE PUSH1 0x38 ADD SWAP1 JUMP JUMPDEST PUSH32 0x226C6963656E7365223A2243432042592D4E4320342E30222C00000000000000 DUP2 MSTORE PUSH1 0x19 ADD SWAP1 JUMP JUMPDEST PUSH32 0x22696D616765223A22646174613A696D6167652F7376672B786D6C3B62617365 DUP2 MSTORE PUSH3 0xD8D0B PUSH1 0xEA SHL PUSH1 0x20 DUP3 ADD MSTORE PUSH1 0x23 ADD SWAP1 JUMP JUMPDEST DUP12 PUSH2 0x2442 JUMP JUMPDEST PUSH2 0x88B PUSH1 0xF2 SHL DUP2 MSTORE PUSH1 0x2 ADD SWAP1 JUMP JUMPDEST PUSH14 0x2261747472696275746573223A5B PUSH1 0x90 SHL DUP2 MSTORE PUSH1 0xE ADD SWAP1 JUMP JUMPDEST DUP8 PUSH2 0x2442 JUMP JUMPDEST PUSH2 0x5D7D PUSH1 0xF0 SHL DUP2 MSTORE PUSH1 0x2 ADD SWAP1 JUMP JUMPDEST PUSH32 0x646174613A6170706C69636174696F6E2F6A736F6E3B6261736536342C000000 DUP2 MSTORE PUSH1 0x0 DUP3 MLOAD PUSH2 0x27D2 DUP2 PUSH1 0x1D DUP6 ADD PUSH1 0x20 DUP8 ADD PUSH2 0x2023 JUMP JUMPDEST SWAP2 SWAP1 SWAP2 ADD PUSH1 0x1D ADD SWAP3 SWAP2 POP POP JUMP JUMPDEST PUSH1 0x1 PUSH1 0x1 PUSH1 0xA0 SHL SUB DUP6 DUP2 AND DUP3 MSTORE DUP5 AND PUSH1 0x20 DUP3 ADD MSTORE PUSH1 0x40 DUP2 ADD DUP4 SWAP1 MSTORE PUSH1 0x80 PUSH1 0x60 DUP3 ADD DUP2 SWAP1 MSTORE PUSH1 0x0 SWAP1 PUSH2 0x2812 SWAP1 DUP4 ADD DUP5 PUSH2 0x2047 JUMP JUMPDEST SWAP7 SWAP6 POP POP POP POP POP POP JUMP JUMPDEST PUSH1 0x0 PUSH1 0x20 DUP3 DUP5 SUB SLT ISZERO PUSH2 0x282E JUMPI PUSH1 0x0 DUP1 REVERT JUMPDEST DUP2 MLOAD PUSH2 0xE62 DUP2 PUSH2 0x1FF0 JUMP JUMPDEST PUSH4 0x4E487B71 PUSH1 0xE0 SHL PUSH1 0x0 MSTORE PUSH1 0x32 PUSH1 0x4 MSTORE PUSH1 0x24 PUSH1 0x0 REVERT JUMPDEST PUSH1 0x0 PUSH1 0xFF DUP3 AND PUSH1 0xFF DUP2 SUB PUSH2 0x2865 JUMPI PUSH2 0x2865 PUSH2 0x234E JUMP JUMPDEST PUSH1 0x1 ADD SWAP3 SWAP2 POP POP JUMP JUMPDEST PUSH1 0x0 DUP2 PUSH2 0x287D JUMPI PUSH2 0x287D PUSH2 0x234E JUMP JUMPDEST POP PUSH1 0x0 NOT ADD SWAP1 JUMP JUMPDEST PUSH1 0xFF DUP2 DUP2 AND DUP4 DUP3 AND ADD SWAP1 DUP2 GT ISZERO PUSH2 0x510 JUMPI PUSH2 0x510 PUSH2 0x234E JUMP JUMPDEST PUSH1 0xFF DUP3 DUP2 AND DUP3 DUP3 AND SUB SWAP1 DUP2 GT ISZERO PUSH2 0x510 JUMPI PUSH2 0x510 PUSH2 0x234E JUMP JUMPDEST PUSH1 0x0 PUSH1 0x1 DUP3 ADD PUSH2 0x28C9 JUMPI PUSH2 0x28C9 PUSH2 0x234E JUMP JUMPDEST POP PUSH1 0x1 ADD SWAP1 JUMP JUMPDEST PUSH2 0xFFFF DUP2 DUP2 AND DUP4 DUP3 AND ADD SWAP1 DUP1 DUP3 GT ISZERO PUSH2 0x28EB JUMPI PUSH2 0x28EB PUSH2 0x234E JUMP JUMPDEST POP SWAP3 SWAP2 POP POP JUMP JUMPDEST PUSH2 0xFFFF DUP3 DUP2 AND DUP3 DUP3 AND SUB SWAP1 DUP1 DUP3 GT ISZERO PUSH2 0x28EB JUMPI PUSH2 0x28EB PUSH2 0x234E JUMP JUMPDEST PUSH1 0x0 PUSH2 0xFFFF DUP1 DUP5 AND DUP1 PUSH2 0x2922 JUMPI PUSH2 0x2922 PUSH2 0x23A1 JUMP JUMPDEST SWAP3 AND SWAP2 SWAP1 SWAP2 MOD SWAP3 SWAP2 POP POP JUMP INVALID COINBASE TIMESTAMP NUMBER PREVRANDAO GASLIMIT CHAINID SELFBALANCE BASEFEE BLOBHASH BLOBBASEFEE 0x4B 0x4C 0x4D 0x4E 0x4F POP MLOAD MSTORE MSTORE8 SLOAD SSTORE JUMP JUMPI PC MSIZE GAS PUSH2 0x6263 PUSH5 0x6566676869 PUSH11 0x6B6C6D6E6F707172737475 PUSH23 0x7778797A303132333435363738392B2FA2646970667358 0x22 SLT KECCAK256 GAS SMOD 0x4F 0x1E BLOBHASH DUP16 CALLDATASIZE CREATE PUSH24 0xD87DD6EE39D2F69BCE13749F7555E8640D6B7D2EF1D03864 PUSH20 0x6F6C634300081900330000000000000000000000 "},"methodIdentifiers":{"GENESIS_PRICE()":"b85f3fb8","GENESIS_SUPPLY()":"99ec6765","MAX_ROYALTY_BPS()":"3dca40e6","approve(address,uint256)":"095ea7b3","balanceOf(address)":"70a08231","getApproved(uint256)":"081812fc","isApprovedForAll(address,address)":"e985e9c5","mint()":"1249c58b","name()":"06fdde03","owner()":"8da5cb5b","ownerOf(uint256)":"6352211e","renderer()":"8ada6b0f","renounceOwnership()":"715018a6","royaltyInfo(uint256,uint256)":"2a55205a","safeTransferFrom(address,address,uint256)":"42842e0e","safeTransferFrom(address,address,uint256,bytes)":"b88d4fde","setApprovalForAll(address,bool)":"a22cb465","setRoyalty(address,uint96)":"8f2fc60b","supportsInterface(bytes4)":"01ffc9a7","symbol()":"95d89b41","tokenURI(uint256)":"c87b56dd","totalSupply()":"18160ddd","transferFrom(address,address,uint256)":"23b872dd","transferOwnership(address)":"f2fde38b","treasury()":"61d027b3","withdraw()":"3ccfd60b"}}}}}