{"contracts/FullMandalaRenderer.sol":{"FullMandalaRenderer":{"abi":[{"inputs":[{"internalType":"address","name":"storageAddr","type":"address"}],"stateMutability":"nonpayable","type":"constructor"},{"inputs":[{"internalType":"bytes32","name":"hash","type":"bytes32"}],"name":"svg","outputs":[{"internalType":"string","name":"","type":"string"}],"stateMutability":"view","type":"function"}],"evm":{"bytecode":{"linkReferences":{},"object":"60a0604052348015600f57600080fd5b50604051610dc7380380610dc7833981016040819052602c91603c565b6001600160a01b0316608052606a565b600060208284031215604d57600080fd5b81516001600160a01b0381168114606357600080fd5b9392505050565b608051610d2e610099600039600081816095015281816102eb0152818161057001526106ee0152610d2e6000f3fe608060405234801561001057600080fd5b506004361061002b5760003560e01c8063042b154a14610030575b600080fd5b61004361003e366004610a7b565b610059565b6040516100509190610ab8565b60405180910390f35b6040805161040e8082526181e0820190925260609160009190816020015b606081526020019060019003908161007757905050905060008060007f00000000000000000000000000000000000000000000000000000000000000006001600160a01b0316638f7dcfa36040518163ffffffff1660e01b8152600401600060405180830381865afa1580156100f1573d6000803e3d6000fd5b505050506040513d6000823e601f3d908101601f191682016040526101199190810190610b01565b905080848461012781610bc4565b95508151811061013957610139610bdd565b60200260200101819052508051826101519190610bf3565b915060005b60408110156105455760006101756101706115f984610c06565b610883565b905060405180604001604052806015815260200174078ce40e8e4c2dce6ccdee4da7a44e4dee8c2e8ca5605b1b8152508686806101b190610bc4565b9750815181106101c3576101c3610bdd565b602002602001018190525060405180604001604052806015815260200174078ce40e8e4c2dce6ccdee4da7a44e4dee8c2e8ca5605b1b81525051846102089190610bf3565b935080868661021681610bc4565b97508151811061022857610228610bdd565b60200260200101819052508051846102409190610bf3565b93506040518060400160405280600b81526020016a101a9899101a989914911f60a91b81525086868061027290610bc4565b97508151811061028457610284610bdd565b60200260200101819052506040518060400160405280600b81526020016a101a9899101a989914911f60a91b81525051846102bf9190610bf3565b935060005b60048160ff1610156104cd57604051633c8c014d60e01b815260ff821660048201526000907f00000000000000000000000000000000000000000000000000000000000000006001600160a01b031690633c8c014d90602401600060405180830381865afa15801561033a573d6000803e3d6000fd5b505050506040513d6000823e601f3d908101601f191682016040526103629190810190610b01565b90506000600160ff841661037787603f610c1d565b610382906004610c06565b61038c9190610bf3565b8c901c161590506000816103bf576040518060400160405280600781526020016611b3333333333360c91b8152506103e0565b604051806040016040528060078152602001660233030303030360cc1b8152505b9050828a8a6103ee81610bc4565b9b508151811061040057610400610bdd565b60200260200101819052508251886104189190610bf3565b9750808a8a61042681610bc4565b9b508151811061043857610438610bdd565b602090810291909101015261044e600789610bf3565b97506040518060400160405280600381526020016211179f60e91b8152508a8a8061047890610bc4565b9b508151811061048a5761048a610bdd565b60200260200101819052506040518060400160405280600381526020016211179f60e91b81525051886104bd9190610bf3565b97505050508060010190506102c4565b506040805180820190915260048152631e17b39f60e11b602082015286866104f481610bc4565b97508151811061050657610506610bdd565b6020026020010181905250604051806040016040528060048152602001631e17b39f60e11b815250518461053a9190610bf3565b935050600101610156565b5060005b60048160ff1610156106e957604051635edb483160e11b815260ff821660048201526000907f00000000000000000000000000000000000000000000000000000000000000006001600160a01b03169063bdb6906290602401600060405180830381865afa1580156105bf573d6000803e3d6000fd5b505050506040513d6000823e601f3d908101601f191682016040526105e79190810190610b01565b905060006105f5898461092d565b905081878761060381610bc4565b98508151811061061557610615610bdd565b602002602001018190525081518561062d9190610bf3565b945080878761063b81610bc4565b98508151811061064d5761064d610bdd565b6020908102919091010152610663601086610bf3565b9450604051806040016040528060078152602001661e17ba32bc3a1f60c91b81525087878061069190610bc4565b9850815181106106a3576106a3610bdd565b6020026020010181905250604051806040016040528060078152602001661e17ba32bc3a1f60c91b81525051856106da9190610bf3565b94505050806001019050610549565b5060007f00000000000000000000000000000000000000000000000000000000000000006001600160a01b03166313d8c8406040518163ffffffff1660e01b8152600401600060405180830381865afa15801561074a573d6000803e3d6000fd5b505050506040513d6000823e601f3d908101601f191682016040526107729190810190610b01565b905080858561078081610bc4565b96508151811061079257610792610bdd565b60200260200101819052508051836107aa9190610bf3565b925060008367ffffffffffffffff8111156107c7576107c7610aeb565b6040519080825280601f01601f1916602001820160405280156107f1576020820181803683370190505b5090506000805b875181101561087557600088828151811061081557610815610bdd565b602002602001015190506000815190508060000361083457505061086d565b8360208601016020830160005b83811015610859578181015183820152602001610841565b50505080846108689190610bf3565b935050505b6001016107f8565b509098975050505050505050565b606060006108936103e884610c46565b905060006108a36103e885610c5a565b9050806000036108be576108b6826109cc565b949350505050565b60035b6108cc600a83610c5a565b6000036108f0576108de600a83610c46565b91506108e981610c6e565b90506108c1565b6108f9836109cc565b61090383836109d5565b604051602001610914929190610c8b565b6040516020818303038152906040529350505050919050565b6040805160108082528183019092526060916000919060208201818036833701905050905060005b60108160ff1610156109c257600f60ff6004601087028401603f03021686901c16600a8110610985576057610988565b60305b810160f81b838360ff16815181106109a2576109a2610bdd565b60200101906001600160f81b031916908160001a90535050600101610955565b5090505b92915050565b60606109c68260005b60605b60008260ff1611806109ea5750600083115b15610a53576109fa600a84610c5a565b610a05906030610bf3565b60f81b81604051602001610a1a929190610cc7565b60408051601f198184030181529190529050610a37600a84610c46565b925060ff821615610a4e57610a4b82610c6e565b91505b6109d8565b80516000036109c657506040805180820190915260018152600360fc1b602082015292915050565b600060208284031215610a8d57600080fd5b5035919050565b60005b83811015610aaf578181015183820152602001610a97565b50506000910152565b6020815260008251806020840152610ad7816040850160208701610a94565b601f01601f19169190910160400192915050565b634e487b7160e01b600052604160045260246000fd5b600060208284031215610b1357600080fd5b815167ffffffffffffffff80821115610b2b57600080fd5b818401915084601f830112610b3f57600080fd5b815181811115610b5157610b51610aeb565b604051601f8201601f19908116603f01168101908382118183101715610b7957610b79610aeb565b81604052828152876020848701011115610b9257600080fd5b610ba3836020830160208801610a94565b979650505050505050565b634e487b7160e01b600052601160045260246000fd5b600060018201610bd657610bd6610bae565b5060010190565b634e487b7160e01b600052603260045260246000fd5b808201808211156109c6576109c6610bae565b80820281158282048414176109c6576109c6610bae565b818103818111156109c6576109c6610bae565b634e487b7160e01b600052601260045260246000fd5b600082610c5557610c55610c30565b500490565b600082610c6957610c69610c30565b500690565b600060ff821680610c8157610c81610bae565b6000190192915050565b60008351610c9d818460208801610a94565b601760f91b9083019081528351610cbb816001840160208801610a94565b01600101949350505050565b6001600160f81b0319831681528151600090610cea816001850160208701610a94565b91909101600101939250505056fea2646970667358221220a06017fe464741a810eba06b699701f612c61355306b374455487e759e10940164736f6c63430008190033","opcodes":"PUSH1 0xA0 PUSH1 0x40 MSTORE CALLVALUE DUP1 ISZERO PUSH1 0xF JUMPI PUSH1 0x0 DUP1 REVERT JUMPDEST POP PUSH1 0x40 MLOAD PUSH2 0xDC7 CODESIZE SUB DUP1 PUSH2 0xDC7 DUP4 CODECOPY DUP2 ADD PUSH1 0x40 DUP2 SWAP1 MSTORE PUSH1 0x2C SWAP2 PUSH1 0x3C JUMP JUMPDEST PUSH1 0x1 PUSH1 0x1 PUSH1 0xA0 SHL SUB AND PUSH1 0x80 MSTORE PUSH1 0x6A JUMP JUMPDEST PUSH1 0x0 PUSH1 0x20 DUP3 DUP5 SUB SLT ISZERO PUSH1 0x4D JUMPI PUSH1 0x0 DUP1 REVERT JUMPDEST DUP2 MLOAD PUSH1 0x1 PUSH1 0x1 PUSH1 0xA0 SHL SUB DUP2 AND DUP2 EQ PUSH1 0x63 JUMPI PUSH1 0x0 DUP1 REVERT JUMPDEST SWAP4 SWAP3 POP POP POP JUMP JUMPDEST PUSH1 0x80 MLOAD PUSH2 0xD2E PUSH2 0x99 PUSH1 0x0 CODECOPY PUSH1 0x0 DUP2 DUP2 PUSH1 0x95 ADD MSTORE DUP2 DUP2 PUSH2 0x2EB ADD MSTORE DUP2 DUP2 PUSH2 0x570 ADD MSTORE PUSH2 0x6EE ADD MSTORE PUSH2 0xD2E PUSH1 0x0 RETURN INVALID PUSH1 0x80 PUSH1 0x40 MSTORE CALLVALUE DUP1 ISZERO PUSH2 0x10 JUMPI PUSH1 0x0 DUP1 REVERT JUMPDEST POP PUSH1 0x4 CALLDATASIZE LT PUSH2 0x2B JUMPI PUSH1 0x0 CALLDATALOAD PUSH1 0xE0 SHR DUP1 PUSH4 0x42B154A EQ PUSH2 0x30 JUMPI JUMPDEST PUSH1 0x0 DUP1 REVERT JUMPDEST PUSH2 0x43 PUSH2 0x3E CALLDATASIZE PUSH1 0x4 PUSH2 0xA7B JUMP JUMPDEST PUSH2 0x59 JUMP JUMPDEST PUSH1 0x40 MLOAD PUSH2 0x50 SWAP2 SWAP1 PUSH2 0xAB8 JUMP JUMPDEST PUSH1 0x40 MLOAD DUP1 SWAP2 SUB SWAP1 RETURN JUMPDEST PUSH1 0x40 DUP1 MLOAD PUSH2 0x40E DUP1 DUP3 MSTORE PUSH2 0x81E0 DUP3 ADD SWAP1 SWAP3 MSTORE PUSH1 0x60 SWAP2 PUSH1 0x0 SWAP2 SWAP1 DUP2 PUSH1 0x20 ADD JUMPDEST PUSH1 0x60 DUP2 MSTORE PUSH1 0x20 ADD SWAP1 PUSH1 0x1 SWAP1 SUB SWAP1 DUP2 PUSH2 0x77 JUMPI SWAP1 POP POP SWAP1 POP PUSH1 0x0 DUP1 PUSH1 0x0 PUSH32 0x0 PUSH1 0x1 PUSH1 0x1 PUSH1 0xA0 SHL SUB AND PUSH4 0x8F7DCFA3 PUSH1 0x40 MLOAD DUP2 PUSH4 0xFFFFFFFF AND PUSH1 0xE0 SHL DUP2 MSTORE PUSH1 0x4 ADD PUSH1 0x0 PUSH1 0x40 MLOAD DUP1 DUP4 SUB DUP2 DUP7 GAS STATICCALL ISZERO DUP1 ISZERO PUSH2 0xF1 JUMPI RETURNDATASIZE PUSH1 0x0 DUP1 RETURNDATACOPY RETURNDATASIZE PUSH1 0x0 REVERT JUMPDEST POP POP POP POP PUSH1 0x40 MLOAD RETURNDATASIZE PUSH1 0x0 DUP3 RETURNDATACOPY PUSH1 0x1F RETURNDATASIZE SWAP1 DUP2 ADD PUSH1 0x1F NOT AND DUP3 ADD PUSH1 0x40 MSTORE PUSH2 0x119 SWAP2 SWAP1 DUP2 ADD SWAP1 PUSH2 0xB01 JUMP JUMPDEST SWAP1 POP DUP1 DUP5 DUP5 PUSH2 0x127 DUP2 PUSH2 0xBC4 JUMP JUMPDEST SWAP6 POP DUP2 MLOAD DUP2 LT PUSH2 0x139 JUMPI PUSH2 0x139 PUSH2 0xBDD JUMP JUMPDEST PUSH1 0x20 MUL PUSH1 0x20 ADD ADD DUP2 SWAP1 MSTORE POP DUP1 MLOAD DUP3 PUSH2 0x151 SWAP2 SWAP1 PUSH2 0xBF3 JUMP JUMPDEST SWAP2 POP PUSH1 0x0 JUMPDEST PUSH1 0x40 DUP2 LT ISZERO PUSH2 0x545 JUMPI PUSH1 0x0 PUSH2 0x175 PUSH2 0x170 PUSH2 0x15F9 DUP5 PUSH2 0xC06 JUMP JUMPDEST PUSH2 0x883 JUMP JUMPDEST SWAP1 POP PUSH1 0x40 MLOAD DUP1 PUSH1 0x40 ADD PUSH1 0x40 MSTORE DUP1 PUSH1 0x15 DUP2 MSTORE PUSH1 0x20 ADD PUSH21 0x78CE40E8E4C2DCE6CCDEE4DA7A44E4DEE8C2E8CA5 PUSH1 0x5B SHL DUP2 MSTORE POP DUP7 DUP7 DUP1 PUSH2 0x1B1 SWAP1 PUSH2 0xBC4 JUMP JUMPDEST SWAP8 POP DUP2 MLOAD DUP2 LT PUSH2 0x1C3 JUMPI PUSH2 0x1C3 PUSH2 0xBDD JUMP JUMPDEST PUSH1 0x20 MUL PUSH1 0x20 ADD ADD DUP2 SWAP1 MSTORE POP PUSH1 0x40 MLOAD DUP1 PUSH1 0x40 ADD PUSH1 0x40 MSTORE DUP1 PUSH1 0x15 DUP2 MSTORE PUSH1 0x20 ADD PUSH21 0x78CE40E8E4C2DCE6CCDEE4DA7A44E4DEE8C2E8CA5 PUSH1 0x5B SHL DUP2 MSTORE POP MLOAD DUP5 PUSH2 0x208 SWAP2 SWAP1 PUSH2 0xBF3 JUMP JUMPDEST SWAP4 POP DUP1 DUP7 DUP7 PUSH2 0x216 DUP2 PUSH2 0xBC4 JUMP JUMPDEST SWAP8 POP DUP2 MLOAD DUP2 LT PUSH2 0x228 JUMPI PUSH2 0x228 PUSH2 0xBDD JUMP JUMPDEST PUSH1 0x20 MUL PUSH1 0x20 ADD ADD DUP2 SWAP1 MSTORE POP DUP1 MLOAD DUP5 PUSH2 0x240 SWAP2 SWAP1 PUSH2 0xBF3 JUMP JUMPDEST SWAP4 POP PUSH1 0x40 MLOAD DUP1 PUSH1 0x40 ADD PUSH1 0x40 MSTORE DUP1 PUSH1 0xB DUP2 MSTORE PUSH1 0x20 ADD PUSH11 0x101A9899101A989914911F PUSH1 0xA9 SHL DUP2 MSTORE POP DUP7 DUP7 DUP1 PUSH2 0x272 SWAP1 PUSH2 0xBC4 JUMP JUMPDEST SWAP8 POP DUP2 MLOAD DUP2 LT PUSH2 0x284 JUMPI PUSH2 0x284 PUSH2 0xBDD JUMP JUMPDEST PUSH1 0x20 MUL PUSH1 0x20 ADD ADD DUP2 SWAP1 MSTORE POP PUSH1 0x40 MLOAD DUP1 PUSH1 0x40 ADD PUSH1 0x40 MSTORE DUP1 PUSH1 0xB DUP2 MSTORE PUSH1 0x20 ADD PUSH11 0x101A9899101A989914911F PUSH1 0xA9 SHL DUP2 MSTORE POP MLOAD DUP5 PUSH2 0x2BF SWAP2 SWAP1 PUSH2 0xBF3 JUMP JUMPDEST SWAP4 POP PUSH1 0x0 JUMPDEST PUSH1 0x4 DUP2 PUSH1 0xFF AND LT ISZERO PUSH2 0x4CD JUMPI PUSH1 0x40 MLOAD PUSH4 0x3C8C014D PUSH1 0xE0 SHL DUP2 MSTORE PUSH1 0xFF DUP3 AND PUSH1 0x4 DUP3 ADD MSTORE PUSH1 0x0 SWAP1 PUSH32 0x0 PUSH1 0x1 PUSH1 0x1 PUSH1 0xA0 SHL SUB AND SWAP1 PUSH4 0x3C8C014D SWAP1 PUSH1 0x24 ADD PUSH1 0x0 PUSH1 0x40 MLOAD DUP1 DUP4 SUB DUP2 DUP7 GAS STATICCALL ISZERO DUP1 ISZERO PUSH2 0x33A JUMPI RETURNDATASIZE PUSH1 0x0 DUP1 RETURNDATACOPY RETURNDATASIZE PUSH1 0x0 REVERT JUMPDEST POP POP POP POP PUSH1 0x40 MLOAD RETURNDATASIZE PUSH1 0x0 DUP3 RETURNDATACOPY PUSH1 0x1F RETURNDATASIZE SWAP1 DUP2 ADD PUSH1 0x1F NOT AND DUP3 ADD PUSH1 0x40 MSTORE PUSH2 0x362 SWAP2 SWAP1 DUP2 ADD SWAP1 PUSH2 0xB01 JUMP JUMPDEST SWAP1 POP PUSH1 0x0 PUSH1 0x1 PUSH1 0xFF DUP5 AND PUSH2 0x377 DUP8 PUSH1 0x3F PUSH2 0xC1D JUMP JUMPDEST PUSH2 0x382 SWAP1 PUSH1 0x4 PUSH2 0xC06 JUMP JUMPDEST PUSH2 0x38C SWAP2 SWAP1 PUSH2 0xBF3 JUMP JUMPDEST DUP13 SWAP1 SHR AND ISZERO SWAP1 POP PUSH1 0x0 DUP2 PUSH2 0x3BF JUMPI PUSH1 0x40 MLOAD DUP1 PUSH1 0x40 ADD PUSH1 0x40 MSTORE DUP1 PUSH1 0x7 DUP2 MSTORE PUSH1 0x20 ADD PUSH7 0x11B33333333333 PUSH1 0xC9 SHL DUP2 MSTORE POP PUSH2 0x3E0 JUMP JUMPDEST PUSH1 0x40 MLOAD DUP1 PUSH1 0x40 ADD PUSH1 0x40 MSTORE DUP1 PUSH1 0x7 DUP2 MSTORE PUSH1 0x20 ADD PUSH7 0x2330303030303 PUSH1 0xCC SHL DUP2 MSTORE POP JUMPDEST SWAP1 POP DUP3 DUP11 DUP11 PUSH2 0x3EE DUP2 PUSH2 0xBC4 JUMP JUMPDEST SWAP12 POP DUP2 MLOAD DUP2 LT PUSH2 0x400 JUMPI PUSH2 0x400 PUSH2 0xBDD JUMP JUMPDEST PUSH1 0x20 MUL PUSH1 0x20 ADD ADD DUP2 SWAP1 MSTORE POP DUP3 MLOAD DUP9 PUSH2 0x418 SWAP2 SWAP1 PUSH2 0xBF3 JUMP JUMPDEST SWAP8 POP DUP1 DUP11 DUP11 PUSH2 0x426 DUP2 PUSH2 0xBC4 JUMP JUMPDEST SWAP12 POP DUP2 MLOAD DUP2 LT PUSH2 0x438 JUMPI PUSH2 0x438 PUSH2 0xBDD JUMP JUMPDEST PUSH1 0x20 SWAP1 DUP2 MUL SWAP2 SWAP1 SWAP2 ADD ADD MSTORE PUSH2 0x44E PUSH1 0x7 DUP10 PUSH2 0xBF3 JUMP JUMPDEST SWAP8 POP PUSH1 0x40 MLOAD DUP1 PUSH1 0x40 ADD PUSH1 0x40 MSTORE DUP1 PUSH1 0x3 DUP2 MSTORE PUSH1 0x20 ADD PUSH3 0x11179F PUSH1 0xE9 SHL DUP2 MSTORE POP DUP11 DUP11 DUP1 PUSH2 0x478 SWAP1 PUSH2 0xBC4 JUMP JUMPDEST SWAP12 POP DUP2 MLOAD DUP2 LT PUSH2 0x48A JUMPI PUSH2 0x48A PUSH2 0xBDD JUMP JUMPDEST PUSH1 0x20 MUL PUSH1 0x20 ADD ADD DUP2 SWAP1 MSTORE POP PUSH1 0x40 MLOAD DUP1 PUSH1 0x40 ADD PUSH1 0x40 MSTORE DUP1 PUSH1 0x3 DUP2 MSTORE PUSH1 0x20 ADD PUSH3 0x11179F PUSH1 0xE9 SHL DUP2 MSTORE POP MLOAD DUP9 PUSH2 0x4BD SWAP2 SWAP1 PUSH2 0xBF3 JUMP JUMPDEST SWAP8 POP POP POP POP DUP1 PUSH1 0x1 ADD SWAP1 POP PUSH2 0x2C4 JUMP JUMPDEST POP PUSH1 0x40 DUP1 MLOAD DUP1 DUP3 ADD SWAP1 SWAP2 MSTORE PUSH1 0x4 DUP2 MSTORE PUSH4 0x1E17B39F PUSH1 0xE1 SHL PUSH1 0x20 DUP3 ADD MSTORE DUP7 DUP7 PUSH2 0x4F4 DUP2 PUSH2 0xBC4 JUMP JUMPDEST SWAP8 POP DUP2 MLOAD DUP2 LT PUSH2 0x506 JUMPI PUSH2 0x506 PUSH2 0xBDD JUMP JUMPDEST PUSH1 0x20 MUL PUSH1 0x20 ADD ADD DUP2 SWAP1 MSTORE POP PUSH1 0x40 MLOAD DUP1 PUSH1 0x40 ADD PUSH1 0x40 MSTORE DUP1 PUSH1 0x4 DUP2 MSTORE PUSH1 0x20 ADD PUSH4 0x1E17B39F PUSH1 0xE1 SHL DUP2 MSTORE POP MLOAD DUP5 PUSH2 0x53A SWAP2 SWAP1 PUSH2 0xBF3 JUMP JUMPDEST SWAP4 POP POP PUSH1 0x1 ADD PUSH2 0x156 JUMP JUMPDEST POP PUSH1 0x0 JUMPDEST PUSH1 0x4 DUP2 PUSH1 0xFF AND LT ISZERO PUSH2 0x6E9 JUMPI PUSH1 0x40 MLOAD PUSH4 0x5EDB4831 PUSH1 0xE1 SHL DUP2 MSTORE PUSH1 0xFF DUP3 AND PUSH1 0x4 DUP3 ADD MSTORE PUSH1 0x0 SWAP1 PUSH32 0x0 PUSH1 0x1 PUSH1 0x1 PUSH1 0xA0 SHL SUB AND SWAP1 PUSH4 0xBDB69062 SWAP1 PUSH1 0x24 ADD PUSH1 0x0 PUSH1 0x40 MLOAD DUP1 DUP4 SUB DUP2 DUP7 GAS STATICCALL ISZERO DUP1 ISZERO PUSH2 0x5BF JUMPI RETURNDATASIZE PUSH1 0x0 DUP1 RETURNDATACOPY RETURNDATASIZE PUSH1 0x0 REVERT JUMPDEST POP POP POP POP PUSH1 0x40 MLOAD RETURNDATASIZE PUSH1 0x0 DUP3 RETURNDATACOPY PUSH1 0x1F RETURNDATASIZE SWAP1 DUP2 ADD PUSH1 0x1F NOT AND DUP3 ADD PUSH1 0x40 MSTORE PUSH2 0x5E7 SWAP2 SWAP1 DUP2 ADD SWAP1 PUSH2 0xB01 JUMP JUMPDEST SWAP1 POP PUSH1 0x0 PUSH2 0x5F5 DUP10 DUP5 PUSH2 0x92D JUMP JUMPDEST SWAP1 POP DUP2 DUP8 DUP8 PUSH2 0x603 DUP2 PUSH2 0xBC4 JUMP JUMPDEST SWAP9 POP DUP2 MLOAD DUP2 LT PUSH2 0x615 JUMPI PUSH2 0x615 PUSH2 0xBDD JUMP JUMPDEST PUSH1 0x20 MUL PUSH1 0x20 ADD ADD DUP2 SWAP1 MSTORE POP DUP2 MLOAD DUP6 PUSH2 0x62D SWAP2 SWAP1 PUSH2 0xBF3 JUMP JUMPDEST SWAP5 POP DUP1 DUP8 DUP8 PUSH2 0x63B DUP2 PUSH2 0xBC4 JUMP JUMPDEST SWAP9 POP DUP2 MLOAD DUP2 LT PUSH2 0x64D JUMPI PUSH2 0x64D PUSH2 0xBDD JUMP JUMPDEST PUSH1 0x20 SWAP1 DUP2 MUL SWAP2 SWAP1 SWAP2 ADD ADD MSTORE PUSH2 0x663 PUSH1 0x10 DUP7 PUSH2 0xBF3 JUMP JUMPDEST SWAP5 POP PUSH1 0x40 MLOAD DUP1 PUSH1 0x40 ADD PUSH1 0x40 MSTORE DUP1 PUSH1 0x7 DUP2 MSTORE PUSH1 0x20 ADD PUSH7 0x1E17BA32BC3A1F PUSH1 0xC9 SHL DUP2 MSTORE POP DUP8 DUP8 DUP1 PUSH2 0x691 SWAP1 PUSH2 0xBC4 JUMP JUMPDEST SWAP9 POP DUP2 MLOAD DUP2 LT PUSH2 0x6A3 JUMPI PUSH2 0x6A3 PUSH2 0xBDD JUMP JUMPDEST PUSH1 0x20 MUL PUSH1 0x20 ADD ADD DUP2 SWAP1 MSTORE POP PUSH1 0x40 MLOAD DUP1 PUSH1 0x40 ADD PUSH1 0x40 MSTORE DUP1 PUSH1 0x7 DUP2 MSTORE PUSH1 0x20 ADD PUSH7 0x1E17BA32BC3A1F PUSH1 0xC9 SHL DUP2 MSTORE POP MLOAD DUP6 PUSH2 0x6DA SWAP2 SWAP1 PUSH2 0xBF3 JUMP JUMPDEST SWAP5 POP POP POP DUP1 PUSH1 0x1 ADD SWAP1 POP PUSH2 0x549 JUMP JUMPDEST POP PUSH1 0x0 PUSH32 0x0 PUSH1 0x1 PUSH1 0x1 PUSH1 0xA0 SHL SUB AND PUSH4 0x13D8C840 PUSH1 0x40 MLOAD DUP2 PUSH4 0xFFFFFFFF AND PUSH1 0xE0 SHL DUP2 MSTORE PUSH1 0x4 ADD PUSH1 0x0 PUSH1 0x40 MLOAD DUP1 DUP4 SUB DUP2 DUP7 GAS STATICCALL ISZERO DUP1 ISZERO PUSH2 0x74A JUMPI RETURNDATASIZE PUSH1 0x0 DUP1 RETURNDATACOPY RETURNDATASIZE PUSH1 0x0 REVERT JUMPDEST POP POP POP POP PUSH1 0x40 MLOAD RETURNDATASIZE PUSH1 0x0 DUP3 RETURNDATACOPY PUSH1 0x1F RETURNDATASIZE SWAP1 DUP2 ADD PUSH1 0x1F NOT AND DUP3 ADD PUSH1 0x40 MSTORE PUSH2 0x772 SWAP2 SWAP1 DUP2 ADD SWAP1 PUSH2 0xB01 JUMP JUMPDEST SWAP1 POP DUP1 DUP6 DUP6 PUSH2 0x780 DUP2 PUSH2 0xBC4 JUMP JUMPDEST SWAP7 POP DUP2 MLOAD DUP2 LT PUSH2 0x792 JUMPI PUSH2 0x792 PUSH2 0xBDD JUMP JUMPDEST PUSH1 0x20 MUL PUSH1 0x20 ADD ADD DUP2 SWAP1 MSTORE POP DUP1 MLOAD DUP4 PUSH2 0x7AA SWAP2 SWAP1 PUSH2 0xBF3 JUMP JUMPDEST SWAP3 POP PUSH1 0x0 DUP4 PUSH8 0xFFFFFFFFFFFFFFFF DUP2 GT ISZERO PUSH2 0x7C7 JUMPI PUSH2 0x7C7 PUSH2 0xAEB JUMP JUMPDEST PUSH1 0x40 MLOAD SWAP1 DUP1 DUP3 MSTORE DUP1 PUSH1 0x1F ADD PUSH1 0x1F NOT AND PUSH1 0x20 ADD DUP3 ADD PUSH1 0x40 MSTORE DUP1 ISZERO PUSH2 0x7F1 JUMPI PUSH1 0x20 DUP3 ADD DUP2 DUP1 CALLDATASIZE DUP4 CALLDATACOPY ADD SWAP1 POP JUMPDEST POP SWAP1 POP PUSH1 0x0 DUP1 JUMPDEST DUP8 MLOAD DUP2 LT ISZERO PUSH2 0x875 JUMPI PUSH1 0x0 DUP9 DUP3 DUP2 MLOAD DUP2 LT PUSH2 0x815 JUMPI PUSH2 0x815 PUSH2 0xBDD JUMP JUMPDEST PUSH1 0x20 MUL PUSH1 0x20 ADD ADD MLOAD SWAP1 POP PUSH1 0x0 DUP2 MLOAD SWAP1 POP DUP1 PUSH1 0x0 SUB PUSH2 0x834 JUMPI POP POP PUSH2 0x86D JUMP JUMPDEST DUP4 PUSH1 0x20 DUP7 ADD ADD PUSH1 0x20 DUP4 ADD PUSH1 0x0 JUMPDEST DUP4 DUP2 LT ISZERO PUSH2 0x859 JUMPI DUP2 DUP2 ADD MLOAD DUP4 DUP3 ADD MSTORE PUSH1 0x20 ADD PUSH2 0x841 JUMP JUMPDEST POP POP POP DUP1 DUP5 PUSH2 0x868 SWAP2 SWAP1 PUSH2 0xBF3 JUMP JUMPDEST SWAP4 POP POP POP JUMPDEST PUSH1 0x1 ADD PUSH2 0x7F8 JUMP JUMPDEST POP SWAP1 SWAP9 SWAP8 POP POP POP POP POP POP POP POP JUMP JUMPDEST PUSH1 0x60 PUSH1 0x0 PUSH2 0x893 PUSH2 0x3E8 DUP5 PUSH2 0xC46 JUMP JUMPDEST SWAP1 POP PUSH1 0x0 PUSH2 0x8A3 PUSH2 0x3E8 DUP6 PUSH2 0xC5A JUMP JUMPDEST SWAP1 POP DUP1 PUSH1 0x0 SUB PUSH2 0x8BE JUMPI PUSH2 0x8B6 DUP3 PUSH2 0x9CC JUMP JUMPDEST SWAP5 SWAP4 POP POP POP POP JUMP JUMPDEST PUSH1 0x3 JUMPDEST PUSH2 0x8CC PUSH1 0xA DUP4 PUSH2 0xC5A JUMP JUMPDEST PUSH1 0x0 SUB PUSH2 0x8F0 JUMPI PUSH2 0x8DE PUSH1 0xA DUP4 PUSH2 0xC46 JUMP JUMPDEST SWAP2 POP PUSH2 0x8E9 DUP2 PUSH2 0xC6E JUMP JUMPDEST SWAP1 POP PUSH2 0x8C1 JUMP JUMPDEST PUSH2 0x8F9 DUP4 PUSH2 0x9CC JUMP JUMPDEST PUSH2 0x903 DUP4 DUP4 PUSH2 0x9D5 JUMP JUMPDEST PUSH1 0x40 MLOAD PUSH1 0x20 ADD PUSH2 0x914 SWAP3 SWAP2 SWAP1 PUSH2 0xC8B JUMP JUMPDEST PUSH1 0x40 MLOAD PUSH1 0x20 DUP2 DUP4 SUB SUB DUP2 MSTORE SWAP1 PUSH1 0x40 MSTORE SWAP4 POP POP POP POP SWAP2 SWAP1 POP JUMP JUMPDEST PUSH1 0x40 DUP1 MLOAD PUSH1 0x10 DUP1 DUP3 MSTORE DUP2 DUP4 ADD SWAP1 SWAP3 MSTORE PUSH1 0x60 SWAP2 PUSH1 0x0 SWAP2 SWAP1 PUSH1 0x20 DUP3 ADD DUP2 DUP1 CALLDATASIZE DUP4 CALLDATACOPY ADD SWAP1 POP POP SWAP1 POP PUSH1 0x0 JUMPDEST PUSH1 0x10 DUP2 PUSH1 0xFF AND LT ISZERO PUSH2 0x9C2 JUMPI PUSH1 0xF PUSH1 0xFF PUSH1 0x4 PUSH1 0x10 DUP8 MUL DUP5 ADD PUSH1 0x3F SUB MUL AND DUP7 SWAP1 SHR AND PUSH1 0xA DUP2 LT PUSH2 0x985 JUMPI PUSH1 0x57 PUSH2 0x988 JUMP JUMPDEST PUSH1 0x30 JUMPDEST DUP2 ADD PUSH1 0xF8 SHL DUP4 DUP4 PUSH1 0xFF AND DUP2 MLOAD DUP2 LT PUSH2 0x9A2 JUMPI PUSH2 0x9A2 PUSH2 0xBDD JUMP JUMPDEST PUSH1 0x20 ADD ADD SWAP1 PUSH1 0x1 PUSH1 0x1 PUSH1 0xF8 SHL SUB NOT AND SWAP1 DUP2 PUSH1 0x0 BYTE SWAP1 MSTORE8 POP POP PUSH1 0x1 ADD PUSH2 0x955 JUMP JUMPDEST POP SWAP1 POP JUMPDEST SWAP3 SWAP2 POP POP JUMP JUMPDEST PUSH1 0x60 PUSH2 0x9C6 DUP3 PUSH1 0x0 JUMPDEST PUSH1 0x60 JUMPDEST PUSH1 0x0 DUP3 PUSH1 0xFF AND GT DUP1 PUSH2 0x9EA JUMPI POP PUSH1 0x0 DUP4 GT JUMPDEST ISZERO PUSH2 0xA53 JUMPI PUSH2 0x9FA PUSH1 0xA DUP5 PUSH2 0xC5A JUMP JUMPDEST PUSH2 0xA05 SWAP1 PUSH1 0x30 PUSH2 0xBF3 JUMP JUMPDEST PUSH1 0xF8 SHL DUP2 PUSH1 0x40 MLOAD PUSH1 0x20 ADD PUSH2 0xA1A SWAP3 SWAP2 SWAP1 PUSH2 0xCC7 JUMP JUMPDEST PUSH1 0x40 DUP1 MLOAD PUSH1 0x1F NOT DUP2 DUP5 SUB ADD DUP2 MSTORE SWAP2 SWAP1 MSTORE SWAP1 POP PUSH2 0xA37 PUSH1 0xA DUP5 PUSH2 0xC46 JUMP JUMPDEST SWAP3 POP PUSH1 0xFF DUP3 AND ISZERO PUSH2 0xA4E JUMPI PUSH2 0xA4B DUP3 PUSH2 0xC6E JUMP JUMPDEST SWAP2 POP JUMPDEST PUSH2 0x9D8 JUMP JUMPDEST DUP1 MLOAD PUSH1 0x0 SUB PUSH2 0x9C6 JUMPI POP PUSH1 0x40 DUP1 MLOAD DUP1 DUP3 ADD SWAP1 SWAP2 MSTORE PUSH1 0x1 DUP2 MSTORE PUSH1 0x3 PUSH1 0xFC SHL PUSH1 0x20 DUP3 ADD MSTORE SWAP3 SWAP2 POP POP JUMP JUMPDEST PUSH1 0x0 PUSH1 0x20 DUP3 DUP5 SUB SLT ISZERO PUSH2 0xA8D JUMPI PUSH1 0x0 DUP1 REVERT JUMPDEST POP CALLDATALOAD SWAP2 SWAP1 POP JUMP JUMPDEST PUSH1 0x0 JUMPDEST DUP4 DUP2 LT ISZERO PUSH2 0xAAF JUMPI DUP2 DUP2 ADD MLOAD DUP4 DUP3 ADD MSTORE PUSH1 0x20 ADD PUSH2 0xA97 JUMP JUMPDEST POP POP PUSH1 0x0 SWAP2 ADD MSTORE JUMP JUMPDEST PUSH1 0x20 DUP2 MSTORE PUSH1 0x0 DUP3 MLOAD DUP1 PUSH1 0x20 DUP5 ADD MSTORE PUSH2 0xAD7 DUP2 PUSH1 0x40 DUP6 ADD PUSH1 0x20 DUP8 ADD PUSH2 0xA94 JUMP JUMPDEST PUSH1 0x1F ADD PUSH1 0x1F NOT AND SWAP2 SWAP1 SWAP2 ADD PUSH1 0x40 ADD SWAP3 SWAP2 POP POP JUMP JUMPDEST PUSH4 0x4E487B71 PUSH1 0xE0 SHL PUSH1 0x0 MSTORE PUSH1 0x41 PUSH1 0x4 MSTORE PUSH1 0x24 PUSH1 0x0 REVERT JUMPDEST PUSH1 0x0 PUSH1 0x20 DUP3 DUP5 SUB SLT ISZERO PUSH2 0xB13 JUMPI PUSH1 0x0 DUP1 REVERT JUMPDEST DUP2 MLOAD PUSH8 0xFFFFFFFFFFFFFFFF DUP1 DUP3 GT ISZERO PUSH2 0xB2B JUMPI PUSH1 0x0 DUP1 REVERT JUMPDEST DUP2 DUP5 ADD SWAP2 POP DUP5 PUSH1 0x1F DUP4 ADD SLT PUSH2 0xB3F JUMPI PUSH1 0x0 DUP1 REVERT JUMPDEST DUP2 MLOAD DUP2 DUP2 GT ISZERO PUSH2 0xB51 JUMPI PUSH2 0xB51 PUSH2 0xAEB JUMP JUMPDEST PUSH1 0x40 MLOAD PUSH1 0x1F DUP3 ADD PUSH1 0x1F NOT SWAP1 DUP2 AND PUSH1 0x3F ADD AND DUP2 ADD SWAP1 DUP4 DUP3 GT DUP2 DUP4 LT OR ISZERO PUSH2 0xB79 JUMPI PUSH2 0xB79 PUSH2 0xAEB JUMP JUMPDEST DUP2 PUSH1 0x40 MSTORE DUP3 DUP2 MSTORE DUP8 PUSH1 0x20 DUP5 DUP8 ADD ADD GT ISZERO PUSH2 0xB92 JUMPI PUSH1 0x0 DUP1 REVERT JUMPDEST PUSH2 0xBA3 DUP4 PUSH1 0x20 DUP4 ADD PUSH1 0x20 DUP9 ADD PUSH2 0xA94 JUMP JUMPDEST SWAP8 SWAP7 POP POP POP POP POP POP POP JUMP JUMPDEST PUSH4 0x4E487B71 PUSH1 0xE0 SHL PUSH1 0x0 MSTORE PUSH1 0x11 PUSH1 0x4 MSTORE PUSH1 0x24 PUSH1 0x0 REVERT JUMPDEST PUSH1 0x0 PUSH1 0x1 DUP3 ADD PUSH2 0xBD6 JUMPI PUSH2 0xBD6 PUSH2 0xBAE JUMP JUMPDEST POP PUSH1 0x1 ADD SWAP1 JUMP JUMPDEST PUSH4 0x4E487B71 PUSH1 0xE0 SHL PUSH1 0x0 MSTORE PUSH1 0x32 PUSH1 0x4 MSTORE PUSH1 0x24 PUSH1 0x0 REVERT JUMPDEST DUP1 DUP3 ADD DUP1 DUP3 GT ISZERO PUSH2 0x9C6 JUMPI PUSH2 0x9C6 PUSH2 0xBAE JUMP JUMPDEST DUP1 DUP3 MUL DUP2 ISZERO DUP3 DUP3 DIV DUP5 EQ OR PUSH2 0x9C6 JUMPI PUSH2 0x9C6 PUSH2 0xBAE JUMP JUMPDEST DUP2 DUP2 SUB DUP2 DUP2 GT ISZERO PUSH2 0x9C6 JUMPI PUSH2 0x9C6 PUSH2 0xBAE JUMP JUMPDEST PUSH4 0x4E487B71 PUSH1 0xE0 SHL PUSH1 0x0 MSTORE PUSH1 0x12 PUSH1 0x4 MSTORE PUSH1 0x24 PUSH1 0x0 REVERT JUMPDEST PUSH1 0x0 DUP3 PUSH2 0xC55 JUMPI PUSH2 0xC55 PUSH2 0xC30 JUMP JUMPDEST POP DIV SWAP1 JUMP JUMPDEST PUSH1 0x0 DUP3 PUSH2 0xC69 JUMPI PUSH2 0xC69 PUSH2 0xC30 JUMP JUMPDEST POP MOD SWAP1 JUMP JUMPDEST PUSH1 0x0 PUSH1 0xFF DUP3 AND DUP1 PUSH2 0xC81 JUMPI PUSH2 0xC81 PUSH2 0xBAE JUMP JUMPDEST PUSH1 0x0 NOT ADD SWAP3 SWAP2 POP POP JUMP JUMPDEST PUSH1 0x0 DUP4 MLOAD PUSH2 0xC9D DUP2 DUP5 PUSH1 0x20 DUP9 ADD PUSH2 0xA94 JUMP JUMPDEST PUSH1 0x17 PUSH1 0xF9 SHL SWAP1 DUP4 ADD SWAP1 DUP2 MSTORE DUP4 MLOAD PUSH2 0xCBB DUP2 PUSH1 0x1 DUP5 ADD PUSH1 0x20 DUP9 ADD PUSH2 0xA94 JUMP JUMPDEST ADD PUSH1 0x1 ADD SWAP5 SWAP4 POP POP POP POP JUMP JUMPDEST PUSH1 0x1 PUSH1 0x1 PUSH1 0xF8 SHL SUB NOT DUP4 AND DUP2 MSTORE DUP2 MLOAD PUSH1 0x0 SWAP1 PUSH2 0xCEA DUP2 PUSH1 0x1 DUP6 ADD PUSH1 0x20 DUP8 ADD PUSH2 0xA94 JUMP JUMPDEST SWAP2 SWAP1 SWAP2 ADD PUSH1 0x1 ADD SWAP4 SWAP3 POP POP POP JUMP INVALID LOG2 PUSH5 0x6970667358 0x22 SLT KECCAK256 LOG0 PUSH1 0x17 INVALID CHAINID SELFBALANCE COINBASE 0xA8 LT 0xEB LOG0 PUSH12 0x699701F612C61355306B3744 SSTORE BASEFEE PUSH31 0x759E10940164736F6C63430008190033000000000000000000000000000000 "},"methodIdentifiers":{"svg(bytes32)":"042b154a"}}}}}