{"contracts/HashJingSVGStorage.sol":{"HashJingSVGStorage":{"abi":[{"inputs":[],"stateMutability":"nonpayable","type":"constructor"},{"inputs":[{"internalType":"uint256","name":"_size","type":"uint256"},{"internalType":"uint256","name":"_start","type":"uint256"},{"internalType":"uint256","name":"_end","type":"uint256"}],"name":"InvalidCodeAtRange","type":"error"},{"inputs":[],"name":"WriteError","type":"error"},{"inputs":[],"name":"head","outputs":[{"internalType":"bytes","name":"","type":"bytes"}],"stateMutability":"view","type":"function"},{"inputs":[],"name":"headPtr","outputs":[{"internalType":"address","name":"","type":"address"}],"stateMutability":"view","type":"function"},{"inputs":[{"internalType":"uint256","name":"i","type":"uint256"}],"name":"prefix","outputs":[{"internalType":"bytes","name":"","type":"bytes"}],"stateMutability":"view","type":"function"},{"inputs":[{"internalType":"uint256","name":"","type":"uint256"}],"name":"prefixPtr","outputs":[{"internalType":"address","name":"","type":"address"}],"stateMutability":"view","type":"function"},{"inputs":[],"name":"tail","outputs":[{"internalType":"bytes","name":"","type":"bytes"}],"stateMutability":"view","type":"function"},{"inputs":[],"name":"tailPtr","outputs":[{"internalType":"address","name":"","type":"address"}],"stateMutability":"view","type":"function"},{"inputs":[{"internalType":"uint256","name":"i","type":"uint256"}],"name":"textPrefix","outputs":[{"internalType":"bytes","name":"","type":"bytes"}],"stateMutability":"view","type":"function"},{"inputs":[{"internalType":"uint256","name":"","type":"uint256"}],"name":"textPrefixPtr","outputs":[{"internalType":"address","name":"","type":"address"}],"stateMutability":"view","type":"function"}],"evm":{"bytecode":{"linkReferences":{},"object":"608060405234801561001057600080fd5b506100326040518060c00160405280609f8152602001610a1e609f91396102b5565b600080546001600160a01b0319166001600160a01b03929092169190911790556040805180820190915260068152651e17b9bb339f60d11b6020820152610078906102b5565b600160006101000a8154816001600160a01b0302191690836001600160a01b031602179055506100bf6040518060e0016040528060ae815260200161074460ae91396102b5565b600280546001600160a01b0319166001600160a01b03929092169190911790556040805160e0810190915260b0808252610101919061085160208301396102b5565b600380546001600160a01b0319166001600160a01b03929092169190911790556040805160e0810190915260af8082526101439190610b6b60208301396102b5565b600480546001600160a01b0319166001600160a01b03929092169190911790556040805160e0810190915260ae8082526101859190610abd60208301396102b5565b600580546001600160a01b0319166001600160a01b03929092169190911790556040805160808101909152605f8082526101c791906107f260208301396102b5565b600680546001600160a01b0319166001600160a01b03929092169190911790556040805160808101909152605f808252610209919061090160208301396102b5565b600780546001600160a01b0319166001600160a01b03929092169190911790556040805160808101909152605f80825261024b91906109bf60208301396102b5565b600880546001600160a01b0319166001600160a01b03929092169190911790556040805160808101909152605f80825261028d919061096060208301396102b5565b600660030180546001600160a01b0319166001600160a01b03929092169190911790556103d5565b6000806102e1836040516020016102cc9190610377565b60408051601f1981840301815291905261031b565b90508051602082016000f091506001600160a01b0382166103155760405163046a55db60e11b815260040160405180910390fd5b50919050565b6060815182604051602001610331929190610391565b6040516020818303038152906040529050919050565b6000815160005b81811015610368576020818501810151868301520161034e565b50600093019283525090919050565b60008152600061038a6001830184610347565b9392505050565b606360f81b815260e083901b6001600160e01b03191660018201526880600e6000396000f360b81b600582015260006103cd600e830184610347565b949350505050565b610360806103e46000396000f3fe608060405234801561001057600080fd5b50600436106100885760003560e01c8063af7856ce1161005b578063af7856ce146100f1578063bdb6906214610104578063df6bcdd514610117578063e9ce32741461012a57600080fd5b806313d8c8401461008d5780633494a75b146100ab5780633c8c014d146100d65780638f7dcfa3146100e9575b600080fd5b61009561013d565b6040516100a291906102ac565b60405180910390f35b6000546100be906001600160a01b031681565b6040516001600160a01b0390911681526020016100a2565b6100956100e43660046102fb565b61015a565b610095610188565b6100be6100ff3660046102fb565b6101a0565b6100956101123660046102fb565b6101c0565b6001546100be906001600160a01b031681565b6100be6101383660046102fb565b6101d8565b600154606090610155906001600160a01b03166101e8565b905090565b60606101826002836004811061017257610172610314565b01546001600160a01b03166101e8565b92915050565b600054606090610155906001600160a01b03166101e8565b600681600481106101b057600080fd5b01546001600160a01b0316905081565b60606101826006836004811061017257610172610314565b600281600481106101b057600080fd5b606061018282600160001984833b60008190036102155750506040805160208101909152600081526102a5565b808411156102335750506040805160208101909152600081526102a5565b838310156102695760405163162544fd60e11b815260048101829052602481018590526044810184905260640160405180910390fd5b838303848203600082821061027e5782610280565b815b60408051603f8301601f19168101909152818152955090508087602087018a3c505050505b9392505050565b60006020808352835180602085015260005b818110156102da578581018301518582016040015282016102be565b506000604082860101526040601f19601f8301168501019250505092915050565b60006020828403121561030d57600080fd5b5035919050565b634e487b7160e01b600052603260045260246000fdfea2646970667358221220e220abfb0c83ae4e6d8bd0a5e0d53fb8794e8ed337ee9c8393404ae573b5953364736f6c634300081900333c7061746820643d224d203531322031313220412034303020343030203020302031203535312e32303638353631333138323433203131332e3932363130393333313132313237204c203535392e303438323237333538313839312033342e33313133333131393733343535312041203438302034383020302030203020353132203332205a22207374726f6b653d22626c61636b22207374726f6b652d77696474683d2231222066696c6c3d223c7465787420783d223531322220793d223436352220666f6e742d73697a653d223232222066696c6c3d2277686974652220746578742d616e63686f723d226d6964646c652220666f6e742d66616d696c793d226d6f6e6f7370616365223e3c7061746820643d224d203531322031393220412033323020333230203020302031203534332e33363534383439303534353934203139332e3534303838373436343839373033204c203535312e32303638353631333138323433203131332e3932363130393333313132313237204120343030203430302030203020302035313220313132205a22207374726f6b653d22626c61636b22207374726f6b652d77696474683d2231222066696c6c3d223c7465787420783d223531322220793d223530312220666f6e742d73697a653d223232222066696c6c3d2277686974652220746578742d616e63686f723d226d6964646c652220666f6e742d66616d696c793d226d6f6e6f7370616365223e3c7465787420783d223531322220793d223537332220666f6e742d73697a653d223232222066696c6c3d2277686974652220746578742d616e63686f723d226d6964646c652220666f6e742d66616d696c793d226d6f6e6f7370616365223e3c7465787420783d223531322220793d223533372220666f6e742d73697a653d223232222066696c6c3d2277686974652220746578742d616e63686f723d226d6964646c652220666f6e742d66616d696c793d226d6f6e6f7370616365223e3c73766720786d6c6e733d22687474703a2f2f7777772e77332e6f72672f323030302f737667222076696577426f783d223020302031303234203130323422207072657365727665417370656374526174696f3d22784d6964594d6964206d656574223e3c7265637420783d22302220793d2230222077696474683d223130323422206865696768743d2231303234222066696c6c3d22626c61636b222f3e3c7061746820643d224d203531322033353220412031363020313630203020302031203532372e36383237343234353237323937203335322e37373034343337333234343835204c203533352e35323431313336373930393436203237332e31353536363535393836373237204120323430203234302030203020302035313220323732205a22207374726f6b653d22626c61636b22207374726f6b652d77696474683d2231222066696c6c3d223c7061746820643d224d203531322032373220412032343020323430203020302031203533352e35323431313336373930393436203237332e31353536363535393836373237204c203534332e33363534383439303534353934203139332e3534303838373436343839373033204120333230203332302030203020302035313220313932205a22207374726f6b653d22626c61636b22207374726f6b652d77696474683d2231222066696c6c3d22","opcodes":"PUSH1 0x80 PUSH1 0x40 MSTORE CALLVALUE DUP1 ISZERO PUSH2 0x10 JUMPI PUSH1 0x0 DUP1 REVERT JUMPDEST POP PUSH2 0x32 PUSH1 0x40 MLOAD DUP1 PUSH1 0xC0 ADD PUSH1 0x40 MSTORE DUP1 PUSH1 0x9F DUP2 MSTORE PUSH1 0x20 ADD PUSH2 0xA1E PUSH1 0x9F SWAP2 CODECOPY PUSH2 0x2B5 JUMP JUMPDEST PUSH1 0x0 DUP1 SLOAD PUSH1 0x1 PUSH1 0x1 PUSH1 0xA0 SHL SUB NOT AND PUSH1 0x1 PUSH1 0x1 PUSH1 0xA0 SHL SUB SWAP3 SWAP1 SWAP3 AND SWAP2 SWAP1 SWAP2 OR SWAP1 SSTORE PUSH1 0x40 DUP1 MLOAD DUP1 DUP3 ADD SWAP1 SWAP2 MSTORE PUSH1 0x6 DUP2 MSTORE PUSH6 0x1E17B9BB339F PUSH1 0xD1 SHL PUSH1 0x20 DUP3 ADD MSTORE PUSH2 0x78 SWAP1 PUSH2 0x2B5 JUMP JUMPDEST PUSH1 0x1 PUSH1 0x0 PUSH2 0x100 EXP DUP2 SLOAD DUP2 PUSH1 0x1 PUSH1 0x1 PUSH1 0xA0 SHL SUB MUL NOT AND SWAP1 DUP4 PUSH1 0x1 PUSH1 0x1 PUSH1 0xA0 SHL SUB AND MUL OR SWAP1 SSTORE POP PUSH2 0xBF PUSH1 0x40 MLOAD DUP1 PUSH1 0xE0 ADD PUSH1 0x40 MSTORE DUP1 PUSH1 0xAE DUP2 MSTORE PUSH1 0x20 ADD PUSH2 0x744 PUSH1 0xAE SWAP2 CODECOPY PUSH2 0x2B5 JUMP JUMPDEST PUSH1 0x2 DUP1 SLOAD PUSH1 0x1 PUSH1 0x1 PUSH1 0xA0 SHL SUB NOT AND PUSH1 0x1 PUSH1 0x1 PUSH1 0xA0 SHL SUB SWAP3 SWAP1 SWAP3 AND SWAP2 SWAP1 SWAP2 OR SWAP1 SSTORE PUSH1 0x40 DUP1 MLOAD PUSH1 0xE0 DUP2 ADD SWAP1 SWAP2 MSTORE PUSH1 0xB0 DUP1 DUP3 MSTORE PUSH2 0x101 SWAP2 SWAP1 PUSH2 0x851 PUSH1 0x20 DUP4 ADD CODECOPY PUSH2 0x2B5 JUMP JUMPDEST PUSH1 0x3 DUP1 SLOAD PUSH1 0x1 PUSH1 0x1 PUSH1 0xA0 SHL SUB NOT AND PUSH1 0x1 PUSH1 0x1 PUSH1 0xA0 SHL SUB SWAP3 SWAP1 SWAP3 AND SWAP2 SWAP1 SWAP2 OR SWAP1 SSTORE PUSH1 0x40 DUP1 MLOAD PUSH1 0xE0 DUP2 ADD SWAP1 SWAP2 MSTORE PUSH1 0xAF DUP1 DUP3 MSTORE PUSH2 0x143 SWAP2 SWAP1 PUSH2 0xB6B PUSH1 0x20 DUP4 ADD CODECOPY PUSH2 0x2B5 JUMP JUMPDEST PUSH1 0x4 DUP1 SLOAD PUSH1 0x1 PUSH1 0x1 PUSH1 0xA0 SHL SUB NOT AND PUSH1 0x1 PUSH1 0x1 PUSH1 0xA0 SHL SUB SWAP3 SWAP1 SWAP3 AND SWAP2 SWAP1 SWAP2 OR SWAP1 SSTORE PUSH1 0x40 DUP1 MLOAD PUSH1 0xE0 DUP2 ADD SWAP1 SWAP2 MSTORE PUSH1 0xAE DUP1 DUP3 MSTORE PUSH2 0x185 SWAP2 SWAP1 PUSH2 0xABD PUSH1 0x20 DUP4 ADD CODECOPY PUSH2 0x2B5 JUMP JUMPDEST PUSH1 0x5 DUP1 SLOAD PUSH1 0x1 PUSH1 0x1 PUSH1 0xA0 SHL SUB NOT AND PUSH1 0x1 PUSH1 0x1 PUSH1 0xA0 SHL SUB SWAP3 SWAP1 SWAP3 AND SWAP2 SWAP1 SWAP2 OR SWAP1 SSTORE PUSH1 0x40 DUP1 MLOAD PUSH1 0x80 DUP2 ADD SWAP1 SWAP2 MSTORE PUSH1 0x5F DUP1 DUP3 MSTORE PUSH2 0x1C7 SWAP2 SWAP1 PUSH2 0x7F2 PUSH1 0x20 DUP4 ADD CODECOPY PUSH2 0x2B5 JUMP JUMPDEST PUSH1 0x6 DUP1 SLOAD PUSH1 0x1 PUSH1 0x1 PUSH1 0xA0 SHL SUB NOT AND PUSH1 0x1 PUSH1 0x1 PUSH1 0xA0 SHL SUB SWAP3 SWAP1 SWAP3 AND SWAP2 SWAP1 SWAP2 OR SWAP1 SSTORE PUSH1 0x40 DUP1 MLOAD PUSH1 0x80 DUP2 ADD SWAP1 SWAP2 MSTORE PUSH1 0x5F DUP1 DUP3 MSTORE PUSH2 0x209 SWAP2 SWAP1 PUSH2 0x901 PUSH1 0x20 DUP4 ADD CODECOPY PUSH2 0x2B5 JUMP JUMPDEST PUSH1 0x7 DUP1 SLOAD PUSH1 0x1 PUSH1 0x1 PUSH1 0xA0 SHL SUB NOT AND PUSH1 0x1 PUSH1 0x1 PUSH1 0xA0 SHL SUB SWAP3 SWAP1 SWAP3 AND SWAP2 SWAP1 SWAP2 OR SWAP1 SSTORE PUSH1 0x40 DUP1 MLOAD PUSH1 0x80 DUP2 ADD SWAP1 SWAP2 MSTORE PUSH1 0x5F DUP1 DUP3 MSTORE PUSH2 0x24B SWAP2 SWAP1 PUSH2 0x9BF PUSH1 0x20 DUP4 ADD CODECOPY PUSH2 0x2B5 JUMP JUMPDEST PUSH1 0x8 DUP1 SLOAD PUSH1 0x1 PUSH1 0x1 PUSH1 0xA0 SHL SUB NOT AND PUSH1 0x1 PUSH1 0x1 PUSH1 0xA0 SHL SUB SWAP3 SWAP1 SWAP3 AND SWAP2 SWAP1 SWAP2 OR SWAP1 SSTORE PUSH1 0x40 DUP1 MLOAD PUSH1 0x80 DUP2 ADD SWAP1 SWAP2 MSTORE PUSH1 0x5F DUP1 DUP3 MSTORE PUSH2 0x28D SWAP2 SWAP1 PUSH2 0x960 PUSH1 0x20 DUP4 ADD CODECOPY PUSH2 0x2B5 JUMP JUMPDEST PUSH1 0x6 PUSH1 0x3 ADD DUP1 SLOAD PUSH1 0x1 PUSH1 0x1 PUSH1 0xA0 SHL SUB NOT AND PUSH1 0x1 PUSH1 0x1 PUSH1 0xA0 SHL SUB SWAP3 SWAP1 SWAP3 AND SWAP2 SWAP1 SWAP2 OR SWAP1 SSTORE PUSH2 0x3D5 JUMP JUMPDEST PUSH1 0x0 DUP1 PUSH2 0x2E1 DUP4 PUSH1 0x40 MLOAD PUSH1 0x20 ADD PUSH2 0x2CC SWAP2 SWAP1 PUSH2 0x377 JUMP JUMPDEST PUSH1 0x40 DUP1 MLOAD PUSH1 0x1F NOT DUP2 DUP5 SUB ADD DUP2 MSTORE SWAP2 SWAP1 MSTORE PUSH2 0x31B JUMP JUMPDEST SWAP1 POP DUP1 MLOAD PUSH1 0x20 DUP3 ADD PUSH1 0x0 CREATE SWAP2 POP PUSH1 0x1 PUSH1 0x1 PUSH1 0xA0 SHL SUB DUP3 AND PUSH2 0x315 JUMPI PUSH1 0x40 MLOAD PUSH4 0x46A55DB PUSH1 0xE1 SHL DUP2 MSTORE PUSH1 0x4 ADD PUSH1 0x40 MLOAD DUP1 SWAP2 SUB SWAP1 REVERT JUMPDEST POP SWAP2 SWAP1 POP JUMP JUMPDEST PUSH1 0x60 DUP2 MLOAD DUP3 PUSH1 0x40 MLOAD PUSH1 0x20 ADD PUSH2 0x331 SWAP3 SWAP2 SWAP1 PUSH2 0x391 JUMP JUMPDEST PUSH1 0x40 MLOAD PUSH1 0x20 DUP2 DUP4 SUB SUB DUP2 MSTORE SWAP1 PUSH1 0x40 MSTORE SWAP1 POP SWAP2 SWAP1 POP JUMP JUMPDEST PUSH1 0x0 DUP2 MLOAD PUSH1 0x0 JUMPDEST DUP2 DUP2 LT ISZERO PUSH2 0x368 JUMPI PUSH1 0x20 DUP2 DUP6 ADD DUP2 ADD MLOAD DUP7 DUP4 ADD MSTORE ADD PUSH2 0x34E JUMP JUMPDEST POP PUSH1 0x0 SWAP4 ADD SWAP3 DUP4 MSTORE POP SWAP1 SWAP2 SWAP1 POP JUMP JUMPDEST PUSH1 0x0 DUP2 MSTORE PUSH1 0x0 PUSH2 0x38A PUSH1 0x1 DUP4 ADD DUP5 PUSH2 0x347 JUMP JUMPDEST SWAP4 SWAP3 POP POP POP JUMP JUMPDEST PUSH1 0x63 PUSH1 0xF8 SHL DUP2 MSTORE PUSH1 0xE0 DUP4 SWAP1 SHL PUSH1 0x1 PUSH1 0x1 PUSH1 0xE0 SHL SUB NOT AND PUSH1 0x1 DUP3 ADD MSTORE PUSH9 0x80600E6000396000F3 PUSH1 0xB8 SHL PUSH1 0x5 DUP3 ADD MSTORE PUSH1 0x0 PUSH2 0x3CD PUSH1 0xE DUP4 ADD DUP5 PUSH2 0x347 JUMP JUMPDEST SWAP5 SWAP4 POP POP POP POP JUMP JUMPDEST PUSH2 0x360 DUP1 PUSH2 0x3E4 PUSH1 0x0 CODECOPY PUSH1 0x0 RETURN INVALID PUSH1 0x80 PUSH1 0x40 MSTORE CALLVALUE DUP1 ISZERO PUSH2 0x10 JUMPI PUSH1 0x0 DUP1 REVERT JUMPDEST POP PUSH1 0x4 CALLDATASIZE LT PUSH2 0x88 JUMPI PUSH1 0x0 CALLDATALOAD PUSH1 0xE0 SHR DUP1 PUSH4 0xAF7856CE GT PUSH2 0x5B JUMPI DUP1 PUSH4 0xAF7856CE EQ PUSH2 0xF1 JUMPI DUP1 PUSH4 0xBDB69062 EQ PUSH2 0x104 JUMPI DUP1 PUSH4 0xDF6BCDD5 EQ PUSH2 0x117 JUMPI DUP1 PUSH4 0xE9CE3274 EQ PUSH2 0x12A JUMPI PUSH1 0x0 DUP1 REVERT JUMPDEST DUP1 PUSH4 0x13D8C840 EQ PUSH2 0x8D JUMPI DUP1 PUSH4 0x3494A75B EQ PUSH2 0xAB JUMPI DUP1 PUSH4 0x3C8C014D EQ PUSH2 0xD6 JUMPI DUP1 PUSH4 0x8F7DCFA3 EQ PUSH2 0xE9 JUMPI JUMPDEST PUSH1 0x0 DUP1 REVERT JUMPDEST PUSH2 0x95 PUSH2 0x13D JUMP JUMPDEST PUSH1 0x40 MLOAD PUSH2 0xA2 SWAP2 SWAP1 PUSH2 0x2AC JUMP JUMPDEST PUSH1 0x40 MLOAD DUP1 SWAP2 SUB SWAP1 RETURN JUMPDEST PUSH1 0x0 SLOAD PUSH2 0xBE SWAP1 PUSH1 0x1 PUSH1 0x1 PUSH1 0xA0 SHL SUB AND DUP2 JUMP JUMPDEST PUSH1 0x40 MLOAD PUSH1 0x1 PUSH1 0x1 PUSH1 0xA0 SHL SUB SWAP1 SWAP2 AND DUP2 MSTORE PUSH1 0x20 ADD PUSH2 0xA2 JUMP JUMPDEST PUSH2 0x95 PUSH2 0xE4 CALLDATASIZE PUSH1 0x4 PUSH2 0x2FB JUMP JUMPDEST PUSH2 0x15A JUMP JUMPDEST PUSH2 0x95 PUSH2 0x188 JUMP JUMPDEST PUSH2 0xBE PUSH2 0xFF CALLDATASIZE PUSH1 0x4 PUSH2 0x2FB JUMP JUMPDEST PUSH2 0x1A0 JUMP JUMPDEST PUSH2 0x95 PUSH2 0x112 CALLDATASIZE PUSH1 0x4 PUSH2 0x2FB JUMP JUMPDEST PUSH2 0x1C0 JUMP JUMPDEST PUSH1 0x1 SLOAD PUSH2 0xBE SWAP1 PUSH1 0x1 PUSH1 0x1 PUSH1 0xA0 SHL SUB AND DUP2 JUMP JUMPDEST PUSH2 0xBE PUSH2 0x138 CALLDATASIZE PUSH1 0x4 PUSH2 0x2FB JUMP JUMPDEST PUSH2 0x1D8 JUMP JUMPDEST PUSH1 0x1 SLOAD PUSH1 0x60 SWAP1 PUSH2 0x155 SWAP1 PUSH1 0x1 PUSH1 0x1 PUSH1 0xA0 SHL SUB AND PUSH2 0x1E8 JUMP JUMPDEST SWAP1 POP SWAP1 JUMP JUMPDEST PUSH1 0x60 PUSH2 0x182 PUSH1 0x2 DUP4 PUSH1 0x4 DUP2 LT PUSH2 0x172 JUMPI PUSH2 0x172 PUSH2 0x314 JUMP JUMPDEST ADD SLOAD PUSH1 0x1 PUSH1 0x1 PUSH1 0xA0 SHL SUB AND PUSH2 0x1E8 JUMP JUMPDEST SWAP3 SWAP2 POP POP JUMP JUMPDEST PUSH1 0x0 SLOAD PUSH1 0x60 SWAP1 PUSH2 0x155 SWAP1 PUSH1 0x1 PUSH1 0x1 PUSH1 0xA0 SHL SUB AND PUSH2 0x1E8 JUMP JUMPDEST PUSH1 0x6 DUP2 PUSH1 0x4 DUP2 LT PUSH2 0x1B0 JUMPI PUSH1 0x0 DUP1 REVERT JUMPDEST ADD SLOAD PUSH1 0x1 PUSH1 0x1 PUSH1 0xA0 SHL SUB AND SWAP1 POP DUP2 JUMP JUMPDEST PUSH1 0x60 PUSH2 0x182 PUSH1 0x6 DUP4 PUSH1 0x4 DUP2 LT PUSH2 0x172 JUMPI PUSH2 0x172 PUSH2 0x314 JUMP JUMPDEST PUSH1 0x2 DUP2 PUSH1 0x4 DUP2 LT PUSH2 0x1B0 JUMPI PUSH1 0x0 DUP1 REVERT JUMPDEST PUSH1 0x60 PUSH2 0x182 DUP3 PUSH1 0x1 PUSH1 0x0 NOT DUP5 DUP4 EXTCODESIZE PUSH1 0x0 DUP2 SWAP1 SUB PUSH2 0x215 JUMPI POP POP PUSH1 0x40 DUP1 MLOAD PUSH1 0x20 DUP2 ADD SWAP1 SWAP2 MSTORE PUSH1 0x0 DUP2 MSTORE PUSH2 0x2A5 JUMP JUMPDEST DUP1 DUP5 GT ISZERO PUSH2 0x233 JUMPI POP POP PUSH1 0x40 DUP1 MLOAD PUSH1 0x20 DUP2 ADD SWAP1 SWAP2 MSTORE PUSH1 0x0 DUP2 MSTORE PUSH2 0x2A5 JUMP JUMPDEST DUP4 DUP4 LT ISZERO PUSH2 0x269 JUMPI PUSH1 0x40 MLOAD PUSH4 0x162544FD PUSH1 0xE1 SHL DUP2 MSTORE PUSH1 0x4 DUP2 ADD DUP3 SWAP1 MSTORE PUSH1 0x24 DUP2 ADD DUP6 SWAP1 MSTORE PUSH1 0x44 DUP2 ADD DUP5 SWAP1 MSTORE PUSH1 0x64 ADD PUSH1 0x40 MLOAD DUP1 SWAP2 SUB SWAP1 REVERT JUMPDEST DUP4 DUP4 SUB DUP5 DUP3 SUB PUSH1 0x0 DUP3 DUP3 LT PUSH2 0x27E JUMPI DUP3 PUSH2 0x280 JUMP JUMPDEST DUP2 JUMPDEST PUSH1 0x40 DUP1 MLOAD PUSH1 0x3F DUP4 ADD PUSH1 0x1F NOT AND DUP2 ADD SWAP1 SWAP2 MSTORE DUP2 DUP2 MSTORE SWAP6 POP SWAP1 POP DUP1 DUP8 PUSH1 0x20 DUP8 ADD DUP11 EXTCODECOPY POP POP POP POP JUMPDEST SWAP4 SWAP3 POP POP POP JUMP JUMPDEST PUSH1 0x0 PUSH1 0x20 DUP1 DUP4 MSTORE DUP4 MLOAD DUP1 PUSH1 0x20 DUP6 ADD MSTORE PUSH1 0x0 JUMPDEST DUP2 DUP2 LT ISZERO PUSH2 0x2DA JUMPI DUP6 DUP2 ADD DUP4 ADD MLOAD DUP6 DUP3 ADD PUSH1 0x40 ADD MSTORE DUP3 ADD PUSH2 0x2BE JUMP JUMPDEST POP PUSH1 0x0 PUSH1 0x40 DUP3 DUP7 ADD ADD MSTORE PUSH1 0x40 PUSH1 0x1F NOT PUSH1 0x1F DUP4 ADD AND DUP6 ADD ADD SWAP3 POP POP POP SWAP3 SWAP2 POP POP JUMP JUMPDEST PUSH1 0x0 PUSH1 0x20 DUP3 DUP5 SUB SLT ISZERO PUSH2 0x30D JUMPI PUSH1 0x0 DUP1 REVERT JUMPDEST POP CALLDATALOAD SWAP2 SWAP1 POP JUMP JUMPDEST PUSH4 0x4E487B71 PUSH1 0xE0 SHL PUSH1 0x0 MSTORE PUSH1 0x32 PUSH1 0x4 MSTORE PUSH1 0x24 PUSH1 0x0 REVERT INVALID LOG2 PUSH5 0x6970667358 0x22 SLT KECCAK256 0xE2 KECCAK256 0xAB 0xFB 0xC DUP4 0xAE 0x4E PUSH14 0x8BD0A5E0D53FB8794E8ED337EE9C DUP4 SWAP4 BLOCKHASH BLOBBASEFEE 0xE5 PUSH20 0xB5953364736F6C634300081900333C7061746820 PUSH5 0x3D224D2035 BALANCE ORIGIN KECCAK256 BALANCE BALANCE ORIGIN KECCAK256 COINBASE KECCAK256 CALLVALUE ADDRESS ADDRESS KECCAK256 CALLVALUE ADDRESS ADDRESS KECCAK256 ADDRESS KECCAK256 ADDRESS KECCAK256 BALANCE KECCAK256 CALLDATALOAD CALLDATALOAD BALANCE 0x2E ORIGIN ADDRESS CALLDATASIZE CODESIZE CALLDATALOAD CALLDATASIZE BALANCE CALLER BALANCE CODESIZE ORIGIN CALLVALUE CALLER KECCAK256 BALANCE BALANCE CALLER 0x2E CODECOPY ORIGIN CALLDATASIZE BALANCE ADDRESS CODECOPY CALLER CALLER BALANCE BALANCE ORIGIN BALANCE ORIGIN CALLDATACOPY KECCAK256 0x4C KECCAK256 CALLDATALOAD CALLDATALOAD CODECOPY 0x2E ADDRESS CALLVALUE CODESIZE ORIGIN ORIGIN CALLDATACOPY CALLER CALLDATALOAD CODESIZE BALANCE CODESIZE CODECOPY BALANCE KECCAK256 CALLER CALLVALUE 0x2E CALLER BALANCE BALANCE CALLER CALLER BALANCE BALANCE CODECOPY CALLDATACOPY CALLER CALLVALUE CALLDATALOAD CALLDATALOAD BALANCE KECCAK256 COINBASE KECCAK256 CALLVALUE CODESIZE ADDRESS KECCAK256 CALLVALUE CODESIZE ADDRESS KECCAK256 ADDRESS KECCAK256 ADDRESS KECCAK256 ADDRESS KECCAK256 CALLDATALOAD BALANCE ORIGIN KECCAK256 CALLER ORIGIN KECCAK256 GAS 0x22 KECCAK256 PUSH20 0x74726F6B653D22626C61636B22207374726F6B65 0x2D PUSH24 0x696474683D2231222066696C6C3D223C7465787420783D22 CALLDATALOAD BALANCE ORIGIN 0x22 KECCAK256 PUSH26 0x3D223436352220666F6E742D73697A653D223232222066696C6C RETURNDATASIZE 0x22 PUSH24 0x686974652220746578742D616E63686F723D226D6964646C PUSH6 0x2220666F6E74 0x2D PUSH7 0x616D696C793D22 PUSH14 0x6F6E6F7370616365223E3C706174 PUSH9 0x20643D224D20353132 KECCAK256 BALANCE CODECOPY ORIGIN KECCAK256 COINBASE KECCAK256 CALLER ORIGIN ADDRESS KECCAK256 CALLER ORIGIN ADDRESS KECCAK256 ADDRESS KECCAK256 ADDRESS KECCAK256 BALANCE KECCAK256 CALLDATALOAD CALLVALUE CALLER 0x2E CALLER CALLDATASIZE CALLDATALOAD CALLVALUE CODESIZE CALLVALUE CODECOPY ADDRESS CALLDATALOAD CALLVALUE CALLDATALOAD CODECOPY CALLVALUE KECCAK256 BALANCE CODECOPY CALLER 0x2E CALLDATALOAD CALLVALUE ADDRESS CODESIZE CODESIZE CALLDATACOPY CALLVALUE CALLDATASIZE CALLVALUE CODESIZE CODECOPY CALLDATACOPY ADDRESS CALLER KECCAK256 0x4C KECCAK256 CALLDATALOAD CALLDATALOAD BALANCE 0x2E ORIGIN ADDRESS CALLDATASIZE CODESIZE CALLDATALOAD CALLDATASIZE BALANCE CALLER BALANCE CODESIZE ORIGIN CALLVALUE CALLER KECCAK256 BALANCE BALANCE CALLER 0x2E CODECOPY ORIGIN CALLDATASIZE BALANCE ADDRESS CODECOPY CALLER CALLER BALANCE BALANCE ORIGIN BALANCE ORIGIN CALLDATACOPY KECCAK256 COINBASE KECCAK256 CALLVALUE ADDRESS ADDRESS KECCAK256 CALLVALUE ADDRESS ADDRESS KECCAK256 ADDRESS KECCAK256 ADDRESS KECCAK256 ADDRESS KECCAK256 CALLDATALOAD BALANCE ORIGIN KECCAK256 BALANCE BALANCE ORIGIN KECCAK256 GAS 0x22 KECCAK256 PUSH20 0x74726F6B653D22626C61636B22207374726F6B65 0x2D PUSH24 0x696474683D2231222066696C6C3D223C7465787420783D22 CALLDATALOAD BALANCE ORIGIN 0x22 KECCAK256 PUSH26 0x3D223530312220666F6E742D73697A653D223232222066696C6C RETURNDATASIZE 0x22 PUSH24 0x686974652220746578742D616E63686F723D226D6964646C PUSH6 0x2220666F6E74 0x2D PUSH7 0x616D696C793D22 PUSH14 0x6F6E6F7370616365223E3C746578 PUSH21 0x20783D223531322220793D223537332220666F6E74 0x2D PUSH20 0x697A653D223232222066696C6C3D227768697465 0x22 KECCAK256 PUSH21 0x6578742D616E63686F723D226D6964646C65222066 PUSH16 0x6E742D66616D696C793D226D6F6E6F73 PUSH17 0x616365223E3C7465787420783D22353132 0x22 KECCAK256 PUSH26 0x3D223533372220666F6E742D73697A653D223232222066696C6C RETURNDATASIZE 0x22 PUSH24 0x686974652220746578742D616E63686F723D226D6964646C PUSH6 0x2220666F6E74 0x2D PUSH7 0x616D696C793D22 PUSH14 0x6F6E6F7370616365223E3C737667 KECCAK256 PUSH25 0x6D6C6E733D22687474703A2F2F7777772E77332E6F72672F32 ADDRESS ADDRESS ADDRESS 0x2F PUSH20 0x7667222076696577426F783D2230203020313032 CALLVALUE KECCAK256 BALANCE ADDRESS ORIGIN CALLVALUE 0x22 KECCAK256 PUSH17 0x7265736572766541737065637452617469 PUSH16 0x3D22784D6964594D6964206D65657422 RETURNDATACOPY EXTCODECOPY PUSH19 0x65637420783D22302220793D22302220776964 PUSH21 0x683D223130323422206865696768743D2231303234 0x22 KECCAK256 PUSH7 0x696C6C3D22626C PUSH2 0x636B 0x22 0x2F RETURNDATACOPY EXTCODECOPY PUSH17 0x61746820643D224D203531322033353220 COINBASE KECCAK256 BALANCE CALLDATASIZE ADDRESS KECCAK256 BALANCE CALLDATASIZE ADDRESS KECCAK256 ADDRESS KECCAK256 ADDRESS KECCAK256 BALANCE KECCAK256 CALLDATALOAD ORIGIN CALLDATACOPY 0x2E CALLDATASIZE CODESIZE ORIGIN CALLDATACOPY CALLVALUE ORIGIN CALLVALUE CALLDATALOAD ORIGIN CALLDATACOPY ORIGIN CODECOPY CALLDATACOPY KECCAK256 CALLER CALLDATALOAD ORIGIN 0x2E CALLDATACOPY CALLDATACOPY ADDRESS CALLVALUE CALLVALUE CALLER CALLDATACOPY CALLER ORIGIN CALLVALUE CALLVALUE CODESIZE CALLDATALOAD KECCAK256 0x4C KECCAK256 CALLDATALOAD CALLER CALLDATALOAD 0x2E CALLDATALOAD ORIGIN CALLVALUE BALANCE BALANCE CALLER CALLDATASIZE CALLDATACOPY CODECOPY ADDRESS CODECOPY CALLVALUE CALLDATASIZE KECCAK256 ORIGIN CALLDATACOPY CALLER 0x2E BALANCE CALLDATALOAD CALLDATALOAD CALLDATASIZE CALLDATASIZE CALLDATALOAD CALLDATALOAD CODECOPY CODESIZE CALLDATASIZE CALLDATACOPY ORIGIN CALLDATACOPY KECCAK256 COINBASE KECCAK256 ORIGIN CALLVALUE ADDRESS KECCAK256 ORIGIN CALLVALUE ADDRESS KECCAK256 ADDRESS KECCAK256 ADDRESS KECCAK256 ADDRESS KECCAK256 CALLDATALOAD BALANCE ORIGIN KECCAK256 ORIGIN CALLDATACOPY ORIGIN KECCAK256 GAS 0x22 KECCAK256 PUSH20 0x74726F6B653D22626C61636B22207374726F6B65 0x2D PUSH24 0x696474683D2231222066696C6C3D223C7061746820643D22 0x4D KECCAK256 CALLDATALOAD BALANCE ORIGIN KECCAK256 ORIGIN CALLDATACOPY ORIGIN KECCAK256 COINBASE KECCAK256 ORIGIN CALLVALUE ADDRESS KECCAK256 ORIGIN CALLVALUE ADDRESS KECCAK256 ADDRESS KECCAK256 ADDRESS KECCAK256 BALANCE KECCAK256 CALLDATALOAD CALLER CALLDATALOAD 0x2E CALLDATALOAD ORIGIN CALLVALUE BALANCE BALANCE CALLER CALLDATASIZE CALLDATACOPY CODECOPY ADDRESS CODECOPY CALLVALUE CALLDATASIZE KECCAK256 ORIGIN CALLDATACOPY CALLER 0x2E BALANCE CALLDATALOAD CALLDATALOAD CALLDATASIZE CALLDATASIZE CALLDATALOAD CALLDATALOAD CODECOPY CODESIZE CALLDATASIZE CALLDATACOPY ORIGIN CALLDATACOPY KECCAK256 0x4C KECCAK256 CALLDATALOAD CALLVALUE CALLER 0x2E CALLER CALLDATASIZE CALLDATALOAD CALLVALUE CODESIZE CALLVALUE CODECOPY ADDRESS CALLDATALOAD CALLVALUE CALLDATALOAD CODECOPY CALLVALUE KECCAK256 BALANCE CODECOPY CALLER 0x2E CALLDATALOAD CALLVALUE ADDRESS CODESIZE CODESIZE CALLDATACOPY CALLVALUE CALLDATASIZE CALLVALUE CODESIZE CODECOPY CALLDATACOPY ADDRESS CALLER KECCAK256 COINBASE KECCAK256 CALLER ORIGIN ADDRESS KECCAK256 CALLER ORIGIN ADDRESS KECCAK256 ADDRESS KECCAK256 ADDRESS KECCAK256 ADDRESS KECCAK256 CALLDATALOAD BALANCE ORIGIN KECCAK256 BALANCE CODECOPY ORIGIN KECCAK256 GAS 0x22 KECCAK256 PUSH20 0x74726F6B653D22626C61636B22207374726F6B65 0x2D PUSH24 0x696474683D2231222066696C6C3D22000000000000000000 "},"methodIdentifiers":{"head()":"8f7dcfa3","headPtr()":"3494a75b","prefix(uint256)":"3c8c014d","prefixPtr(uint256)":"e9ce3274","tail()":"13d8c840","tailPtr()":"df6bcdd5","textPrefix(uint256)":"bdb69062","textPrefixPtr(uint256)":"af7856ce"}}}}}