{
  "_format": "hh-sol-artifact-1",
  "contractName": "FullMandalaRenderer",
  "sourceName": "contracts/FullMandalaRenderer.sol",
  "abi": [
    {
      "inputs": [
        {
          "internalType": "address",
          "name": "storageAddr",
          "type": "address"
        }
      ],
      "stateMutability": "nonpayable",
      "type": "constructor"
    },
    {
      "inputs": [
        {
          "internalType": "bytes32",
          "name": "hash",
          "type": "bytes32"
        }
      ],
      "name": "svg",
      "outputs": [
        {
          "internalType": "string",
          "name": "",
          "type": "string"
        }
      ],
      "stateMutability": "view",
      "type": "function"
    }
  ],
  "bytecode": "0x60a0604052348015600f57600080fd5b50604051610dc7380380610dc7833981016040819052602c91603c565b6001600160a01b0316608052606a565b600060208284031215604d57600080fd5b81516001600160a01b0381168114606357600080fd5b9392505050565b608051610d2e610099600039600081816095015281816102eb0152818161057001526106ee0152610d2e6000f3fe608060405234801561001057600080fd5b506004361061002b5760003560e01c8063042b154a14610030575b600080fd5b61004361003e366004610a7b565b610059565b6040516100509190610ab8565b60405180910390f35b6040805161040e8082526181e0820190925260609160009190816020015b606081526020019060019003908161007757905050905060008060007f00000000000000000000000000000000000000000000000000000000000000006001600160a01b0316638f7dcfa36040518163ffffffff1660e01b8152600401600060405180830381865afa1580156100f1573d6000803e3d6000fd5b505050506040513d6000823e601f3d908101601f191682016040526101199190810190610b01565b905080848461012781610bc4565b95508151811061013957610139610bdd565b60200260200101819052508051826101519190610bf3565b915060005b60408110156105455760006101756101706115f984610c06565b610883565b905060405180604001604052806015815260200174078ce40e8e4c2dce6ccdee4da7a44e4dee8c2e8ca5605b1b8152508686806101b190610bc4565b9750815181106101c3576101c3610bdd565b602002602001018190525060405180604001604052806015815260200174078ce40e8e4c2dce6ccdee4da7a44e4dee8c2e8ca5605b1b81525051846102089190610bf3565b935080868661021681610bc4565b97508151811061022857610228610bdd565b60200260200101819052508051846102409190610bf3565b93506040518060400160405280600b81526020016a101a9899101a989914911f60a91b81525086868061027290610bc4565b97508151811061028457610284610bdd565b60200260200101819052506040518060400160405280600b81526020016a101a9899101a989914911f60a91b81525051846102bf9190610bf3565b935060005b60048160ff1610156104cd57604051633c8c014d60e01b815260ff821660048201526000907f00000000000000000000000000000000000000000000000000000000000000006001600160a01b031690633c8c014d90602401600060405180830381865afa15801561033a573d6000803e3d6000fd5b505050506040513d6000823e601f3d908101601f191682016040526103629190810190610b01565b90506000600160ff841661037787603f610c1d565b610382906004610c06565b61038c9190610bf3565b8c901c161590506000816103bf576040518060400160405280600781526020016611b3333333333360c91b8152506103e0565b604051806040016040528060078152602001660233030303030360cc1b8152505b9050828a8a6103ee81610bc4565b9b508151811061040057610400610bdd565b60200260200101819052508251886104189190610bf3565b9750808a8a61042681610bc4565b9b508151811061043857610438610bdd565b602090810291909101015261044e600789610bf3565b97506040518060400160405280600381526020016211179f60e91b8152508a8a8061047890610bc4565b9b508151811061048a5761048a610bdd565b60200260200101819052506040518060400160405280600381526020016211179f60e91b81525051886104bd9190610bf3565b97505050508060010190506102c4565b506040805180820190915260048152631e17b39f60e11b602082015286866104f481610bc4565b97508151811061050657610506610bdd565b6020026020010181905250604051806040016040528060048152602001631e17b39f60e11b815250518461053a9190610bf3565b935050600101610156565b5060005b60048160ff1610156106e957604051635edb483160e11b815260ff821660048201526000907f00000000000000000000000000000000000000000000000000000000000000006001600160a01b03169063bdb6906290602401600060405180830381865afa1580156105bf573d6000803e3d6000fd5b505050506040513d6000823e601f3d908101601f191682016040526105e79190810190610b01565b905060006105f5898461092d565b905081878761060381610bc4565b98508151811061061557610615610bdd565b602002602001018190525081518561062d9190610bf3565b945080878761063b81610bc4565b98508151811061064d5761064d610bdd565b6020908102919091010152610663601086610bf3565b9450604051806040016040528060078152602001661e17ba32bc3a1f60c91b81525087878061069190610bc4565b9850815181106106a3576106a3610bdd565b6020026020010181905250604051806040016040528060078152602001661e17ba32bc3a1f60c91b81525051856106da9190610bf3565b94505050806001019050610549565b5060007f00000000000000000000000000000000000000000000000000000000000000006001600160a01b03166313d8c8406040518163ffffffff1660e01b8152600401600060405180830381865afa15801561074a573d6000803e3d6000fd5b505050506040513d6000823e601f3d908101601f191682016040526107729190810190610b01565b905080858561078081610bc4565b96508151811061079257610792610bdd565b60200260200101819052508051836107aa9190610bf3565b925060008367ffffffffffffffff8111156107c7576107c7610aeb565b6040519080825280601f01601f1916602001820160405280156107f1576020820181803683370190505b5090506000805b875181101561087557600088828151811061081557610815610bdd565b602002602001015190506000815190508060000361083457505061086d565b8360208601016020830160005b83811015610859578181015183820152602001610841565b50505080846108689190610bf3565b935050505b6001016107f8565b509098975050505050505050565b606060006108936103e884610c46565b905060006108a36103e885610c5a565b9050806000036108be576108b6826109cc565b949350505050565b60035b6108cc600a83610c5a565b6000036108f0576108de600a83610c46565b91506108e981610c6e565b90506108c1565b6108f9836109cc565b61090383836109d5565b604051602001610914929190610c8b565b6040516020818303038152906040529350505050919050565b6040805160108082528183019092526060916000919060208201818036833701905050905060005b60108160ff1610156109c257600f60ff6004601087028401603f03021686901c16600a8110610985576057610988565b60305b810160f81b838360ff16815181106109a2576109a2610bdd565b60200101906001600160f81b031916908160001a90535050600101610955565b5090505b92915050565b60606109c68260005b60605b60008260ff1611806109ea5750600083115b15610a53576109fa600a84610c5a565b610a05906030610bf3565b60f81b81604051602001610a1a929190610cc7565b60408051601f198184030181529190529050610a37600a84610c46565b925060ff821615610a4e57610a4b82610c6e565b91505b6109d8565b80516000036109c657506040805180820190915260018152600360fc1b602082015292915050565b600060208284031215610a8d57600080fd5b5035919050565b60005b83811015610aaf578181015183820152602001610a97565b50506000910152565b6020815260008251806020840152610ad7816040850160208701610a94565b601f01601f19169190910160400192915050565b634e487b7160e01b600052604160045260246000fd5b600060208284031215610b1357600080fd5b815167ffffffffffffffff80821115610b2b57600080fd5b818401915084601f830112610b3f57600080fd5b815181811115610b5157610b51610aeb565b604051601f8201601f19908116603f01168101908382118183101715610b7957610b79610aeb565b81604052828152876020848701011115610b9257600080fd5b610ba3836020830160208801610a94565b979650505050505050565b634e487b7160e01b600052601160045260246000fd5b600060018201610bd657610bd6610bae565b5060010190565b634e487b7160e01b600052603260045260246000fd5b808201808211156109c6576109c6610bae565b80820281158282048414176109c6576109c6610bae565b818103818111156109c6576109c6610bae565b634e487b7160e01b600052601260045260246000fd5b600082610c5557610c55610c30565b500490565b600082610c6957610c69610c30565b500690565b600060ff821680610c8157610c81610bae565b6000190192915050565b60008351610c9d818460208801610a94565b601760f91b9083019081528351610cbb816001840160208801610a94565b01600101949350505050565b6001600160f81b0319831681528151600090610cea816001850160208701610a94565b91909101600101939250505056fea2646970667358221220a06017fe464741a810eba06b699701f612c61355306b374455487e759e10940164736f6c63430008190033",
  "linkReferences": {},
  "deployedLinkReferences": {}
}