{
  "_format": "hh-sol-artifact-1",
  "contractName": "HashJingNFT",
  "sourceName": "contracts/HashJingNFT.sol",
  "abi": [
    {
      "inputs": [
        {
          "internalType": "address",
          "name": "rendererAddr",
          "type": "address"
        }
      ],
      "stateMutability": "nonpayable",
      "type": "constructor"
    },
    {
      "inputs": [
        {
          "internalType": "uint256",
          "name": "numerator",
          "type": "uint256"
        },
        {
          "internalType": "uint256",
          "name": "denominator",
          "type": "uint256"
        }
      ],
      "name": "ERC2981InvalidDefaultRoyalty",
      "type": "error"
    },
    {
      "inputs": [
        {
          "internalType": "address",
          "name": "receiver",
          "type": "address"
        }
      ],
      "name": "ERC2981InvalidDefaultRoyaltyReceiver",
      "type": "error"
    },
    {
      "inputs": [
        {
          "internalType": "uint256",
          "name": "tokenId",
          "type": "uint256"
        },
        {
          "internalType": "uint256",
          "name": "numerator",
          "type": "uint256"
        },
        {
          "internalType": "uint256",
          "name": "denominator",
          "type": "uint256"
        }
      ],
      "name": "ERC2981InvalidTokenRoyalty",
      "type": "error"
    },
    {
      "inputs": [
        {
          "internalType": "uint256",
          "name": "tokenId",
          "type": "uint256"
        },
        {
          "internalType": "address",
          "name": "receiver",
          "type": "address"
        }
      ],
      "name": "ERC2981InvalidTokenRoyaltyReceiver",
      "type": "error"
    },
    {
      "inputs": [
        {
          "internalType": "address",
          "name": "sender",
          "type": "address"
        },
        {
          "internalType": "uint256",
          "name": "tokenId",
          "type": "uint256"
        },
        {
          "internalType": "address",
          "name": "owner",
          "type": "address"
        }
      ],
      "name": "ERC721IncorrectOwner",
      "type": "error"
    },
    {
      "inputs": [
        {
          "internalType": "address",
          "name": "operator",
          "type": "address"
        },
        {
          "internalType": "uint256",
          "name": "tokenId",
          "type": "uint256"
        }
      ],
      "name": "ERC721InsufficientApproval",
      "type": "error"
    },
    {
      "inputs": [
        {
          "internalType": "address",
          "name": "approver",
          "type": "address"
        }
      ],
      "name": "ERC721InvalidApprover",
      "type": "error"
    },
    {
      "inputs": [
        {
          "internalType": "address",
          "name": "operator",
          "type": "address"
        }
      ],
      "name": "ERC721InvalidOperator",
      "type": "error"
    },
    {
      "inputs": [
        {
          "internalType": "address",
          "name": "owner",
          "type": "address"
        }
      ],
      "name": "ERC721InvalidOwner",
      "type": "error"
    },
    {
      "inputs": [
        {
          "internalType": "address",
          "name": "receiver",
          "type": "address"
        }
      ],
      "name": "ERC721InvalidReceiver",
      "type": "error"
    },
    {
      "inputs": [
        {
          "internalType": "address",
          "name": "sender",
          "type": "address"
        }
      ],
      "name": "ERC721InvalidSender",
      "type": "error"
    },
    {
      "inputs": [
        {
          "internalType": "uint256",
          "name": "tokenId",
          "type": "uint256"
        }
      ],
      "name": "ERC721NonexistentToken",
      "type": "error"
    },
    {
      "inputs": [],
      "name": "NotTreasury",
      "type": "error"
    },
    {
      "inputs": [
        {
          "internalType": "address",
          "name": "owner",
          "type": "address"
        }
      ],
      "name": "OwnableInvalidOwner",
      "type": "error"
    },
    {
      "inputs": [
        {
          "internalType": "address",
          "name": "account",
          "type": "address"
        }
      ],
      "name": "OwnableUnauthorizedAccount",
      "type": "error"
    },
    {
      "inputs": [],
      "name": "SoldOut",
      "type": "error"
    },
    {
      "inputs": [
        {
          "internalType": "uint256",
          "name": "value",
          "type": "uint256"
        },
        {
          "internalType": "uint256",
          "name": "length",
          "type": "uint256"
        }
      ],
      "name": "StringsInsufficientHexLength",
      "type": "error"
    },
    {
      "inputs": [],
      "name": "WrongMintFee",
      "type": "error"
    },
    {
      "anonymous": false,
      "inputs": [
        {
          "indexed": true,
          "internalType": "address",
          "name": "owner",
          "type": "address"
        },
        {
          "indexed": true,
          "internalType": "address",
          "name": "approved",
          "type": "address"
        },
        {
          "indexed": true,
          "internalType": "uint256",
          "name": "tokenId",
          "type": "uint256"
        }
      ],
      "name": "Approval",
      "type": "event"
    },
    {
      "anonymous": false,
      "inputs": [
        {
          "indexed": true,
          "internalType": "address",
          "name": "owner",
          "type": "address"
        },
        {
          "indexed": true,
          "internalType": "address",
          "name": "operator",
          "type": "address"
        },
        {
          "indexed": false,
          "internalType": "bool",
          "name": "approved",
          "type": "bool"
        }
      ],
      "name": "ApprovalForAll",
      "type": "event"
    },
    {
      "anonymous": false,
      "inputs": [
        {
          "indexed": true,
          "internalType": "address",
          "name": "previousOwner",
          "type": "address"
        },
        {
          "indexed": true,
          "internalType": "address",
          "name": "newOwner",
          "type": "address"
        }
      ],
      "name": "OwnershipTransferred",
      "type": "event"
    },
    {
      "anonymous": false,
      "inputs": [
        {
          "indexed": true,
          "internalType": "address",
          "name": "from",
          "type": "address"
        },
        {
          "indexed": true,
          "internalType": "address",
          "name": "to",
          "type": "address"
        },
        {
          "indexed": true,
          "internalType": "uint256",
          "name": "tokenId",
          "type": "uint256"
        }
      ],
      "name": "Transfer",
      "type": "event"
    },
    {
      "inputs": [],
      "name": "GENESIS_PRICE",
      "outputs": [
        {
          "internalType": "uint256",
          "name": "",
          "type": "uint256"
        }
      ],
      "stateMutability": "view",
      "type": "function"
    },
    {
      "inputs": [],
      "name": "GENESIS_SUPPLY",
      "outputs": [
        {
          "internalType": "uint256",
          "name": "",
          "type": "uint256"
        }
      ],
      "stateMutability": "view",
      "type": "function"
    },
    {
      "inputs": [],
      "name": "MAX_ROYALTY_BPS",
      "outputs": [
        {
          "internalType": "uint96",
          "name": "",
          "type": "uint96"
        }
      ],
      "stateMutability": "view",
      "type": "function"
    },
    {
      "inputs": [
        {
          "internalType": "address",
          "name": "to",
          "type": "address"
        },
        {
          "internalType": "uint256",
          "name": "tokenId",
          "type": "uint256"
        }
      ],
      "name": "approve",
      "outputs": [],
      "stateMutability": "nonpayable",
      "type": "function"
    },
    {
      "inputs": [
        {
          "internalType": "address",
          "name": "owner",
          "type": "address"
        }
      ],
      "name": "balanceOf",
      "outputs": [
        {
          "internalType": "uint256",
          "name": "",
          "type": "uint256"
        }
      ],
      "stateMutability": "view",
      "type": "function"
    },
    {
      "inputs": [
        {
          "internalType": "uint256",
          "name": "tokenId",
          "type": "uint256"
        }
      ],
      "name": "getApproved",
      "outputs": [
        {
          "internalType": "address",
          "name": "",
          "type": "address"
        }
      ],
      "stateMutability": "view",
      "type": "function"
    },
    {
      "inputs": [
        {
          "internalType": "address",
          "name": "owner",
          "type": "address"
        },
        {
          "internalType": "address",
          "name": "operator",
          "type": "address"
        }
      ],
      "name": "isApprovedForAll",
      "outputs": [
        {
          "internalType": "bool",
          "name": "",
          "type": "bool"
        }
      ],
      "stateMutability": "view",
      "type": "function"
    },
    {
      "inputs": [],
      "name": "mint",
      "outputs": [],
      "stateMutability": "payable",
      "type": "function"
    },
    {
      "inputs": [],
      "name": "name",
      "outputs": [
        {
          "internalType": "string",
          "name": "",
          "type": "string"
        }
      ],
      "stateMutability": "view",
      "type": "function"
    },
    {
      "inputs": [],
      "name": "owner",
      "outputs": [
        {
          "internalType": "address",
          "name": "",
          "type": "address"
        }
      ],
      "stateMutability": "view",
      "type": "function"
    },
    {
      "inputs": [
        {
          "internalType": "uint256",
          "name": "tokenId",
          "type": "uint256"
        }
      ],
      "name": "ownerOf",
      "outputs": [
        {
          "internalType": "address",
          "name": "",
          "type": "address"
        }
      ],
      "stateMutability": "view",
      "type": "function"
    },
    {
      "inputs": [],
      "name": "renderer",
      "outputs": [
        {
          "internalType": "contract IMandalaRenderer",
          "name": "",
          "type": "address"
        }
      ],
      "stateMutability": "view",
      "type": "function"
    },
    {
      "inputs": [],
      "name": "renounceOwnership",
      "outputs": [],
      "stateMutability": "nonpayable",
      "type": "function"
    },
    {
      "inputs": [
        {
          "internalType": "uint256",
          "name": "tokenId",
          "type": "uint256"
        },
        {
          "internalType": "uint256",
          "name": "salePrice",
          "type": "uint256"
        }
      ],
      "name": "royaltyInfo",
      "outputs": [
        {
          "internalType": "address",
          "name": "receiver",
          "type": "address"
        },
        {
          "internalType": "uint256",
          "name": "amount",
          "type": "uint256"
        }
      ],
      "stateMutability": "view",
      "type": "function"
    },
    {
      "inputs": [
        {
          "internalType": "address",
          "name": "from",
          "type": "address"
        },
        {
          "internalType": "address",
          "name": "to",
          "type": "address"
        },
        {
          "internalType": "uint256",
          "name": "tokenId",
          "type": "uint256"
        }
      ],
      "name": "safeTransferFrom",
      "outputs": [],
      "stateMutability": "nonpayable",
      "type": "function"
    },
    {
      "inputs": [
        {
          "internalType": "address",
          "name": "from",
          "type": "address"
        },
        {
          "internalType": "address",
          "name": "to",
          "type": "address"
        },
        {
          "internalType": "uint256",
          "name": "tokenId",
          "type": "uint256"
        },
        {
          "internalType": "bytes",
          "name": "data",
          "type": "bytes"
        }
      ],
      "name": "safeTransferFrom",
      "outputs": [],
      "stateMutability": "nonpayable",
      "type": "function"
    },
    {
      "inputs": [
        {
          "internalType": "address",
          "name": "operator",
          "type": "address"
        },
        {
          "internalType": "bool",
          "name": "approved",
          "type": "bool"
        }
      ],
      "name": "setApprovalForAll",
      "outputs": [],
      "stateMutability": "nonpayable",
      "type": "function"
    },
    {
      "inputs": [
        {
          "internalType": "address",
          "name": "receiver",
          "type": "address"
        },
        {
          "internalType": "uint96",
          "name": "feeBps",
          "type": "uint96"
        }
      ],
      "name": "setRoyalty",
      "outputs": [],
      "stateMutability": "nonpayable",
      "type": "function"
    },
    {
      "inputs": [
        {
          "internalType": "bytes4",
          "name": "iid",
          "type": "bytes4"
        }
      ],
      "name": "supportsInterface",
      "outputs": [
        {
          "internalType": "bool",
          "name": "",
          "type": "bool"
        }
      ],
      "stateMutability": "view",
      "type": "function"
    },
    {
      "inputs": [],
      "name": "symbol",
      "outputs": [
        {
          "internalType": "string",
          "name": "",
          "type": "string"
        }
      ],
      "stateMutability": "view",
      "type": "function"
    },
    {
      "inputs": [
        {
          "internalType": "uint256",
          "name": "id",
          "type": "uint256"
        }
      ],
      "name": "tokenURI",
      "outputs": [
        {
          "internalType": "string",
          "name": "",
          "type": "string"
        }
      ],
      "stateMutability": "view",
      "type": "function"
    },
    {
      "inputs": [],
      "name": "totalSupply",
      "outputs": [
        {
          "internalType": "uint256",
          "name": "",
          "type": "uint256"
        }
      ],
      "stateMutability": "view",
      "type": "function"
    },
    {
      "inputs": [
        {
          "internalType": "address",
          "name": "from",
          "type": "address"
        },
        {
          "internalType": "address",
          "name": "to",
          "type": "address"
        },
        {
          "internalType": "uint256",
          "name": "tokenId",
          "type": "uint256"
        }
      ],
      "name": "transferFrom",
      "outputs": [],
      "stateMutability": "nonpayable",
      "type": "function"
    },
    {
      "inputs": [
        {
          "internalType": "address",
          "name": "newOwner",
          "type": "address"
        }
      ],
      "name": "transferOwnership",
      "outputs": [],
      "stateMutability": "nonpayable",
      "type": "function"
    },
    {
      "inputs": [],
      "name": "treasury",
      "outputs": [
        {
          "internalType": "address payable",
          "name": "",
          "type": "address"
        }
      ],
      "stateMutability": "view",
      "type": "function"
    },
    {
      "inputs": [],
      "name": "withdraw",
      "outputs": [],
      "stateMutability": "nonpayable",
      "type": "function"
    }
  ],
  "bytecode": "0x60c06040526001600a5534801561001557600080fd5b50604051612cdd380380612cdd833981016040819052610034916101e3565b3360405180604001604052806008815260200167486173684a696e6760c01b81525060405180604001604052806002815260200161242560f11b815250816000908161008091906102b4565b50600161008d82826102b4565b5050506001600160a01b0381166100bf57604051631e4fbdf760e01b8152600060048201526024015b60405180910390fd5b6100c8816100ee565b506001600160a01b0381166080523360a08190526100e8906102ee610140565b50610373565b600880546001600160a01b038381166001600160a01b0319831681179093556040519116919082907f8be0079c531659141344cd1fd0a4f28419497f9722a3daafe3b4186f6b6457e090600090a35050565b6127106001600160601b03821681101561017f57604051636f483d0960e01b81526001600160601b0383166004820152602481018290526044016100b6565b6001600160a01b0383166101a957604051635b6cc80560e11b8152600060048201526024016100b6565b50604080518082019091526001600160a01b039092168083526001600160601b039091166020909201829052600160a01b90910217600655565b6000602082840312156101f557600080fd5b81516001600160a01b038116811461020c57600080fd5b9392505050565b634e487b7160e01b600052604160045260246000fd5b600181811c9082168061023d57607f821691505b60208210810361025d57634e487b7160e01b600052602260045260246000fd5b50919050565b601f8211156102af576000816000526020600020601f850160051c8101602086101561028c5750805b601f850160051c820191505b818110156102ab57828155600101610298565b5050505b505050565b81516001600160401b038111156102cd576102cd610213565b6102e1816102db8454610229565b84610263565b602080601f83116001811461031657600084156102fe5750858301515b600019600386901b1c1916600185901b1785556102ab565b600085815260208120601f198616915b8281101561034557888601518255948401946001909101908401610326565b50858210156103635787850151600019600388901b60f8161c191681555b5050505050600190811b01905550565b60805160a0516129306103ad600039600081816103360152818161079601526107d80152600081816103bf0152610a1c01526129306000f3fe6080604052600436106101815760003560e01c806370a08231116100d157806399ec67651161008a578063b88d4fde11610064578063b88d4fde14610485578063c87b56dd146104a5578063e985e9c5146104c5578063f2fde38b146104e557600080fd5b806399ec676514610434578063a22cb4651461044a578063b85f3fb81461046a57600080fd5b806370a0823114610378578063715018a6146103985780638ada6b0f146103ad5780638da5cb5b146103e15780638f2fc60b146103ff57806395d89b411461041f57600080fd5b806323b872dd1161013e5780633dca40e6116101185780633dca40e6146102d657806342842e0e1461030457806361d027b3146103245780636352211e1461035857600080fd5b806323b872dd146102625780632a55205a146102825780633ccfd60b146102c157600080fd5b806301ffc9a71461018657806306fdde03146101bb578063081812fc146101dd578063095ea7b3146102155780631249c58b1461023757806318160ddd1461023f575b600080fd5b34801561019257600080fd5b506101a66101a1366004611f92565b610505565b60405190151581526020015b60405180910390f35b3480156101c757600080fd5b506101d0610516565b6040516101b29190611fff565b3480156101e957600080fd5b506101fd6101f8366004612012565b6105a8565b6040516001600160a01b0390911681526020016101b2565b34801561022157600080fd5b50610235610230366004612042565b6105d1565b005b6102356105e0565b34801561024b57600080fd5b50610254610660565b6040519081526020016101b2565b34801561026e57600080fd5b5061023561027d36600461206c565b610676565b34801561028e57600080fd5b506102a261029d3660046120a8565b610706565b604080516001600160a01b0390931683526020830191909152016101b2565b3480156102cd57600080fd5b5061023561078b565b3480156102e257600080fd5b506102ec6103e881565b6040516001600160601b0390911681526020016101b2565b34801561031057600080fd5b5061023561031f36600461206c565b610889565b34801561033057600080fd5b506101fd7f000000000000000000000000000000000000000000000000000000000000000081565b34801561036457600080fd5b506101fd610373366004612012565b6108a9565b34801561038457600080fd5b506102546103933660046120ca565b6108b4565b3480156103a457600080fd5b506102356108fc565b3480156103b957600080fd5b506101fd7f000000000000000000000000000000000000000000000000000000000000000081565b3480156103ed57600080fd5b506008546001600160a01b03166101fd565b34801561040b57600080fd5b5061023561041a3660046120e5565b610910565b34801561042b57600080fd5b506101d0610967565b34801561044057600080fd5b5061025461200081565b34801561045657600080fd5b50610235610465366004612128565b610976565b34801561047657600080fd5b5061025466071afd498d000081565b34801561049157600080fd5b506102356104a03660046121c8565b610981565b3480156104b157600080fd5b506101d06104c0366004612012565b610999565b3480156104d157600080fd5b506101a66104e0366004612273565b610ba7565b3480156104f157600080fd5b506102356105003660046120ca565b610bd5565b600061051082610c10565b92915050565b606060008054610525906122a6565b80601f0160208091040260200160405190810160405280929190818152602001828054610551906122a6565b801561059e5780601f106105735761010080835404028352916020019161059e565b820191906000526020600020905b81548152906001019060200180831161058157829003601f168201915b5050505050905090565b60006105b382610c35565b506000828152600460205260409020546001600160a01b0316610510565b6105dc828233610c6e565b5050565b600a54612000811115610606576040516352df9fe560e01b815260040160405180910390fd5b66071afd498d0000341461062d576040516339c5f2df60e01b815260040160405180910390fd5b6106388160016122f0565b600a5561064481610c7b565b60008281526009602052604090205561065d3382610ce0565b50565b60006001600a546106719190612303565b905090565b6001600160a01b0382166106a557604051633250574960e11b8152600060048201526024015b60405180910390fd5b60006106b2838333610cfa565b9050836001600160a01b0316816001600160a01b031614610700576040516364283d7b60e01b81526001600160a01b038086166004830152602482018490528216604482015260640161069c565b50505050565b600082815260076020526040812080548291906001600160a01b03811690600160a01b90046001600160601b03168161075a5750506006546001600160a01b03811690600160a01b90046001600160601b03165b60006127106107726001600160601b03841689612316565b61077c9190612343565b92989297509195505050505050565b336001600160a01b037f000000000000000000000000000000000000000000000000000000000000000016146107d45760405163b90cdbb160e01b815260040160405180910390fd5b60007f00000000000000000000000000000000000000000000000000000000000000006001600160a01b03164760405160006040518083038185875af1925050503d8060008114610841576040519150601f19603f3d011682016040523d82523d6000602084013e610846565b606091505b505090508061065d5760405162461bcd60e51b815260206004820152600f60248201526e15da5d1a191c985dc819985a5b1959608a1b604482015260640161069c565b6108a483838360405180602001604052806000815250610981565b505050565b600061051082610c35565b60006001600160a01b0382166108e0576040516322718ad960e21b81526000600482015260240161069c565b506001600160a01b031660009081526003602052604090205490565b610904610df5565b61090e6000610e22565b565b610918610df5565b6103e86001600160601b038216111561095d5760405162461bcd60e51b81526020600482015260076024820152664d61782031302560c81b604482015260640161069c565b6105dc8282610e74565b606060018054610525906122a6565b6105dc338383610f17565b61098c848484610676565b6107003385858585610fb6565b60606109a4826110e1565b6109f05760405162461bcd60e51b815260206004820152601e60248201527f486173684a696e674e46543a206e6f6e6578697374656e7420746f6b656e0000604482015260640161069c565b6000828152600960205260408082205490516302158aa560e11b815260048101829052909190610a98907f00000000000000000000000000000000000000000000000000000000000000006001600160a01b03169063042b154a90602401600060405180830381865afa158015610a6b573d6000803e3d6000fd5b505050506040513d6000823e601f3d908101601f19168201604052610a939190810190612357565b611118565b90506000610aa58361113e565b90506000610ab284611189565b9050600082610ade576040518060400160405280600581526020016466616c736560d81b815250610afc565b604051806040016040528060048152602001637472756560e01b8152505b610b088360ff166112d2565b610b13876020611365565b604051602001610b25939291906123ea565b60405160208183030381529060405290506000610b78610b44896112d2565b610b4f886020611365565b8785604051602001610b6494939291906124e8565b604051602081830303815290604052611118565b905080604051602001610b8b9190612726565b6040516020818303038152906040529650505050505050919050565b6001600160a01b03918216600090815260056020908152604080832093909416825291909152205460ff1690565b610bdd610df5565b6001600160a01b038116610c0757604051631e4fbdf760e01b81526000600482015260240161069c565b61065d81610e22565b60006001600160e01b0319821663152a902d60e11b14806105105750610510826114e5565b6000818152600260205260408120546001600160a01b03168061051057604051637e27328960e01b81526004810184905260240161069c565b6108a48383836001611535565b6000610c88600143612303565b60408051914060208301524290820152446060808301919091526080820184905233901b6bffffffffffffffffffffffff191660a082015260b401604051602081830303815290604052805190602001209050919050565b6105dc82826040518060200160405280600081525061163b565b6000828152600260205260408120546001600160a01b0390811690831615610d2757610d27818486611653565b6001600160a01b03811615610d6557610d44600085600080611535565b6001600160a01b038116600090815260036020526040902080546000190190555b6001600160a01b03851615610d94576001600160a01b0385166000908152600360205260409020805460010190555b60008481526002602052604080822080546001600160a01b0319166001600160a01b0389811691821790925591518793918516917fddf252ad1be2c89b69c2b068fc378daa952ba7f163c4a11628f55a4df523b3ef91a490505b9392505050565b6008546001600160a01b0316331461090e5760405163118cdaa760e01b815233600482015260240161069c565b600880546001600160a01b038381166001600160a01b0319831681179093556040519116919082907f8be0079c531659141344cd1fd0a4f28419497f9722a3daafe3b4186f6b6457e090600090a35050565b6127106001600160601b038216811015610eb357604051636f483d0960e01b81526001600160601b03831660048201526024810182905260440161069c565b6001600160a01b038316610edd57604051635b6cc80560e11b81526000600482015260240161069c565b50604080518082019091526001600160a01b039092168083526001600160601b039091166020909201829052600160a01b90910217600655565b6001600160a01b038216610f4957604051630b61174360e31b81526001600160a01b038316600482015260240161069c565b6001600160a01b03838116600081815260056020908152604080832094871680845294825291829020805460ff191686151590811790915591519182527f17307eab39ab6107e8899845ad3d59bd9653f200f220920489ca2b5937696c31910160405180910390a3505050565b6001600160a01b0383163b156110da57604051630a85bd0160e11b81526001600160a01b0384169063150b7a0290610ff890889088908790879060040161276b565b6020604051808303816000875af1925050508015611033575060408051601f3d908101601f19168201909252611030918101906127a8565b60015b61109c573d808015611061576040519150601f19603f3d011682016040523d82523d6000602084013e611066565b606091505b50805160000361109457604051633250574960e11b81526001600160a01b038516600482015260240161069c565b805181602001fd5b6001600160e01b03198116630a85bd0160e11b146110d857604051633250574960e11b81526001600160a01b038516600482015260240161069c565b505b5050505050565b600081158015906110f35750600a5482105b80156105105750506000908152600260205260409020546001600160a01b0316151590565b6060610510826040518060600160405280604081526020016128bb6040913960016116b7565b60008060005b602081101561117f57611168848260208110611162576111626127c5565b1a611837565b6111759060ff16836122f0565b9150600101611144565b5060801492915050565b60008061119583611866565b905061119f611ee3565b6000805b60408160ff1610156112c957835160ff8216604081106111c5576111c56127c5565b602002015160ff161515806111f15750825160ff8216604081106111eb576111eb6127c5565b60200201515b6112c1576111fd611ee3565b61120985858385611997565b156112bf5782611218816127db565b93505060005b60048160ff1610156112bd5760005b60408160ff1610156112b457828260ff166004811061124e5761124e6127c5565b60200201518160ff1660408110611267576112676127c5565b6020020151156112ac576001868360ff1660048110611288576112886127c5565b60200201518260ff16604081106112a1576112a16127c5565b911515602090920201525b60010161122d565b5060010161121e565b505b505b6001016111a3565b50949350505050565b606060006112df83611c00565b600101905060008167ffffffffffffffff8111156112ff576112ff612159565b6040519080825280601f01601f191660200182016040528015611329576020820181803683370190505b5090508181016020015b600019016f181899199a1a9b1b9c1cb0b131b232b360811b600a86061a8153600a850494508461133357509392505050565b6060826000611375846002612316565b6113809060026122f0565b67ffffffffffffffff81111561139857611398612159565b6040519080825280601f01601f1916602001820160405280156113c2576020820181803683370190505b509050600360fc1b816000815181106113dd576113dd6127c5565b60200101906001600160f81b031916908160001a905350600f60fb1b8160018151811061140c5761140c6127c5565b60200101906001600160f81b031916908160001a9053506000611430856002612316565b61143b9060016122f0565b90505b60018111156114b3576f181899199a1a9b1b9c1cb0b131b232b360811b83600f166010811061146f5761146f6127c5565b1a60f81b828281518110611485576114856127c5565b60200101906001600160f81b031916908160001a90535060049290921c916114ac816127fa565b905061143e565b5081156114dd5760405163e22e27eb60e01b8152600481018690526024810185905260440161069c565b949350505050565b60006001600160e01b031982166380ac58cd60e01b148061151657506001600160e01b03198216635b5e139f60e01b145b8061051057506301ffc9a760e01b6001600160e01b0319831614610510565b808061154957506001600160a01b03821615155b1561160b57600061155984610c35565b90506001600160a01b038316158015906115855750826001600160a01b0316816001600160a01b031614155b801561159857506115968184610ba7565b155b156115c15760405163a9fbf51f60e01b81526001600160a01b038416600482015260240161069c565b81156116095783856001600160a01b0316826001600160a01b03167f8c5be1e5ebec7d5bd14f71427d1e84f3dd0314c0f7b2291e5b200ac8c7c3b92560405160405180910390a45b505b5050600090815260046020526040902080546001600160a01b0319166001600160a01b0392909216919091179055565b6116458383611cd8565b6108a4336000858585610fb6565b61165e838383611d3d565b6108a4576001600160a01b03831661168c57604051637e27328960e01b81526004810182905260240161069c565b60405163177e802f60e01b81526001600160a01b03831660048201526024810182905260440161069c565b606083516000036116d75750604080516020810190915260008152610dee565b600082611708576003855160046116ee9190612316565b6116f99060026122f0565b6117039190612343565b61172d565b60038551600261171891906122f0565b6117229190612343565b61172d906004612316565b905060008167ffffffffffffffff81111561174a5761174a612159565b6040519080825280601f01601f191660200182016040528015611774576020820181803683370190505b50905060018501602082018788518901602081018051600082525b828410156117ea576003840193508351603f8160121c168701518653600186019550603f81600c1c168701518653600186019550603f8160061c168701518653600186019550603f811687015186535060018501945061178f565b90525050851561182b5760038851066001811461180e576002811461182157611829565b603d6001830353603d6002830353611829565b603d60018303535b505b50909695505050505050565b60005b60ff821615611861576118506001831682612811565b905060018260ff16901c915061183a565b919050565b61186e611f10565b60005b60208110156119915760006004848360208110611890576118906127c5565b1a901c905060008483602081106118a9576118a96127c5565b1a600f16905060005b60048160ff161015611983576118c981600361282a565b60ff168360ff16901c600116858260ff16600481106118ea576118ea6127c5565b60200201516118fa866002612316565b6040811061190a5761190a6127c5565b60ff909216602092909202015261192281600361282a565b60ff168260ff16901c600116858260ff1660048110611943576119436127c5565b6020020151611953866002612316565b61195e9060016122f0565b6040811061196e5761196e6127c5565b60ff90921660209290920201526001016118b2565b505050806001019050611871565b50919050565b60006119a1611f3d565b6119a9611f3d565b600080835260ff8516825260015b80821015611bf4576000848361010081106119d4576119d46127c5565b602002015190506000848461010081106119f0576119f06127c5565b6020020151905083611a0181612843565b945050888261ffff1660048110611a1a57611a1a6127c5565b60200201518161ffff1660408110611a3457611a346127c5565b602002015180611a7a57508a8261ffff1660048110611a5557611a556127c5565b60200201518161ffff1660408110611a6f57611a6f6127c5565b602002015160ff1615155b15611a865750506119b7565b6001898361ffff1660048110611a9e57611a9e6127c5565b60200201518261ffff1660408110611ab857611ab86127c5565b9115156020909202015261ffff8216600303611ad357600196505b60006040518060800160405280846001611aed919061285c565b61ffff1661ffff1681526020018461ffff16600014611b1657611b1160018661287e565b611b19565b60005b61ffff908116825285811660208084018290526040938401919091528251608081018452918616808352908201529192506000919081810190611b5d86600161285c565b611b679190612899565b61ffff1681526020016040611b7d86603f61285c565b611b879190612899565b61ffff169052905060005b60048160ff161015611bea57611be08e8e8e8c8c888760ff1660048110611bbb57611bbb6127c5565b6020020151888860ff1660048110611bd557611bd56127c5565b60200201518d611da0565b9550600101611b92565b50505050506119b7565b50505050949350505050565b60008072184f03e93ff9f4daa797ed6e38ed64bf6a1f0160401b8310611c3f5772184f03e93ff9f4daa797ed6e38ed64bf6a1f0160401b830492506040015b6d04ee2d6d415b85acef81000000008310611c6b576d04ee2d6d415b85acef8100000000830492506020015b662386f26fc100008310611c8957662386f26fc10000830492506010015b6305f5e1008310611ca1576305f5e100830492506008015b6127108310611cb557612710830492506004015b60648310611cc7576064830492506002015b600a83106105105760010192915050565b6001600160a01b038216611d0257604051633250574960e11b81526000600482015260240161069c565b6000611d1083836000610cfa565b90506001600160a01b038116156108a4576040516339e3563760e11b81526000600482015260240161069c565b60006001600160a01b038316158015906114dd5750826001600160a01b0316846001600160a01b03161480611d775750611d778484610ba7565b806114dd5750506000908152600460205260409020546001600160a01b03908116911614919050565b600060048461ffff16101580611dbb575060408361ffff1610155b15611dc7575080611ed7565b868461ffff1660048110611ddd57611ddd6127c5565b60200201518361ffff1660408110611df757611df76127c5565b602002015180611e385750878461ffff1660048110611e1857611e186127c5565b60200201518361ffff1660408110611e3257611e326127c5565b60200201515b80611e795750888461ffff1660048110611e5457611e546127c5565b60200201518361ffff1660408110611e6e57611e6e6127c5565b602002015160ff1615155b15611e85575080611ed7565b8386836101008110611e9957611e996127c5565b61ffff90921660209290920201528285836101008110611ebb57611ebb6127c5565b61ffff9092166020929092020152611ed48260016122f0565b90505b98975050505050505050565b60405180608001604052806004905b611efa611f5d565b815260200190600190039081611ef25790505090565b60405180608001604052806004905b611f27611f5d565b815260200190600190039081611f1f5790505090565b604051806120000160405280610100906020820280368337509192915050565b6040518061080001604052806040906020820280368337509192915050565b6001600160e01b03198116811461065d57600080fd5b600060208284031215611fa457600080fd5b8135610dee81611f7c565b60005b83811015611fca578181015183820152602001611fb2565b50506000910152565b60008151808452611feb816020860160208601611faf565b601f01601f19169290920160200192915050565b602081526000610dee6020830184611fd3565b60006020828403121561202457600080fd5b5035919050565b80356001600160a01b038116811461186157600080fd5b6000806040838503121561205557600080fd5b61205e8361202b565b946020939093013593505050565b60008060006060848603121561208157600080fd5b61208a8461202b565b92506120986020850161202b565b9150604084013590509250925092565b600080604083850312156120bb57600080fd5b50508035926020909101359150565b6000602082840312156120dc57600080fd5b610dee8261202b565b600080604083850312156120f857600080fd5b6121018361202b565b915060208301356001600160601b038116811461211d57600080fd5b809150509250929050565b6000806040838503121561213b57600080fd5b6121448361202b565b91506020830135801515811461211d57600080fd5b634e487b7160e01b600052604160045260246000fd5b604051601f8201601f1916810167ffffffffffffffff8111828210171561219857612198612159565b604052919050565b600067ffffffffffffffff8211156121ba576121ba612159565b50601f01601f191660200190565b600080600080608085870312156121de57600080fd5b6121e78561202b565b93506121f56020860161202b565b925060408501359150606085013567ffffffffffffffff81111561221857600080fd5b8501601f8101871361222957600080fd5b803561223c612237826121a0565b61216f565b81815288602083850101111561225157600080fd5b8160208401602083013760006020838301015280935050505092959194509250565b6000806040838503121561228657600080fd5b61228f8361202b565b915061229d6020840161202b565b90509250929050565b600181811c908216806122ba57607f821691505b60208210810361199157634e487b7160e01b600052602260045260246000fd5b634e487b7160e01b600052601160045260246000fd5b80820180821115610510576105106122da565b81810381811115610510576105106122da565b8082028115828204841417610510576105106122da565b634e487b7160e01b600052601260045260246000fd5b6000826123525761235261232d565b500490565b60006020828403121561236957600080fd5b815167ffffffffffffffff81111561238057600080fd5b8201601f8101841361239157600080fd5b805161239f612237826121a0565b8181528560208385010111156123b457600080fd5b6123c5826020830160208601611faf565b95945050505050565b600081516123e0818560208601611faf565b9290920192915050565b7f7b202274726169745f74797065223a2242616c616e636564222c202276616c75815260006332911d1160e11b8060208401528551612430816024860160208a01611faf565b6308881f4b60e21b60249185019182018190527f7b202274726169745f74797065223a225061737361676573222c202276616c756028830152604882019290925285519161248583604c840160208a01611faf565b828201925080604c84015250507f7b202274726169745f74797065223a2253656564222c202276616c7565223a22605082015283516124cb816070840160208801611faf565b6222207d60e81b6070929091019182015260730195945050505050565b727b226e616d65223a22486173684a696e67202360681b81528451600090612517816013850160208a01611faf565b61088b60f21b6013918401918201527f226465736372697074696f6e223a2246756c6c79206f6e2d636861696e20486160158201527f73684a696e67206d616e64616c61202d20612064657465726d696e697374696360358201527f2067656e6572617469766520666f726d20646572697665642066726f6d20637260558201527f7970746f6772617068696320656e74726f70792e20536f75726365206861736860758201526101d160f51b609582015285516125dc816097840160208a01611faf565b611ed76127186127126126f86126ea6126e46126af61268661263761260e60978b8d010161088b60f21b815260020190565b7f2263726561746f72223a2244617461536174747661222c000000000000000000815260170190565b7f2265787465726e616c5f75726c223a2268747470733a2f2f6769746875622e6381527f6f6d2f446174615361747476612f686173686a696e67222c0000000000000000602082015260380190565b7f226c6963656e7365223a2243432042592d4e4320342e30222c00000000000000815260190190565b7f22696d616765223a22646174613a696d6167652f7376672b786d6c3b626173658152620d8d0b60ea1b602082015260230190565b8b6123ce565b61088b60f21b815260020190565b6d2261747472696275746573223a5b60901b8152600e0190565b876123ce565b615d7d60f01b815260020190565b7f646174613a6170706c69636174696f6e2f6a736f6e3b6261736536342c00000081526000825161275e81601d850160208701611faf565b91909101601d0192915050565b6001600160a01b038581168252841660208201526040810183905260806060820181905260009061279e90830184611fd3565b9695505050505050565b6000602082840312156127ba57600080fd5b8151610dee81611f7c565b634e487b7160e01b600052603260045260246000fd5b600060ff821660ff81036127f1576127f16122da565b60010192915050565b600081612809576128096122da565b506000190190565b60ff8181168382160190811115610510576105106122da565b60ff8281168282160390811115610510576105106122da565b600060018201612855576128556122da565b5060010190565b61ffff818116838216019080821115612877576128776122da565b5092915050565b61ffff828116828216039080821115612877576128776122da565b600061ffff808416806128ae576128ae61232d565b9216919091069291505056fe4142434445464748494a4b4c4d4e4f505152535455565758595a6162636465666768696a6b6c6d6e6f707172737475767778797a303132333435363738392b2fa2646970667358221220abb427941f0a12d498ca5bf80140679a414d3a918e0c5d382a50bfac62b1988264736f6c63430008190033",
  "linkReferences": {},
  "deployedLinkReferences": {}
}